:020000040000FA
:1000000043433236783252310755714B0301DFFFDB
:10001000FFFF0700FF000000906F0A0000010000D2
:10002000303030318F6F0A008D00FFFF03DFFFFF9C
:1000300055000000011BF89966B0177D511DEC10AA
:100040008B9928C6E34CE08F7DA5A11D34F0860D69
:10005000B45B60C18AE90ACC42B7E53307BA74FFE2
:100060004F99EA708A803C125647D5D3B955FCA8FF
:10007000E49BDA370E789B9B733794B7CD5AD7FA47
:100080001D01DFFF000F6F0A0000000000FFFFFFEF
:10009000FFFFFFFFFFFFFFFFFFFFFFFFFFFFFFFF70
:1000A000FFFFFFFFFFFFFFFFFFFFFFFFFFFFFFFF60
:1000B000FFFFFFFFFFFFFFFFFFFFFFFFFFFFFFFF50
:1000C000FFFFFFFFFFFFFFFFFFFFFFFFFFFFFFFF40
:1000D000FFFFFFFFFFFFFFFFFFFFFFFFFFFFFFFF30
:1000E000FFFFFFFFFFFFFFFFFFFFFFFFFFFFFFFF20
:1000F000FFFFFFFFFFFFFFFFFFFFFFFFFFFFFFFF10
:10010000701B0220F52402000525020007250200CD
:100110000B250200092502000B2502000B25020019
:100120000B2502000B2502000B2502009126020080
:100130000B2502000B250200212702008527020063
:100140000B2502000B2502000B2502000B250200E7
:100150000B2502000B2502000B2502000B250200D7
:100160000B2502000B2502000B2502000B250200C7
:100170000B2502000B2502000B2502000B250200B7
:100180000B2502000B2502000B2502000B250200A7
:100190000B2502000B2502000B2502000B25020097
:1001A0000B2502000B2502000B2502000B25020087
:1001B0000B2502000B2502000B2502000B25020077
:1001C0000B2502000B2502000B2502000B25020067
:1001D0000B2502000B250200FFFFFFFFFFFFFFFFC3
:1001E000F8B504461646F0070D461F4603D41D2EEB
:1001F00018BF1B2E09D1694620468FF08DF81728AD
:1002000011D0F00701D51E2E05D1694620468FF08A
:100210000FF8172807D0069800903B46324629462B
:1002200020468FF055F8F2BDF8B50446104A206F0D
:1002300005685169B4F87A314978EA88C918891D86
:100240008A4214DA002606602F46B86820B1B868E2
:100250000CF0F8FABE60FE8038680746AF42F4D171
:10026000206F05602046BDE8F2408FF089B8F1BDEF
:100270005CF908002DE9F04706F078F8294D2A6866
:10028000116819B10267FFF7CFFF48E00024264E3E
:10029000264F4FF00C088146396808FB04FA514498
:1002A00000200871022238685044641C427172694F
:1002B0003868B9F87A31527800EB0A019A18921D21
:1002C000CA80631004EB937222F00303E21A08FB66
:1002D00002F2104408607069B9F87A114078081881
:1002E000001D80B28EF0C8FE396801F1080242F8A4
:1002F0000A00386800F108015144086810B1086824
:10030000801E0860042CC7DB286839680160002063
:100310002A68506029683A688A602968C860286835
:10032000BDE8F087A00E00205CF90800A80E0020B0
:100330002DE9F04F85B00D460295044615F8011BD6
:100340008DF801100022DFF8E81488788DF800207D
:1003500004F1660B06F014F801902C219DF80100C1
:10036000DFF8D024032804F1F40604F5B07A04F58C
:100370009C7704F5C87804F2171900F0E18007288B
:1003800000F01582082818BF092811D00C2800F0A9
:10039000D9810F2811D0112800F04681182800F0CB
:1003A00094811A2800F059811B2800F07E811CE2FC
:1003B0002946204605F094FF17E2707ADFF878842A
:1003C00081070AD40F2089F8020020468EF0C0FD74
:1003D000002872D198F80000DEE12878697800EBF7
:1003E00001223A82A878E97800EB01227A82287902
:1003F000697900EB0122BA82A879E97900EB012240
:10040000FA82287A3876697AA87A01EB00227A8310
:10041000E87A297B00EB0122BA83687BA97B00EB99
:100420000122FA83E87B297C00EB01223A84687C74
:10043000A97C00EB01227A84E87C297D00EB012273
:10044000BA84687DA97D00EB0122DFF8F003FA840D
:1004500001788A0658BF4FF01A0A13D504F5AA701E
:100460000490798B0391387E029021890191F88A5A
:100470000090BB8A7A8A398A20468EF049FEE8B11C
:100480004FF01E0A707A41070AD40F2089F8020043
:1004900020468EF05DFD00280FD198F800007BE12A
:1004A00052460F2120468EF0D7FEF88A0090BB8A74
:1004B0007A8AA179504601F0B1FE74E104F1860018
:1004C000798A81800023BA8AC2800222F98A018156
:1004D00002704380A18EC91DABF81E10628E818808
:1004E000B1EB520F02BFC188A28E914202BF0089B8
:1004F000E18EB0EB111F21D09BF81000012804BF42
:100500009BF811000F280CD09BF8150000281CBF89
:100510009BF811001A2804D00F218BF81A10FE2125
:100520007EE0FC2120468EF063FFF88A0090BB8AB3
:100530007A8A398AA0798EF0CBFF34E110216FE0FE
:10054000707AC10709D431781A200129707002D15C
:10055000FF220D213DE00D2162E000208BF800001C
:100560008BF80600012232712946082204F1B000FE
:100570008EF066FD0146022204F1B8008EF060FDA7
:1005800004F1A8050146082228468EF059FD0746C9
:10059000082128468EF000FE04F19C05042239460D
:1005A00028468EF04DFD042128468EF0F5FD04F11D
:1005B000A0008EF0D1FE04F198008EF02DFDA04831
:1005C000018841F0800101803078012805D1FF22A7
:1005D000042120468EF08CFCE5E09BF811600F2E84
:1005E00018BF142E07D00E2E18BF0C2E03D01A2EB3
:1005F00018BF162E13D19BF8107020468EF0C0FC49
:10060000042120468EF0F4FE012F06D18BF81A60EB
:100610001A2E14BFFD21FB2102E0314600E0042127
:1006200020468EF0E5FEBEE028788AF800001A2801
:100630006B788AF8013040F0D8801068A679431CA6
:100640004E4300209855A379126811FB03F1114421
:100650000871A1799AF80100C0E0A77910682E7896
:100660004F43074406F01F0317F8210FB60938B1AE
:100670007878F040C00703D598F80600042805D123
:1006800020221A2120468EF0E7FD8CE0FB701068D6
:10069000A27911FB02F10144204681F82360002178
:1006A00026F0E1F80028F0D174E0A37910684B43FC
:1006B0000344D88808B900265E701068A27911FB3F
:1006C00002F10144002008716DE0697828788842C1
:1006D00004BF084010F0070F6DD19BF811001628D9
:1006E00006D198F80620A1791346002001F030FDCC
:1006F000022088F80200012101984177012398F82F
:10070000060098F80A1088F80000BAF81C208EF04D
:100710002FFEBAF81810814209D3BAF81C2098F8B5
:100720000A1098F8000001238EF022FE0146AAF874
:100730002E10012198F8080040F0400088F80800C9
:10074000397030E0707E012810D015F8011B317728
:100750000222294604F589708EF072FC01460222BD
:1007600004F58A708EF06CFC012070769BF8060010
:1007700030B93D21012289F8011089F8002012E0EA
:10078000F07E002804BFB07E00280CD120468EF0F9
:100790006BFE30B9284800784FF480410BF014FE0E
:1007A00001E00120F07601218DF8001021E0287889
:1007B0000F2816D01A2818D1A07913684843184476
:1007C00000234370A079126811FB00F150180371E7
:1007D000F07A00F0FB00F0721A20A17926F047F8B9
:1007E000E1E7707A00F0FD007072204602998EF009
:1007F000A3FD9BF811001A2815D19BF812001728A9
:100800001CBF1028FC280ED19BF8106020468EF0EB
:10081000B7FB012E03BF1A208BF81A00FB211A2107
:1008200020468EF0E5FD9DF8000005B0BDE8F08F94
:10083000780E0020DC280020C70F0020200E0020AA
:100840009C0F00202DE9F8430F4628498046087880
:1008500020B1DFF89C9099F8000008B1122040E028
:10086000032FA8BF18203CDA002140468EF034FD4B
:10087000040008BF342034D0002537B1022F08D03F
:100880000AD2A16DD1F8055006E0A06DD0F8055050
:1008900015B9E06DD0F80550214628468EF044FC8D
:1008A00001001ED1207A002600B1012617B128468A
:1008B0000CF08CF976B1606D00788EF011FC90B977
:1008C0000C48626D0168107801EBC000017941F0BD
:1008D000040101710220084989F8000081F80080B4
:1008E0000020BDE8F2831E20FBE700BFA70F002019
:1008F000A60F0020B00E0020640200202DE9F04178
:100900000E463549054608781746984608B912201C
:100910005FE0002128468EF0DFFC040008BF342091
:1009200057D0300002D0012E08D01BE0606D417816
:1009300001F01201022926D0A06D04E0606D41781B
:10094000880720D5E06D03214170A0F803703100C5
:10095000C0F8058002D125F05FFF01E025F05EFFC1
:10096000072801D1182034E068B91C4F3868011DF0
:1009700011F83520500711D5206E01210170206E2D
:1009800025F04EFF08B11E2023E03868011D001D30
:1009900011F8352002F0FB0200F83520396801EB30
:1009A000C5000179CA0704D5320008BF01F0FE0175
:1009B00005D08A0704D5012E02D101F0FD01017195
:1009C0000749087820B100220A70FF200549087005
:1009D0000020BDE8F08100BFA70F0020B00E00206E
:1009E000A60F0020640200201CB501240246032A41
:1009F000084613D0832A08D042F219018A4214D043
:100A00004FF6FF718A420CD014E0428900920389AC
:100A1000C2888188C07800F031F80CE08EF090FC3C
:100A200009E08EF08DFD044605E0807818B18EF067
:100A3000ABFB00E00024204616BD000038B505469B
:100A40000F2D0C4616DA4FF6FF72914212D0022893
:100A500006D13C2014FB00F080B28EF0BDFB04E018
:100A60000E2804BFE0B201F099FA034820F81540BF
:100A7000002032BD022032BDCC010020F8B5044672
:100A80000D4616461F460C200BF036FB010010D019
:100A90000698D0220A704881182306484C708B7043
:100AA000CC708D80CE800F81BDE8F44000780BF0D3
:100AB000E7BBF1BD2D1C00201CB501240246032A12
:100AC00008460ED0832A13D042F213018A4204D082
:100AD0004FF6FF718A4207D013E0807800F014F8D7
:100AE00010E000F019F80DE08EF0DAFB044609E0A2
:100AF000418900910389C2888188C078FFF7BEFFD1
:100B000000E00024204616BD0C281CBF11281A281E
:100B100001D18EF0BDB970477CB504460121E07863
:100B2000134E1A284FF6FF7506D1A08832889042DE
:100B300005D18EF0ADF90146E0781A2808D1A088D9
:100B40003288904218BFE07808D108000FD006E044
:100B5000302801BFA28833889A42358039B1358068
:100B6000618900912389E288A1888EF0CDFB73BD55
:100B7000580200201CB5144C0346E07902280A46AE
:100B800002D11BB9002016BD04281AD0CBB11F2AF0
:100B9000A8BF1F22694601208EF03AFC10B10178EF
:100BA00019B900E00021E07958B1E079012818BFB7
:100BB000032802D111F0030F03D10228E2D1C807A4
:100BC000E0D5012016BD00BF200200202DE9F04134
:100BD000054628480E4601684A0203D42648C179D2
:100BE000042928D02968AA68086828B98B68936105
:100BF00008460BF0EBFF1EE0D08A30B10BF0D6FFB9
:100C0000A968886108B9132032E0A8682C68876950
:100C1000227942B1A16838460BF007FAA0680BF0C0
:100C2000D5FF20790744D4F8008020460BF0CEFF92
:100C30005FEA0804ECD1A868104C017801F09F012C
:100C40000170A86801780E430670A86801780A0749
:100C500006D4C18A8069FFF78DFF38B9012102E00F
:100C6000207818B100212170352001E0002020708B
:100C7000BDE8F08110020020200200203027002073
:100C800070B5002408380528264D4AD8DFE800F062
:100C90000F150306090C4FF4001039E04FF48010D3
:100CA00036E04FF4002033E04FF4802030E0286835
:100CB000C10336D54FF480302AE01B4C206880B346
:100CC0001A49086808B18EF05FF902208EF024FA04
:100CD0002068174E0BF07AFF30680BF077FF00208A
:100CE000206030602A6890031BD5124908780BF009
:100CF0005DFF040008D01049104B0A7822704FF4B1
:100D00000030597A617003E08EF02AFA4FF000400B
:100D10000B490B682BB10B490A682146BDE87040AE
:100D2000184770BD10020020D40E0020D00E002005
:100D3000D80E00206C020020AD0F00202002002001
:100D4000E40E0020E00E002010B5024601241078C9
:100D5000912804D0A2281CD0D02821D030E051788E
:100D600005290AD00E2904D00F290AD03E290CD01B
:100D700026E0104600F0D0F810E010468EF00CF996
:100D80001FE0104600F012F908E0104600F01CF8D1
:100D900004E050884FF6FF718EF062FB044610E0CD
:100DA0009078122802D0132805D00AE051785068B4
:100DB0008EF0DAF905E05168D0788EF0F9F900E0AC
:100DC0000024204610BD000038B5044686B0A07847
:100DD00001250146012918D003292CD0062939D034
:100DE0000A2912D00E291CBF0F29102900F0898072
:100DF000152918BF162979D017297DD0812975D0DA
:100E0000832918D0842974D080E021468EF0A0FB7D
:100E10006846214616228CF06FFDBDF804008EF066
:100E2000BBFA040073D000208EF0CAF80146608837
:100E300001F0B2FA6BE0A08822468EF011FB054665
:100E4000E078002863D123896289E188A0888EF048
:100E5000CFF95CE0A088012240218EF041FA002009
:100E60008EF072F8C0B2022821D110200BF044F9A4
:100E7000B8B1D02101701121E27842708170A2884E
:100E80008280E188C18022890281618941810021BB
:100E9000A2898173828101461E4800780BF0F0F927
:100EA00035E0A088002240218EF01AFA2FE0A188B8
:100EB000ADF80010012803D10021ADF80A1011E0AF
:100EC00080B9E088ADF8020000212089ADF8040067
:100ED0006089ADF80600A089ADF808008DF80A1009
:100EE0008DF80B5068468EF07BF910E022461821F1
:100EF00004E022461C2101E02246062125F0B0FC38
:100F000002E0204625F00DFD054600E000252846BC
:100F100007B030BD2D1C002010B58388012442F29B
:100F20000202991A1CD0891F012937D9891F1BD0A9
:100F3000193902291DD9891F1BD01139022921D93C
:100F4000C91F052921D90C39062921D9C91F14D057
:100F5000491E1AD04DF61E42891A01291ED921E0D8
:100F600080688DF0B9FF1BE08EF002F88EF018FA61
:100F700019E081680878B0B114E08268052142F276
:100F8000580008E025F0BFFC0AE025F0C6FC07E0A9
:100F900082680321184625F063FC01E025F0C4FCBB
:100FA000044600E00024204610BD000070B5838890
:100FB000012142F213041A1B04D0921F12D02B3AC3
:100FC0001BD01EE0104D2E884FF6FF72964209D0BE
:100FD0000E4B1A68002A1CBF1268002A12D0014664
:100FE000204608E00A4A1268002A1CBF1268002A3C
:100FF00008D001461846904701E025F090FC0146D4
:1010000000E00021084670BD58020020C40E0020F8
:10101000C00E0020F8B50C461546002620B1012868
:1010200010D0042814D01DE0162C19DA0F4F162208
:10103000002138460BF02BF82246294638460AF0A4
:10104000F4FF10E0022C0BD12888094908800AE03F
:10105000082C05D10748294608228CF04DFC02E0F7
:10106000182600E002263046F2BD00BF38270020D7
:1010700050270020541A002080B50021C00706D553
:10108000044B054810220B2100F0E0FA0146084607
:1010900002BD00BFD0F80800601A00202DE9F84317
:1010A0000D4600272878022814461E4662D168683B
:1010B0000178DDF8208040785FEA080201EB00202B
:1010C00004D0B0F5285F0ED00B2056E04FF4285125
:1010D000401A08D0401E24D0C01E2AD0A23843D0C7
:1010E000233841D046E0DDF82490E8680AF09BFF01
:1010F00080B2A0EB08024A45BCBFA0EB08001FFA73
:1011000080F909EB0800162809DAA6F800904A468B
:10111000E86800EB080120460AF087FF2CE00D2765
:101120002AE0E8680088022131802070000A60709F
:1011300022E0E868B0B1082131800288227003887B
:101140001B0A63704188A1704288120AE27081888C
:1011500021718288120A6271C188A171C088000A57
:10116000E07109E0308007E001213180E868027811
:10117000227001E0378001273846BDE8F283000085
:101180002DE9F0470F468146387800260228904620
:101190001D4651D17868089C0178407801EB002207
:1011A0004FF42853D21ADFF898A006D0521E27D049
:1011B000A53A3FD0233A3DD03EE0F8680AF033FF2D
:1011C00080B2A0421AD3611916291CDAFB682A469C
:1011D000414618190AF029FF2D19F868ADB2C5F17A
:1011E0001602002140190AF052FFDAF80000002828
:1011F0001CBF0268002A20D0002118E007261CE04E
:101200001CB9022D03D00D2617E00B2615E098F827
:10121000000098F8011000EB0122F8680280DAF86B
:10122000000000281CBF0268002A06D001214846A1
:10123000904702E0032600E001263046BDE8F08733
:101240003427002001490860704700BF5427002060
:101250002DE9F843092986B0064617463ED196F88F
:10126000242039887888521C491E86F8242041435E
:10127000786889B2425C08444178307B012802EBEF
:10128000012439D139887888002548431FFA80F92C
:101290003D80A846C8452FDA7888D7F804C0B17CCD
:1012A000431FC4449BB20CF1050206F113008DF0FC
:1012B0005BFE70B1A84506D078687A8800EB08011B
:1012C00040190AF0B2FE788839884519491CADB238
:1012D0003980788840445FFA80F8DBE738790A285B
:1012E00018BF062802D196F8240090BB96F8240077
:1012F000401C86F824007C884FF6FF70844218BF9B
:10130000002C26D0308A844223DA307B641C0128EA
:10131000F48112D1ADF800400222318AADF80210FA
:101320008DF80420032128228DF805108DF8062061
:10133000694630888DF02CFF04E0308806F10E01FC
:101340008DF026FF307A47F230510BF047FB162024
:1013500000E0002007B0BDE8F08370B50D460446FC
:10136000287A4107164604D530468DF0BDFE01228D
:1013700005E0410609D530468DF0B6FE0022014653
:101380002046BDE8704001F057B8C10617D5304679
:101390008DF0AAFE01460122204601F04DF860B909
:1013A00030468DF011FE030005D029462046BDE8E9
:1013B00070400A2218470E2070BD082070BDC0077B
:1013C00001D4022070BD002070BDF8B50E46054660
:1013D000307A810617461C461DD538468DF084FEAE
:1013E00001460122284601F027F830B1607A10B199
:1013F000207A012801D00820F2BD38468DF0E4FDA6
:10140000030006D03146284601B0BDE8F040122264
:1014100018470E20F2BD010609D538468DF064FE4E
:1014200001462846BDE8F840002201F005B8010752
:101430000FD538468DF058FE01460122284600F0AF
:10144000FBFF010009D0617A41B1217A012904D062
:10145000F2BD800701D40320F2BD0020F2BD1CB50F
:1014600004460846694600888DF0AAFF010001D1B4
:10147000012016BDBDF800202046FFF76EFF16BD07
:101480007CB506460D46002409E0BDF80020014663
:101490003046FFF762FF01001CD1641CA4B2A8888B
:1014A000844221DA286810F81420401C694610F89C
:1014B000143002EB03208DF083FF0028E5D128686B
:1014C00010F8141001702868421C12F814104170B2
:1014D000012076BD296811F814200A7029684B1C78
:1014E00013F814204A7076BD002076BD38B5044646
:1014F0000D46694628888DF063FF08B9012032BD8A
:10150000BDF8002001462B462046FFF75EFF32BDA6
:101510007CB504460D468DF0D3FF06000AD101A824
:1015200021460090ADF804507F23034C2078002220
:101530008DF05AFE304676BD7202002001490870D7
:10154000704700BF730200202DE9F0411F4C204F6F
:10155000204E214D2070214801703A703078C00033
:101560000BF024FB010028602ED038784FF6FF786E
:1015700078B930781A4F80000BF018FB0100386002
:1015800004D12868BDE8F0410BF020BB404624F0B0
:10159000B7FD2968002006E021F8308001EBC00388
:1015A00000225A60401C32789042F5DB05208DF015
:1015B000A3FC20788DF0BCFD0A488DF0E1FD207879
:1015C000BDE8F0418DF048BFBDE8F081B40F0020C8
:1015D000101B0020C10F0020000F00205827002002
:1015E0007C2700200D1E000038B50D46290427D5A4
:1015F000144A10780AF060FE04001ED02078A22859
:101600000BD0B02816D120468DF052FC90B1217934
:1016100004F108008DF048FD0CE06079652808BFF2
:1016200000F05EFC08480078FF2803D021460AF04D
:1016300027FE10B120460AF071FD85F4004032BD4E
:10164000002032BDB40F0020760200203EB5040019
:101650001D460FD0ADF800108DF8022001946846A9
:101660008DF096FE010006D12DB1608929468DF0DE
:101670009FFC3EBD02203EBD80B50021C2070ED5B5
:101680000849087820B9084B08481022042103E0D3
:101690000023102201210648FFF7D8FF0146084623
:1016A00002BD00BF101B0020E4F80800141B00203E
:1016B000541B002038B504460D4D8DF015FC2880D4
:1016C000294660888DF080FD38B120892A889042B3
:1016D00088BF10462880162032BD21892A88914271
:1016E00088BF11466088FFF713FF002032BD00BF9E
:1016F000380C00202DE9F44F054686B068888B46EB
:101700008DF0D6FD4549841E0878A4B288B14449BD
:101710008D4204D02022294641480AF086FC414EE1
:101720000594414FDFF8F480DFF80091DFF800A165
:1017300017E005F10806F3E7BBF1000F49D1638913
:10174000BAF80020D9F8001068888DF08DFC0028C8
:1017500083463ED130884FF6FF71884239D0401C15
:10176000308005983989801E884232DBBBF1000F3A
:101770002FD104A80090337971883088721D8DF0C4
:10178000FBFD040025D0608930802146BDF8102083
:101790006888FFF7E2FD8346D8B928790599D9F81A
:1017A000003003908A1E92B2002002920190CDF880
:1017B00000A0BDF810206888214600F0A7F98346F4
:1017C00098F800000028B7D0BBF1160FB4D1002064
:1017D00021E039895846C1B17A8891FBF2F139800C
:1017E00098F8000050B10E4C217904F108008DF0FA
:1017F0005BFC2022002120460AF049FC688839461B
:101800008DF0C2FD38B1162005E0C1B201B90A2041
:10181000069932880A8007B0BDE8F08F582700206B
:101820005C27002064270020380C0020080F0020CF
:10183000840F00202DE9F84F044686B06088584E8A
:10184000DFF860B189468DF033FD074604A80090AB
:10185000237B6189208904F10D028DF08DFD002527
:10186000804605974AE07168FF20C855ABB27068A2
:10187000FF22C25435E0A8B2002840F0848060887E
:1018800000234FF6FF7211218DF0C6FD0028706015
:1018900073D0BBF80010091D71806D1C7168B8F819
:1018A0000A00C855AAB2B8F80A007168000A88543C
:1018B000BDF8102061890DF1120340468DF050FDF6
:1018C0006F1C80467D1CB8F1000FBFB2CBD0716891
:1018D000BDF81200C855AAB2BDF812007168000A1E
:1018E00088546D1C304873680168BBF80020AFB2A3
:1018F000D8190AF09AFBBBF800004519B8F1000F9F
:10190000AFB222D0BDF8102060884146FFF725FD18
:101910008246A0B920790599234B1B6803908A1F42
:1019200092B2002002920190CDF800B0BDF81020D4
:101930006088414600F0EAF8002882469BD0B8F85B
:101940000A10A9F80010504600E00020ADB245B9D9
:10195000C1B201B90A202189A9F8001007B0BDE879
:10196000F08F708897FBF0F03080314660888DF002
:1019700097FB0028F2D01620F0E7B8F80A00A9F883
:1019800000001120EAE77188BBF80000091F8142BE
:10199000E7D10599891FC0198142BFF67EAFE0E704
:1019A000380C0020840F0020080F00203EB54D6841
:1019B0001821144601916A880092AB88AA68298888
:1019C000408800F0A5F9162802D10021A9603EBD8B
:1019D00001001CBF298821803EBD00002DE9FC418B
:1019E00005460E469046002000270DE001906088D5
:1019F0000090A388A268688800F08AF9162816D19A
:101A00000021A1607F1CFFB20C490A78974213DACB
:101A100071680C237B430B441C46218861B1781C00
:101A200090421BBF9889002818201620DEE7002866
:101A3000E8D02188A8F80010BDE8F681B50F002095
:101A400070B505460C468DF0EFFB010006D14FF650
:101A5000FF708DF0E9FB010017D00D80002200E03F
:101A6000521C0B4B1D78D0B2A8420ED24B68D6B296
:101A70000C256E43334418880028F1D10C222146EE
:101A800018460AF0D2FA002070BD092070BD00BFD0
:101A9000B50F0020F8B5054600260F4C0BE0B868DE
:101AA00008B10AF0CFFE0C22002138460AF0EFFA06
:101AB00000203880761C2178F0B2884207D26A680C
:101AC000F3B20C214B43D71838880028E7D14FF6E2
:101AD000FF712980F1BD00BFB50F00207CB50C78E7
:101AE000022C10D14C682578647805EB042642F668
:101AF0000215AE4207D1BDF818500095022401949A
:101B000024F0A7FB76BD012076BD00002DE9FE4F35
:101B10000D468246287AC10693461E464FF00009BC
:101B20000CD558468DF050FA030000F0E9800A22E7
:101B30002946504698475FEA00094CD128780C9F07
:101B40000D9CDDF83880022819D16868017840784A
:101B500001EB00224FF42053D21A012A10D9921E11
:101B60003AD0521E14D0FD3A7BD0521E00F0828033
:101B7000521E6ED0521E74D0521E00F09680ACE001
:101B8000002C2AD1E868017839800278416888E021
:101B9000002C22D101203880E9680A7832700021B7
:101BA0006889401C80B28DF00BFC398860B10278E6
:101BB0008918891C3980438973704189090AB17079
:101BC00002784168F01C6DE0091D39800422002173
:101BD000701C0AF05CFA95E0002C67D1E868048874
:101BE000042139803470220A72700DF102012046FE
:101BF0008DF0E6FB5FEA000821D0D8F80C40BDF874
:101C000002204FF6FF756B4629468DF0A9FB50B9AF
:101C100098F80030D8F804203C4802218DF0A4F94F
:101C200008B9ADF80050207802280AD16168022274
:101C3000301D0AF0FAF93888801C388001E0ADF8D0
:101C40000040BDF80000B070BDF80010090AF17046
:101C500058E0002C2AD1E8680168504624F0E2FAE6
:101C600002E01CBBE8680088022139803070000A5D
:101C7000707047E0E8680AF0D6F982B2A242B8BFB5
:101C80004FF007093EDB944208BF002205D008EB65
:101C900004019142B4BF4246121B3A8092B2E868F6
:101CA000011930460AF0C1F92CE014B14FF00B09CC
:101CB00028E0E86807213980027832704378737031
:101CC0004188B1704288120AF27001793171C2887C
:101CD0007271C088000AB07114E058468DF0DCFAC9
:101CE0005FEA00090CD09DF83C000290CDF804801A
:101CF00000943B46324629465046C847814601E09B
:101D00004FF00E094846BDE8FE8F00BFF4550900AC
:101D10002DE9FE438146884617461E4602A94046E5
:101D20008DF04EFB04002AD0BDF808008DF07CFB3E
:101D3000844610B3BDF828100B9D009133460195E1
:101D40003A4621464846E0470646C8B9FE2D17D018
:101D50002078022814D160680178407801EB0022D5
:101D600042F602118A420BD13878797800EB0122D1
:101D70004146484600F096F802E00E2600E00126B3
:101D80003046BDE8FE831FB58DF80820FE23120AF9
:101D90008DF80920019300240094022302AAFFF782
:101DA000B7FF04B010BD000038B5084A0D461168F1
:101DB000044624F037FA800705D529462046BDE8B9
:101DC00034408DF0B1BA012032BD00BF7C27002025
:101DD0007CB505464FF6FF7601AC009402230A4A13
:101DE000314601208DF0C8FA0BE0E0680168284612
:101DF00024F086F9BDF804200023314620468DF0FA
:101E0000AFFA0400F1D173BDE455090038B50129DA
:101E1000044606D002293CD101218DF00DFA00289C
:101E200037D120468DF000FA08B1FFF733FE204687
:101E3000FFF7CEFF1749087898B1174D6888A04280
:101E40000FD129791548491CC9B28DF02DF929798E
:101E500005F108008DF028F92022002128460AF01B
:101E600016F90F4D28460AF085FE10E0208958B17A
:101E7000214628460AF08DFEA17A04F10C008DF06F
:101E800013F920460AF0A2FE20460AF075FE04006F
:101E9000ECD131BD582700205C270020380C0020F1
:101EA000180E0020F8B50D4C0E462178FF29054686
:101EB000174611D00A200AF01FF968B1B12101704C
:101EC0000022427002714580C68007810146207859
:101ED000BDE8F4400AF0D4B9F1BD00BF73020020A0
:101EE00038B50F4D28460AF045FE040007D10D48CD
:101EF0000D4A01780D4811700023037031BDA17A9D
:101F0000208904F10C028DF067F840B9214628467B
:101F10000AF03FFE2046BDE832400AF057BE31BD10
:101F2000180E00207602002075020020A40F002069
:101F300038B51C460A4B1D78012D01D13A2032BD1F
:101F4000130018BF002C02D010F47F4F01D01220D4
:101F500032BD0B46214601B0BDE8304000F084BFE1
:101F6000B60F00200B4980B509888DF801100020BC
:101F70008DF80000090A8DF802106A4606480178BB
:101F80008DF8031042F2020004218CF0D9FF0020EA
:101F900002BD00BFA0280020C60F002080B501F0C0
:101FA0002BFA8DF800006A4601214FF674408CF040
:101FB000C7FF002002BD70B54A1ED2B2002305E063
:101FC000D51AC45C465DC65444555B1CB3EB510F37
:101FD000F6DB70BD2DE9F843054624480E4601782E
:101FE00001291746984608D121480188491E0180D9
:101FF00089B211B901208CF08FFFDFF8789099F841
:102000000000FF2478B10C200AF076F848B3902144
:1020100001700222447045800271C78086600146CB
:1020200099F8000019E008200AF066F8C8B101210B
:1020300001704470711F416002220A7041684D7046
:102040002D0A416845EA08158D704268D7703F0A2D
:1020500041680F71014608480078BDE8F4430AF072
:102060000FB93046BDE8F2430AF0ECBBB70F0020D1
:10207000860F00208327002080270020F1B5234F02
:102080000D4639781646A9B10C200AF035F804003F
:102090003AD0912020703E2182226170A2700522E8
:1020A000BDF80000A080A6712946E01D09F0BDFF23
:1020B000387826E014200AF01FF8040024D001200C
:1020C0002070FF2104F1080261706260042010702A
:1020D0003E226068427009216068817082216068D8
:1020E000C170022260686946001D09F09EFF6068A9
:1020F0008671052260682946C01D09F096FF0448D4
:10210000007821460AF0BCF8F1BD00BF822700200C
:1021100080270020F8B50D4F044638780D46164646
:1021200070B1062009F0E8FF01000ED09020087081
:102130004C704D808E803878BDE8F4400AF0A0B82D
:102140002046BDE8F2408DF097B8F1BD832700200E
:102150002DE9F04104462D480D46C1798806164602
:102160001F4650D52A49487801074CD5200004D095
:1021700057EA060004BF01260127DFF8988098F887
:102180000010C1B1082009F0B7FF00283BD0912111
:1021900001703E220C2342708370C4708580042E2F
:1021A00008BF03268671042F08BF0327C7710146A5
:1021B00098F8000023E0112009F09EFF18B30121D8
:1021C0000170FF22427000F10801416004220A7090
:1021D0003E234B7006228A704D710C22CA702D0A64
:1021E0000C718D71CA1D511C042E08BF0326167078
:1021F000042F08BF03270F70014607480078BDE889
:10220000F0410AF03DB8BDE8F08100BF280E002083
:10221000200E002082270020802700202DE9F04199
:10222000044611480D4601781646CA07984619D546
:102230000E4F3978B1B10C2009F05EFF90B10699CC
:10224000912202703E234370832282704181C470C8
:102250008580C680A0F8088001463878BDE8F04146
:102260000AF00EB8BDE8F081852700208227002003
:1022700080B50B490B4A087000200B49107008709C
:102280000A4A0B49107008708DF03AF909490A4B57
:102290007F2088700022094802701A7001BD00BFBB
:1022A000802700208127002082270020832700200C
:1022B00084270020200E002085270020B60F002054
:1022C00038B50D46290414D50B4A107809F0F4FFEF
:1022D00004000CD02078032808BFE06802D0012851
:1022E00002D160680AF0AEFA204609F017FF85F4C3
:1022F0000045284632BD00BF8027002001490870F4
:10230000704700BF8227002001490870704700BF56
:102310008327002001490870704700BF84270020F0
:1023200070B504462078902830D16078132816D1F3
:102330000021174A06E0A368CDB233F815603018C3
:102340001070491CA5781078CBB2AB42F3D3E8B13A
:10235000BDE870400F4A107801210AF035B88A288C
:1023600018BF8B280DD1A18860888DF089F862781C
:1023700005218B2A08BF042140B1BDE870408CF0D4
:1023800043BF2046BDE870408DF096B870BD00BFD9
:10239000BB0F0020B90F0020F8B50C4F0546386878
:1023A0000E46062438B90A490A7812FB04F00AF0EE
:1023B000FDFB386040B13868654331462844BDE8CC
:1023C000F840062209F031BEF1BD00BF8827002089
:1023D000C10F00200449096809B90020704706228E
:1023E00050430844704700BF8827002078B587B065
:1023F0000F9C250013D0BDF8485006950394BDF8F6
:1024000040509DF8384004950294BDF844600D9DFD
:102410000C9C0596019500948CF0C2FE00E03120E2
:1024200008B070BD80B500208DF8000068468CF0C3
:1024300077FF9DF8000002BD70B506460C461546B4
:102440008CF0AAFF28B94FF6FE70864219D01420EE
:1024500070BDC16A99B10279D00601D40F2070BD58
:102460000948007800B11024930700D43DB9897E53
:10247000A14201D20C2070BD18B1900601D40520F4
:1024800070BD002070BD00BFC20F002082492DE941
:10249000F043824C824E20700B22002008600D23F6
:1024A00080484FF40A7102704380818085B07E4875
:1024B0000660B77E7D480770FF2FF17E4170327F46
:1024C0008270737FC370B57F0571F67F467108BF58
:1024D000FF2914D1FF2A08BFFF2B10D1FF2D08BF01
:1024E000FF2E0CD172490A7802704B7843708A78BB
:1024F0008270CB78C3700A790271497941716D4954
:1025000002786D4D6D4E6E4F0A7043784B70827835
:102510008A70C378CB7002790A714079694A487130
:10252000FF2028706870A870E8702871687100201A
:1025300065490880F06B6549407808706449F06B24
:10254000007808701388634863490380F06BC06C9F
:1025500008606249F06B90F83C0008706049F06BCD
:1025600090F83D0008705F49F06B90F860000870CB
:10257000F06B406901795C484A1E0270F06B5B4960
:10258000C0783870F06B8069086008B909F0DEFC2B
:10259000F06B5749C069086008B909F0D7FCF06BC7
:1025A000416D54480C2209F040FD8CF07DFCF06B2D
:1025B0005149006A086008B909F0C8FCF06BDFF8FF
:1025C0003C81406AC8F8000008B909F0BFFCF06B14
:1025D0004B49806A086008B909F0B8FCF06BC06D1F
:1025E00000B1012024F07FF903F0D2FE07280AD1C0
:1025F00004F014F820784FF4804109F0E5FE002043
:1026000009F0A4FC44E03F480168884781468AF00D
:1026100087FBD8F8000001688847684681F09CFA7B
:10262000D8F8002004208DF80000694652F8043FD5
:10263000002098473449086004F0C4F9F068334A30
:1026400001883878324B0143118048461968884721
:102650000C21304804F03FF928468CF065FC8CF0E2
:102660004BFE2D4800214FF6FF7201608280817180
:10267000F06B90F858102948006803F003FC012122
:10268000FF2024F0F9F820784FF4005109F09CFE67
:1026900005B0BDE8F08300BF380F0020C70F002051
:1026A000B64F0050700E00203C0F0020400E00205E
:1026B000E8120050500E0020480E00205CF908007F
:1026C000C40F0020D01B00209E0F0020C60F00204A
:1026D000D40F0020A0280020C02800204829002076
:1026E00049290020B9280020CB0F0020200F00200E
:1026F000240F0020A4280020280F00202C0F0020E9
:10270000300F002090200020B4280020A00F0020CF
:1027100094200020FC0D0020800E00205429002071
:10272000704770472DE9F04F0F46380589B018D52E
:10273000DFF8E4532888FF280ED0C0B203F016FE5D
:10274000040009D0A07916218CF0B2FE204603F0D7
:10275000F9F8204603F000F9FF20288087F4006094
:10276000D6E1F80504D524F0D5F887F48070CFE1E0
:10277000B80604D524F06CF887F02000C8E1F8070B
:102780000CD506F03DF830B100218160DFF88C03F4
:10279000006800B1804787F00100B9E1380704D52F
:1027A00024F058F887F00800B2E1F8060FD50021B0
:1027B0000022002306910592049103930291019255
:1027C000009102208CF018FE87F01000A0E1B807FD
:1027D0000FD50021002306910591049103930291E6
:1027E0000191009101223C208CF006FE87F002004E
:1027F0008EE179074FF01E08C94EDFF828A340F19B
:10280000CD80C948002200210892079100788CF001
:1028100063FD0446C5488178FF2904BF002009F004
:1028200095FBA07A03F0A2FD05469AF8000095F802
:102830002E91002805F5947B69D0606D807A02287E
:1028400018BF032807D130680D308CF0E1FC10B9B7
:102850003068C11D0791594648468CF0D1FBA0B3A2
:10286000606D807C3368002818BF012804D11946A8
:1028700058468CF0E5FC04E05A46494618468CF070
:10288000C7FBFF2843D018FB00F8306840440622FD
:102890005946C01D09F0C9FB306810F808104044C3
:1028A00000F1010BC01D41F0020908900622616D84
:1028B000C87A00F0010085F82E01606D00F10C016E
:1028C00005F5947009F0B1FB21E0594648468CF0BB
:1028D000E3FDE0B130685A4649468CF099FBFF2889
:1028E00015D018FB00F8306840440D308CF090FC97
:1028F00058B9306840440D308CF08AFC002801BF84
:1029000030684044417F012901D149F0020905F1B5
:102910002C004B460178069142891209059201224A
:10292000698C0491C0880899029140080390CDF801
:1029300000B0079801900020A9798CF05DFDD5F8D2
:102940009C017B4988420CBF00210121A8798CF0B1
:102950003FFC7848AB7902682C214B431344012299
:102960001A73AB7904684B4323445A73AB790468F8
:102970004B4323449A73AB7904684B432344DA7383
:10298000AB79006811FB03F10144002008740720B3
:10299000A97923F06DFF87F00400B9E038060FD560
:1029A0000021002306910591049103930291019166
:1029B000009101223B208CF01FFD87F08000A7E0F2
:1029C000F8045DD55C4930680C680D308CF020FC53
:1029D000002844D13068C11D0D308CF0F5FC3EE07C
:1029E000606D4178480704F13E0526D52878022815
:1029F0001EBF03286878012830D16978306804F157
:102A000038028CF005FB8146B9F1FF0F15D0306814
:102A100018FB09F948440D308CF0FAFB68B93068AE
:102A20004844C11D0D308CF0CFFC30684844C11DB6
:102A3000062204F1380009F0F8FA2878022818BFB5
:102A400003280BD130680D308CF0E2FB30B93068D0
:102A5000C11D062204F1300009F0E7FA2468002CB9
:102A6000BED13648DAF8042000784FF480510AF0DD
:102A700085F910B18E208CF0FFFB87F4805047E081
:102A8000B80505D588F06AFE2D4901200860FEE7EB
:102A9000780504D509F0C6FA87F4806038E0780438
:102AA00005D581208CF0E8FB87F4804030E0B90444
:102AB0002DD5244C206810B1002009F047FA4FF0C2
:102AC000FF3020600020204C02F082FA216851F88B
:102AD000202F684690471D494A6B086BC96A2468D5
:102AE0001B4B019200900293ADF810106B46194AEF
:102AF00019491A4803921A4A07922568194AA847A1
:102B00001949086000F032F887F4005000E0002016
:102B100009B0BDE8F08F00BF661B0020480F002001
:102B2000680F0020880E0020D70F0020780E0020AC
:102B30004DE50110DC2800204C0F0020C70F0020BD
:102B40007C052043380F0020200F00206C1B002044
:102B5000D16B0000E16B00008C270020A027002033
:102B60001EFB0080EC0A00201C0F0020F8B5584C1A
:102B7000584B2568186855F8183F00224FF0FF3170
:102B8000984706F0CFF85449544AC86B40694179D8
:102B900053481170002301680B8000244B800C7196
:102BA00000684371002002F013FA02F04DFA4D481C
:102BB00000688CF08DF94C4800688CF089F98CF035
:102BC0002FFC4A48006800B104734948006800B10E
:102BD000C4720026474C484D12E06068F1B24FF4D1
:102BE000D072514342185379012B08D1F0B203F04F
:102BF000BDFB074602F0A6FE384602F0ADFE761C8D
:102C00002978F0B28842E8D38CF05AFB3B483C4A22
:102C10000178117005F03CF823F03BFE39488078CC
:102C2000C1074CBF07210521FF2400074CBFFF202F
:102C3000FB2001403448354A0170002134481170AE
:102C40000023344A03700121334811700370334A62
:102C5000334811700370334A33483449137003709A
:102C6000334A344813801B2303804FF4A470324A44
:102C7000324B088010804FF42960314A1880FB21C4
:102C8000304B1180198044F290202F492F4A088040
:102C900010808CF071F98CF09BF923F033FE23F057
:102CA00042FE23F0E2FD2A492A4A002008701F2133
:102CB0002948047044708470C470017127480470FE
:102CC00044708470C4700171252010700020F2BD22
:102CD000200F00201C0F00205CF90800CA0F002004
:102CE000400F00206C0F0020700F0020500F0020BC
:102CF000540F0020780E0020D40F0020C60F0020B3
:102D0000D30F0020C00C0020C50F0020CC0F0020E6
:102D1000CD0F0020CE0F0020CF0F0020D00F0020BD
:102D2000D10F0020D20F0020C42800208C0F0020DB
:102D30009C0F00208A0F00208E0F0020900F002093
:102D4000920F0020960F0020940F0020980F002073
:102D5000C80F0020D8280020C8280020D028002034
:102D600010B5040004BF002009F0F0F81C490878F1
:102D7000052815D11B480168887A012818BF032847
:102D80002BD019482178017062784270A178817047
:102D9000E278C2702179017162794271002010BD20
:102DA000062807D111480168887A012815D0032820
:102DB000E7D112E01128E4D10D4800680028E0D0E6
:102DC000017A0129F9D1416D4A78D106F5D590F8FB
:102DD0003E10012918BF0329EFD10C2010BD00BF00
:102DE000C80F0020500F0020480E0020540F002074
:102DF0004C0F0020F8B504468CF02AFA010017D1D8
:102E0000E0B203F0B3FA0646707908B90220F2BDC9
:102E100006F20D15287801280BD106F58970418836
:102E2000009121460388EA7800208CF071FA002096
:102E3000F2BD0B480B4F016888470446687848B9D3
:102E40000C2130468CF0D4FA012068702046396895
:102E50008847ECE73A68204690473A20F2BD00BF29
:102E600090200020942000202DE9FC410C00054614
:102E70001646984605D05FEA080018BFB8F1010F62
:102E800001D0122045E024480188914204D28A20D2
:102E90008CF0F2F930203CE028468CF0D9F90100A2
:102EA00037D1E8B203F062FA1C4F0546387820B9F2
:102EB00001208CF051F807202BE019480168884761
:102EC0003A781849531E3B70D1F800C0E047B5F876
:102ED0008E01B0420AD23246214628468CF0B8FA1A
:102EE000010016D1204609F0ADFC07E0102000904B
:102EF0004346F2B2214628468CF026FA05F080FCC3
:102F0000296800780A78824204BF28468CF0ACF920
:102F10000020BDE8F68100BFA0280020D30F0020CC
:102F2000902000209420002038B5264C20780928D5
:102F300018BF0A2801D0212032BD40F201408CF098
:102F400017F9207809280DD11F4A204813680188F5
:102F50001F48998000788CF043FA002100208CF003
:102F600037FA2BE00A2829D117481A4D02682B8816
:102F70006988A888CB18C31893806988D180A979FB
:102F8000802918BF81290FBF7F21134B93F90000BF
:102F9000091A11721149087838B1002288680A703C
:102FA00008B109F013FE23F060FC288801218CF0A1
:102FB0000FFA002002F00CF802F046F80020207012
:102FC00032BD00BFC80F0020440F0020AC0E00200F
:102FD000CA0F0020E40D0020C90F002004290020A2
:102FE0002DE9F84304460027002C894642D02C4D99
:102FF000287888423ED3227912F0E00F3AD1204659
:103000008CF076FA012835D12978DFF89880894547
:103010004FF4D07607D04F46D8F80420FBB2734364
:103020001A44507930B3D8F80400F9B27143084417
:103030004279012A2FD1F8B203F098F900F1770311
:103040002A78197911B11978012902D0597E0129FC
:1030500003D1914507D03A2020E001680B78802BFE
:103060000AD0914506D12878F9B2814215D281451E
:10307000D9D012E0122011E00021625C4318491CF3
:10308000052983F86120F8DB818EC91DA0F8921014
:1030900001218CF0ADF97F1CE5E70020BDE8F2834B
:1030A000D40F0020780E002010B5A0F11B02E12AF9
:1030B0003EBFA1F5A47244F249139A4207D20D4AC9
:1030C0001488844222BF0C4B1A888A4201D21220F3
:1030D00010BD0A4A53789A0601D4112010BD084A3F
:1030E000084B094C1080094801801980218000207C
:1030F00010BD00BF920F0020940F0020C00C0020D4
:103100008A0F00208E0F0020900F00208C0F0020CF
:1031100070B5044601208CF0B7F8002500B10125F8
:103120001B4801680A7B012A0CBF012000200543CF
:1031300018480168CA7A012A0CBF01200020054303
:10314000EDB20DB10C2070BD134D144E28787CB13A
:10315000012C1BD1317849B972684FF4805109F0C4
:103160000DFE08B1032070BD01203070002070BD3D
:1031700031780029FAD04FF4805109F03FFE2878C9
:103180004FF4805109F086F90020EEE7122070BD5F
:10319000500F0020540F0020C70F0020880E002081
:1031A00010B5010003D04AF2B911884201DB30208A
:1031B00010BD0A4A4FF47A714843506010780128D4
:1031C0000AD1074C20784FF4805109F017FE20787F
:1031D0004FF4805109F0F8F8002010BD880E00204F
:1031E000C70F002018B591B0412168468AF081FBD5
:1031F000684603F0BFFA044620210DF101008BF070
:10320000CBFF20210DF121008BF0C6FF002C0CBF5D
:1032100000201F200DF121020DF101018BF0C4FEF1
:10322000002012B010BD10B5A2B0014640220DF131
:1032300001008AF061FB04218DF800100DF10100FE
:1032400020218BF0A9FF20210DF121008BF0A4FF9C
:1032500011A9684603F0DCFA00280CBF00241F24E3
:1032600020210DF145008BF097FF0DF1450120461F
:103270008CF05EF8002022B010BD70B506460D003F
:10328000144618BF002C01D1122070BD00202870F8
:10329000207030468BF0DCFF01000FD1F0B203F05C
:1032A00065F890F89611042908BF0321297090F859
:1032B0009601042808BF03202070002070BD000084
:1032C00083B24FF2FF52A3F20153934222BF8BB25B
:1032D000A3F20153934201D212207047094A1368A6
:1032E000188059800A21B3F9000090FBF1F119719F
:1032F0001068B0F902100A2291FBF2F2427100202C
:10330000704700BF400F002010B508B9122010BD53
:103310000C4A517809B10C2010BD0B4A435C54187B
:10332000491C08296370F9DB9078C1074CBF07215D
:10333000052100074CBFFF20FB200140034801701E
:10334000002010BD780E0020C00C0020C50F00200A
:103350002DE9F041064605F053FA044630468BF05D
:1033600077FF010035D1F0B203F000F8050014BF7B
:10337000002C02202DD01848184F0168884780463D
:103380002078802811BF402815498A78964214D1A8
:1033900040F201408BF0ECFE05F2171001211622DD
:1033A0000170427021780F48402902D10E4A026014
:1033B00001E00E490160012103E00D4806804FF451
:1033C0000061387809F000F80A490A6840469047D9
:1033D0000020BDE8F08100BF90200020C70F002032
:1033E000780E0020480F00208F6802008D680200D0
:1033F000661B00209420002010F0070001D11E2041
:103400007047024908700020704700BF681B002009
:1034100070B506460C0018BF002A12D0507980B152
:10342000907902F0ADFF05465EB9207802280AD1F6
:103430001D48016891F82400697B814201D203286C
:103440002FDB002070BD10280AD1032023F063FA7F
:1034500030B190F8B100697B814201D2032820DBB2
:103460002078042803D111480168087E06E001286D
:103470000AD10F4801680A6892F8B800697B814256
:10348000DFD20328DDDA0CE00828DAD123F038FA9D
:103490000028D6D090F8C600697B8142D1D203289B
:1034A000CFDA012070BD00BF500F0020540F002064
:1034B000182900202DE9F0418846284904468878DB
:1034C00002F054FF0646264801780227052908D055
:1034D000062912D0112914D012291BD0132905D086
:1034E0001DE0204A106890F8247018E0032023F0B3
:1034F00012FAA0B190F8B17011E01B4801680F7E7C
:103500000DE01A48007800218BF0E6FE38B190F803
:10351000B87004E023F0F4F908B190F8C670144DC7
:103520002868214604F0A4FB08B9474512D2308927
:1035300006280FDB0F4908688047012204462A71DC
:1035400040F201408BF014FE0B490A682046904778
:10355000012000E00020BDE8F08100BF780E0020CF
:10356000C80F0020500F0020540F0020D50F00205E
:10357000102900209020002094200020024908609B
:1035800000200871704700BF102900200148007911
:10359000704700BF1029002030B501460B4BC868AA
:1035A0001C680A68A04208BF196003680B60858820
:1035B0008B888C688D80838083688B6084600260D8
:1035C000C268CA600021C16030BD00BF1829002058
:1035D000F8B505462868416D4A78D10648BF40F6DF
:1035E000AC5469D4066D448B4CB9307CC0F3800177
:1035F0000023872200F003008BF0A6FD0446296813
:1036000001F1440204F2DC541069437898072AD48B
:10361000888C68B9528802B9362296F84000C0F307
:103620008001002300F003008BF08EFD041943E0BD
:103630005178012915DD96F840001278C0F3800119
:10364000002300F003008BF07FFD2A68014620462E
:10365000948C92F8452004F59B74521E02FB0404DE
:1036600027E0241828E0243196F84000CA7FC0F3F0
:103670008001002300F003008BF066FD07462868F8
:1036800000F144014A78012A15DD96F840000A78D5
:10369000C0F38001002300F003008BF055FD2A6881
:1036A00092F845300146204607F59B745B1E03FBEC
:1036B00004040C1900E03C19AC80F1BD30B50146A2
:1036C00009480A4C00682578002201E0C068521CB5
:1036D000D3B2AB4205D20028F9D003688B42F5D1B2
:1036E00030BD002030BD00BF182900201C2900205B
:1036F0002DE9F04706468946FFF7E0FF20B100209C
:10370000C9F80000012051E0102009F04FFA040030
:1037100047D0274F26603968264E002904BF3078ED
:10372000002808D13C60E4608BF082FE00F5385040
:1037300000F1E0082EE0307801284FF47A650ED1D0
:103740000968086900F5FA5A03F0C0F800F00F089C
:103750003868E06015FB08A83968CC601AE0086892
:10376000006900F5FA5803F0B1F800F00F0015FBFE
:1037700000883D6800E00546E86802681069414637
:1037800004F076FA18B9E86839688842F3D1E86835
:10379000E060EC603078401C3070C9F80040404672
:1037A00004E000210E208BF0A7FE0020BDE8F0878A
:1037B000182900201C29002070B505460024287E09
:1037C00085F87200012633E0686D427A95F8720040
:1037D0002B7EA0F12501A3F1250006FA01F106FADE
:1037E00000F0014322EA01011C22624301F00701BB
:1037F000A81841F02401242980F8721016D127213D
:1038000080F8721012E0002C08BF0328DCD18BF086
:103810000FFE297E00F001004118491CC8B285F84E
:1038200072102828A4BFC91E85F87210641CE4B267
:10383000E87D411E8C42E6DB70BD000010B50446F9
:10384000002120788BF048FD08B9422010BD406D62
:10385000B4F8031043780022D80607D520290FDBDF
:10386000A4F80320C4F80520122010BD07480388DF
:103870008B4205D2A4F80320C4F80520072010BD10
:103880002046BDE8104000218BF046BE60020020BB
:1038900010B50446002120788BF01EFD08B94220A7
:1038A00010BD406DB4F8031043780022D80607D548
:1038B00020290FDBA4F80320C4F80520122010BD36
:1038C000074803888B4205D2A4F80320C4F80520DA
:1038D000072010BD2046BDE8104001218BF01CBE22
:1038E000600200202DE9F84F05004ED0DFF8EC8291
:1038F00098F80000092818BF0A2804D00B281CBF1C
:103900000C280D2801D1212065E1A87800218BF039
:10391000E3FC040008BF4220F6D0B14FA978DFF8DD
:10392000C4A2397098F8000010B9A8788AF800008D
:1039300004F14806F068417801F01201022902BF43
:10394000706900280C2012D0607AF0B1A07B0128A9
:1039500004D1B5F8030008B1812816DA6878402848
:1039600013DA20468BF070FBB06808B9072032E10B
:10397000B561287801281FD1A07B00281CBF012831
:10398000042819D19848007808B9122023E19749F2
:103990004A78824208BF0920F8D0F0684178480789
:1039A0000AD504F1220180204A7F04F1380101F098
:1039B00039FF08B10B200EE1687808B911200AE13F
:1039C0002878DFF82C92DFF82CB2012840F0B28082
:1039D00000212173F166217A012903D1B169687947
:1039E0004871F7E0112022F0A7FF0120002120728A
:1039F000E1726173254604F053FE6060DBF800005D
:103A000080477D4A0146106802E06A6842600068AB
:103A10000028FAD10846D9F8001088476968774825
:103A200048610021387822F027FF397801221120DF
:103A300022F01EFFF0684178C80605D5284600F040
:103A4000E1FC010024D0C6E0688C22F0F1FE85F88C
:103A50002100F068007822F048FF04001CBF94F8B1
:103A6000B000002807D0E87F40F02000E877687DAC
:103A700040F018006875284622F0D8FE0100E2D117
:103A800034B194F8B000012804BF284622F033FF77
:103A9000F0684178C8071CD505F14204A1880029C7
:103AA0001CBF3068002814D022788A4211D20F201F
:103AB0008BF036FA68B1F06801788DF800100F20AD
:103AC000A288ADF8012021788DF8031069468BF0AB
:103AD00013FD98F80000A0B94949087800281EBFD6
:103AE000F068417811F0030F03D0464800688BF06E
:103AF0002FFC112088F800000121297222F08AFE93
:103B000068E02846FFF7DAFD00281CBFB1680029ED
:103B100060D0AA7B012A04D02A69808802EB800247
:103B200002E0486E2A69821895F8B8101046FFF72F
:103B3000C1FC4FE0207A00284CD0DBF80010884709
:103B400005463878012122F097FE00202E49207288
:103B50000A683E7811460B68187A002802BF586D33
:103B60000378B34203D0C9689142F4D10BE0274EE9
:103B70003078012807DD0846FFF70EFD09F026F82A
:103B80003078411E31703A789AF80000824217D19D
:103B900004F036FE6168884212D105F0C3F840F2A5
:103BA00001408BF0E5FA1A491A4A1B4808600121C6
:103BB000107808F009FCD9F800102846884709E079
:103BC00020468BF081FAD9F8001028468847204615
:103BD00001F0E0F90020BDE8F28F00BFC80F00201F
:103BE000D60F0020D50F0020D40F0020780E002023
:103BF00094200020902000204C0F0020D18800004D
:103C0000880E00206C0F0020182900201C2900209D
:103C1000480F0020C70F0020754C000038B5104831
:103C20000068002101E0017200680028FBD10D4806
:103C30000D4D01688847044605E0C16829600022EF
:103C4000C26008F0C3FF28680028F6D1074A084B75
:103C500028600021117020461C68A04731BD00BFBC
:103C60004C0F002090200020182900201C29002043
:103C70009420002070B51748174C007802280ED108
:103C80002068C46801688288A58883688580A668E2
:103C90008660256805602160A280A36070BD03284E
:103CA00016DB2068FFF778FC2668054600E006462C
:103CB000F068016828680969006903F0D9FF0028E5
:103CC0001EBFF06821688842F1D1F068F560E860B5
:103CD00070BD00BF1C29002018290020F8B58BF00A
:103CE000A7FB374D0446286800281EBF354E3078A4
:103CF000002801D10020F2BD29680A68107A002846
:103D000041D13278022A3EDB0846FFF745FC08F035
:103D10005DFF3078411E317035E002F0D7FD296833
:103D200009684B6DD3F803700A6927F07F4740F6A6
:103D3000C41303FB07224FF00B0C90FBFCFC0B277A
:103D400007FB1C0080B24FF47A63584312FA80F0EC
:103D500008610AE00868827B012ADED18BF068FBEB
:103D600029680A6800F57A601061307802280ADB59
:103D70002868C16800680A680069116903F078FF63
:103D800008B1FFF777FF286801680969204603F04A
:103D90006FFF00282968DDD10A68107A0028ABD0AF
:103DA000506D094B02781A700868016D00698860CF
:103DB000296808684168026D4A60006DF2BD00BF65
:103DC000182900201C290020D50F002010B5184C00
:103DD00020688BF03DF948B30179032926D1007A98
:103DE00010F00F0F1CBF00F00F01012908D000F0E8
:103DF0000F02022A1EBF042900F00F00062815D169
:103E00000C4801680A6A507880B1C8694078002877
:103E100018BF02280AD1084800680178407881421A
:103E200004D120688BF0D8FA012010BD002010BD0D
:103E30008C0A0020500F0020700F00202DE9F04761
:103E4000804608F1480517460E46AA68B00702F1F9
:103E5000A40408F12A0918D5E968487810F0030F7E
:103E600004BFB9F81C1000290FD1286868B992F86E
:103E70008A0000F0FD0082F88A000622EB6803F158
:103E80000C01204608F0D1F8A41D300708D5B9F878
:103E9000161004F8011BB9F81600000A04F8010B0B
:103EA000F00608F1210A18D5B9F800103329B4BF7B
:103EB00040200020E9689AF800308A7D511E03F006
:103EC0003F031843C9B2C7F30C07207047EA4137D4
:103ED00067703F043F0EA770E41CB00604D521466E
:103EE000404622F00CFD123470060ED50849094BED
:103EF000C86B416908689AF8082002EB42028156B3
:103F00001A6892F9040041182170BDE8F08700BFDB
:103F10005CF90800400F00202DE9FE4F0446002008
:103F2000009080460CB908F011F804F1500641F6F3
:103F3000230037683880A7F8028002223A737A7328
:103F400069462046FFF7D4FB08B9072050E20099E4
:103F500001B1B860B8682061DFF89804017884F88E
:103F6000B8107068407A00F0CDFB25302076B87329
:103F700087F80F807168087D022804BF002007F0D1
:103F8000E5FF7068007D012802D10020002104E0D7
:103F900083280CBF0620022020213874797404F194
:103FA0002405DFF854A4DAF83C004169086869790F
:103FB00001EB41010844B0F801207A827068417831
:103FC00048060AD5607DC10604D5E07F40F0400078
:103FD000E07702E040F04000607507F15C0904F111
:103FE000300089F80080A97E890001F0040189F879
:103FF0000010B866607DC10654D5726851788A0693
:104000000BD500F0FE0060757068417811F0030F69
:1040100003D1E07F00F0FE00E077607D8AF040FF92
:10402000A0750023387CA27DC0F38001521C00F0F3
:1040300003008BF089F8A0831E20A28B02F59B73EE
:1040400093FBF0F01E2101FB1030C0B208B1C0F1AB
:104050001E00821802F59B7262831E20A28B02F55D
:10406000967293B293FBF0F001FB1030A283C0B2C2
:1040700008B1C0F11E008018A08380B2E27D618B80
:10408000521E50434018608307F13008608BB430F3
:1040900080003866062089F80300E17F41F00801BE
:1040A000E17720E040F00100607571684A785107BF
:1040B00044BF40F002006075607D8AF0F1FEA0759B
:1040C0000023387CA27DC0F38001521C00F0030065
:1040D0008BF03AF8A083A08B00F59670A0830020A7
:1040E000386689F80300A17D207D61F3050007F1A2
:1040F0008801207508700322607D48708A70A87E50
:10410000800000F0040040F003008870EA7ED200D6
:1041100002F00802104388700020C8700021C7F820
:104120009010A88BC0F30B00A8837168CA7D40EA89
:104130000230A8830022617D01F0FE012046FFF7D6
:104140007DFE019700271DE01C20784304EB000B47
:1041500001991C220BF1640007F067FF0BF16C0062
:10416000052101717F1CA28B92000260FFB2DAF878
:104170003C104A6911686B7903EB43031944B1F8A9
:1041800001204281E07D401E8742DDDB019F204609
:10419000FFF712FBE07D012809D013D3032809D0D3
:1041A0003EBF04F164007860C6F818800AE0C7F8E2
:1041B000048007E004F16400786004F18001B161DB
:1041C000C6F8348041F6240038860021798607F14C
:1041D0003C08B868618B00EB8100B8630221822043
:1041E00088F8000088F80110002194F8210088F870
:1041F000031000F03F0088F802007068807D0128FD
:1042000018BF022803D100F07F00401E04E083287D
:104210000CBF06200220202188F8040088F8051031
:104220004FF0000BDAF83C00416908686A7902EB4C
:1042300042021044B0F80110A8F80610C7F86CB09C
:104240007068417811F0030F20D08BF02DF9F866DB
:10425000DAF818000078C1074CBF1F200F20DAF8E9
:10426000181009788A0748BF40F02000DAF81810C3
:1042700009784A0748BF40F04000DAF8181009787A
:104280000A0748BF40F0800089F8140089F815B08B
:1042900071685A4A897C01F0030189F81510A87EDB
:1042A000800000F00400014389F81510E87EC0008A
:1042B00000F00800014341F0100189F81510107852
:1042C00038B199F8140000F0FE0041F0400189F87F
:1042D000140089F81510E07F8AF0E2FD84F82000D0
:1042E00020468AF0B1FFE07FC10635D5706894F8AA
:1042F00020204178521C88074EBFD21EE87F12183A
:1043000098F80400C0F380010023D2B200F003004B
:104310008AF01AFF28801E22288800F59670C0F1C6
:104320001E0190FBF2F21E2000FB02112971716840
:10433000487881074CBF00204FF49B7029884018B3
:1043400028806880B86B29882A795218A63200EB39
:1043500082007867022002E0C7F874B0002089F874
:10436000170004F13000C7F8800007F1840071687D
:104370004A78510707D504F13802026099F8150010
:1043800040F0200007E01E490A685168016099F872
:10439000150000F0DF0089F81500A17F94F82000D7
:1043A00060F30501A17740F60B00A8F81000A8F80B
:1043B00012B0DAF83800008880007865DAF8380042
:1043C000008800B1072088F81C00022088F81D0032
:1043D00094F84510A8F81E1070684178880744BF0B
:1043E0000121A8F81E10009808B1FFF7F1F800208D
:1043F000BDE8FE8FB82800205CF90800880E002078
:104400006C0F00202DE9F84F0446002000900CB9F5
:1044100007F09CFD04F1500569462E682046FFF721
:1044200067F908B9072015E1A04641F28839DFF89D
:1044300028B2DFF828A2002469684A7A182060436D
:1044400001233718A3401A420AD098F80E103AF800
:104450001100388000211BF80420BA73F97302E0C0
:1044600040F6010038800021798007F1180078605B
:10447000387B00F0EF00387340F08000387398F814
:104480000E10012916D1002C0CBF02200520397B0B
:1044900001F0F0010843387324B98AF0C9FF00F530
:1044A0007A6000E04846B860787B00F0F00040F0A9
:1044B000020017E0002C0CBF0221002100F0F000E8
:1044C0000843387324B98AF0B3FF00F57A6000E03E
:1044D0000020B860022C0CBF01200220797B01F083
:1044E000F00108437873641C06F14800386106F156
:1044F0006801032C79619FDB98F80E0000240128E5
:1045000008F1A80718D108F19C0070631822314601
:1045100007F08BFD06F118002865C5F8549039782E
:1045200001F0F00141F005013970787800F0F000F9
:1045300040F00200787000E07463B068C8F81000C2
:104540004748017839748AF0AFFFB0644548816903
:104550000978CA074CBF1F210F218269127893077F
:1045600048BF41F0200182691278530748BF41F0EB
:10457000400182691078020748BF41F0800106F1CE
:104580004C02117054706968887C00F0030008F1D7
:104590003E0150700B7863F382005070497894703C
:1045A00061F3C3005070D47040F010005070346557
:1045B000746508F13800F06598F80E00012818BFFE
:1045C000042815D0A86830B1B0F803009070A9682D
:1045D000D1F805003065E86830B1B0F80300D0705C
:1045E000E968D1F8050070651F4801684868F06502
:1045F00008F13000B065D07D00F0EF00D07540F0DC
:104600008000D07500F0F00040F00600D0752869F9
:10461000B0F8030000280EBF144849F64041484353
:1046200070661349087838B15078117840F040002E
:1046300001F0FE01507011700E498B7850785906C8
:104640004CBF40F0200000F0DF0050700098FEF7F3
:10465000BFFF0020BDE8F28F506E0210F46B021015
:10466000B82800205CF908006C0F002000204E00E4
:10467000880E0020C00C002070B520490B7803F094
:104680000104C3F340010C19C3F380010C191C4948
:104690008D7B0022A5F12501C9B2060018BF0128B3
:1046A00001D01E2070BD012C12D0040003D10229BC
:1046B00011D04A1C06E001280DD109B902220AE0F6
:1046C00001F1FF02D4B2022C05DDD0B2032814D1CF
:1046D000084670BD0022012494402342F5D1040015
:1046E00004D1D4B2022CF5D0521CEBE70128E9D159
:1046F000D4B2002CE2D0521EE4E770BD681B00204B
:10470000E80B002038B5044602F0E0F804F001029E
:10471000C4F340018A18C4F380018A1890FBF2F1B7
:1047200002FB11010025C9B200200122824014427F
:1047300003D0EAB28A4204D06D1C401CC2B2032AE4
:10474000F3DBC0B232BD0000F0B5124B1B7890FB1A
:10475000F3F403FB1400FF21002200230E4C00257C
:10476000E65CEE40F70704D5D6B287B2BE4205D06C
:10477000521C6D1CEEB2082EF2DB05E0D90051FA96
:1047800085F1CDB2FF2D02D15B1C052BE7DBC8B252
:10479000F0BD00BFD8280020D028002038B504463E
:1047A0000D4600210C4A2172107810B120468AF083
:1047B0008BFC204600F0EEFB3C2D18BF432D0AD1A8
:1047C00006488178880706D529462046BDE8384046
:1047D000FF228AF0A5BC31BD1C290020200E00203C
:1047E0002DE9F84F054605F14C0AE87D9AF80010CE
:1047F000DAF8047081424FF00008C0F0918105F1B1
:10480000280407F1900907F17306C34640F08C8035
:10481000A87F7075E97FB175DAF8082052789307A0
:1048200010D5EA7FD30604D5C01E707501F0EF01E4
:10483000B175C7F874B086F800800022B17D01F030
:10484000FE0168E1910608D4E08B00B1E07E30768D
:10485000E08B00B1206AC9F80000DAF8080041785E
:10486000CA070DD5E08B00281CBF206A002807D09E
:10487000C9F80000A17EE08B814238BF084630763F
:10488000E87FC1060CD5B86B217800EB8100B863D6
:10489000B86BA98CA63100EB81007867022002E09A
:1048A000C7F874B000203070DAF80800417811F0D1
:1048B000030F22D1007822F018F85FEA00081CD01C
:1048C00098F8B000032809D1E87F810615D440F09C
:1048D0002000E877B07D40F020000DE068B9E87F67
:1048E00081060AD500F0DF00E877707DA0F11201A3
:1048F0007175B07D00F0DF00B075E97F002201F036
:10490000FC012846FFF79AFAB8F1000F36D0E87F8D
:10491000810633D598F8B00002282FD141462846A9
:10492000BDE8F44F21F0E5BFE87F81060AD500F02D
:10493000DF00E877707DA0F112017175B07D00F0A5
:10494000DF00B075DAF808004178C80717D5B07DE8
:10495000717D00F0F700891E01F03F0182075CBF06
:10496000891D40F00200420644BF491E00F0BF000E
:10497000B0757175C9F800B086F81880D0E09AF863
:104980000020E87D121AD2B28907009240F180809F
:10499000012A07F140083ED1B86BA98C00EB8100D9
:1049A000B863A87F00F03F00A8777075E97FB17504
:1049B000DAF8082053785A0703D5801F707501F084
:1049C000FD01B1750023717D98F80000E27E01F0D1
:1049D0003F018A18C0F38001521C00F003008AF0E6
:1049E000B3FB00F59B70A8841E2180B290FBF1F010
:1049F000B17D82B201F0FE012846FFF71FFA86F86A
:104A000000B0E08B00B1E07E3076E08B00B1206A30
:104A1000C9F8000084E0B86BA98C022A00EB810081
:104A2000B86325D1E87FC10706D5707D811F7175F8
:104A3000B07D00F0FE00B0750023717D98F8000095
:104A4000E27E01F03F018A18C0F38001521C00F0A1
:104A500003008AF079FB00F59B70A8840022B17DE9
:104A600001F0FE012846FFF7E9F9607FA8F81A0077
:104A7000617F0098491C081AC0B201281CDDB96B7F
:104A8000AA8CA63201EB820179670221317014E011
:104A9000B86BA98C00EB8100B863617F0098081A9D
:104AA000E97FCA06C0B207D5B96BAA8CA63201EB62
:104AB000820179670221317090B395F81F80A97F38
:104AC000D9F80020E37E1A44C9F8002028F0010834
:104AD000DAF808205278530748BF28F002089207F6
:104AE00048BF28F00808012807D1207F3076C7F892
:104AF00074B028F0100886F800B001F0C0044046F9
:104B00008AF0CEF900F03F002043707586F81680D9
:104B1000002208F0FC012846BDE8F84FFFF78EB9E7
:104B2000BDE8F18F2DE9F041044604F15005002065
:104B30002E68708006F173086968487AFFF7E2FD15
:104B400025302076B07304F122072046FEF734FEAC
:104B5000207D88F815000020617D88F8161088F8FF
:104B600018000021C6F890103888401C388080B2A8
:104B700021F05EFE84F821006868417811F0030F8F
:104B800042D1007821F0B1FE00283DD000F1B00103
:104B90000878032806D1E27F930603D442F020026E
:104BA000E27731E001280ED1E07F40F02000E0778D
:104BB000607D40F018006075204621F037FE2046E9
:104BC00021F099FE20E008B10879E8B1E07F00F01B
:104BD000DF00E077A868002804BFE868002810D14B
:104BE0006868007D83280CD0617D03280A4607D0C1
:104BF000C80648BF01F0EF02100748BF02F0F702F5
:104C00006275204621F012FE617D002201F0FE0156
:104C10002046FFF713F90020708606F13E0094F855
:104C2000211001F03F010170B168628B01EB82013C
:104C3000B1630021018294F84520828369684A7833
:104C4000910709D5BA887A80A17F01F03F0141F030
:104C50008001A17701218183E07FC10608D5B06B77
:104C60007988A63100EB81007067022088F8000087
:104C7000BDE8F0812DE9F041DFF8648198F800008B
:104C800000218AF029FB040004F1500602D107F04C
:104C90005DF995E0207A08B9002144E0112021F067
:104CA0004BFE217B491C21733069407920B1C9B288
:104CB000814208BF432136D004F13E070020B8737B
:104CC0000B2501F003FE7168D1F80320D4F810E041
:104CD00022F07F4240F6C41303FB02EE90FBF5F591
:104CE0000B2202FB1500D6F800C080B24FF47A61A7
:104CF00048431EFA80F0CCF80800336898682061B9
:104D0000384831690268B1F8030000281FBF706E8F
:104D10000028A17B01290DD02169938801EB830133
:104D2000814207D33C212046FFF738FDBDE8F04122
:104D300021F070BD2C4D2878012809DDD06801686C
:104D400010680969006902F093FF08B1FEF792FF4D
:104D500070684178C8061BD5A17B01290CD10022BF
:104D60002272287810B120468AF0AEF91F480078E8
:104D7000022107F029FB0EE0306890F8631001F083
:104D8000E00141F0860180F863101949416602E0B4
:104D9000204621F0CFFD1749087888B138780228DD
:104DA00018BF03280CD1144F38680D308AF030FA40
:104DB00030B93868C11D062204F1300007F035F91A
:104DC00021F028FD4CB17068017E480605D54146AA
:104DD000BDE8F04103208AF08FBBBDE8F08100BF41
:104DE000D50F0020182900201C290020C70F002003
:104DF00000204E00880E0020680F0020F8B5504CAF
:104E00002168087B68B98AF0DBF92168096A0878AB
:104E1000002804BF8888002840F0818000210920F4
:104E20007BE0052021F088FD464D474E002068803C
:104E30008AF0FEFA00F6C410009020683278C1694A
:104E400002EB82028818C1888088814202BF3F49F4
:104E50000879012863D03E4F0099386A02F008FFB4
:104E600068B1786A18B1009902F002FF38B1009871
:104E7000A86021680868BDE8F24003F06BBF00201D
:104E8000FFF7FAFB2530A87340F6C4102168CB6900
:104E900093F802C03278BCF1050F46D182F00102CE
:104EA000327002EB8203D1F81CC09C449CF803E0F2
:104EB00097F805C06EF3410C87F805C0D1F81CE0E7
:104EC000D1F810C073449B8800FB03C3AB600B6137
:104ED00053002B743ABB6A74AA683578CB6905EB2A
:104EE00085055E19F38800FB03203862194A1078A3
:104EF00088B1887A022818BF03280CD1164D28687B
:104F00000D308AF085F930B928682368C11D062262
:104F1000181D07F08AF800210A208AF0EDFABDE892
:104F2000F14021F077BC2022D5E702EB82021A443F
:104F3000D1F810C0928800FB02C2AA600A61CBE7D8
:104F4000500F0020E80B0020D80F0020102900206F
:104F50008C0A0020880E0020680F002001780129AB
:104F600008D002290AD004290CD0082904D010291D
:104F700006D009E0FEF7B2BE21F0BFBC034870477F
:104F800021F0C6BC0248704740687047E80B00201B
:104F9000040C002010B50446A07A01F0F1F950B1DC
:104FA000617B8A0707D5017B41F001010173607BBA
:104FB00000F0FD006073616D087E020607D5607B1E
:104FC000C20704D4BDE8104001208AF095BA10BD94
:104FD00010B5010018BF012803D002281CBF062805
:104FE000002015494FF4C1520A8000234B80002253
:104FF0004A608A600A73CA7301234B7388730F4A2D
:105000000F4813880B82C26B0E4B52684A61C26B09
:1050100092688A61C26BD268CA61C26B12690A6205
:10502000C26B526910681C7804EB44042044B0F849
:1050300001204A8210BD00BFEC0A0020A00F002012
:105040005CF90800CA0F0020F8B58AB002A81C4914
:105050001C4D1D4C202288F04FFC0026CDE9006637
:105060001A482E68006856F8607F002302AA21467D
:10507000B847174AC2E900016188ADF80010BDF8D1
:1050800000000028F9D0B1F5A05F05D0002006F09F
:105090005DFF89208AF0C4F80E490F4BC8680F4C99
:1050A0004288187802432280C8680078810643BF8E
:1050B0000B480068400A00200A4908700BB0F0BD98
:1050C000F0F80800200F0020EC0A00201C0F002040
:1050D000600E00205CF90800C40F0020A00F002023
:1050E00080130050C90F0020F8B590B004460D465B
:1050F00008A82049202288F0FFFB0020ADF80A0014
:10510000039040F603079DF815109DF81400ADF8C4
:10511000087001F0F001002200F0600041F0010190
:1051200004928DF814008DF81510ADF81650ADF8F6
:1051300018208DF81A408DF81B200792CDE9002227
:105140000D4C0E482568006855F8606F002308AACA
:1051500002A9B0470A4AC2E90001BDF80A00B0F549
:10516000806F05D0002006F0F1FE88208AF058F804
:1051700011B0F0BD10F90800200F00201C0F002016
:10518000600E00201CB50F490F4CCA6B53691A689A
:1051900000EB40000244B2F8013063821022ADF807
:1051A00000200A4BCA6B52691168094A1C680844FE
:1051B0006946B0F80100ADF80200106854F8242FD9
:1051C000904713BD5CF90800EC0A0020200F002076
:1051D0001C0F002070B5044609208AF011F958B35D
:1051E000A0F1090594F89400002814BF0E200A20AD
:1051F00000212960E88005F1080629716971032002
:105200000E4906F8010B0A78082A0CBF08200E2068
:10521000307008220A49701C06F007FF94F89400C9
:1052200028B1334609220321204601F059FCA06E23
:1052300029468AF041F8012070BD00BFC80F002048
:10524000C10C0020F8B504461646FF2730000D4675
:105250001ED010490868804701460420231800F139
:10526000FF0293F87630FC2B08D1F3B22B44204494
:1052700013F8013C80F87630761E1746D0B200282D
:105280001CBFF2B2002AE9D1084603490A689047D8
:10529000F8B2F2BD90200020942000202DE9F041CA
:1052A000054614480E4601689046884701240027A9
:1052B000291991F87710FF2916D0002200E0521C1E
:1052C000D3B216F803C0BCF1FF0F0AD06145F6D186
:1052D0002A19FC2182F87710F9B2F35C08F8013042
:1052E0007F1C641C042CE3DB03490A689047F8B276
:1052F000BDE8F081902000209420002070B5044685
:1053000004F1380004F190060178184D41703078AE
:1053100001281DD120897288401C904218DB04F1BD
:105320006101204689F078FFD4F89C112046884717
:105330002A68A179505421F000FB30B1A079296886
:105340000A5C04F16101FCF799FE0220307006E06E
:10535000D4F89C11204688472A68A17950542868BF
:10536000A179425C206841688A7370BD442900209D
:1053700070B50446C0B200F0F9FF0546E0B200F097
:10538000FFFF064605F5CB700178012916BF0229FB
:105390004C1E8C1E0179022908BF0021687908B9CA
:1053A000FF2070BD307CC2070FD495F894300022E6
:1053B000E0B289F0C9FE716980B241F6583201F05D
:1053C000004102EBC00211437161002070BD00007A
:1053D000F8B58D488D4D01782A788A4200F0128107
:1053E0006A68002400E0641C8C4280F208814FF45B
:1053F000D0736343134418790028F4D1E0B200F06D
:10540000B5FF0121017100224271426200F1610188
:105410008471012200F168034A711A71012400228B
:105420001A609A6000F1900602814281047480F84B
:10543000392082610277C283327000F592749A76C5
:10544000227580271F739A730027FF22DF741A7654
:1054500000F20D131F70DF70BC46BE4600F5897761
:1054600083F801C083F802E0A7F800C0A7F802C0E3
:1054700087F805E000F1E70386F804C083F800C070
:1054800083F801C000F1EC03C3F800C0C3F804C006
:1054900083F80AE083F80CC083F808C083F80DC0D5
:1054A00083F80EC083F80FC0A7F808C0A7F80AC099
:1054B000A7F80CC0A7F80EC047F23057A76100F557
:1054C000C676C4F800C02273A4F80EC084F81CC0CD
:1054D00084F81DC0A2770127B7720227F77286F8F9
:1054E0000EE086F80CC04A4FDFF828E13F7877736A
:1054F00086F806C084F80AC084F804C084F805C0A1
:1055000084F806C084F807C084F808C084F809C08D
:1055100000F5B374404F84F800C086F800C04FF027
:105520001B0C3F88E7803D4F3F882781BEF8007005
:1055300067803B4F3F88A780A4F80AC04FF4A47748
:10554000E7812782A4F80CC0E7822783A4F812C061
:10555000A4F814C06783A783E78327846784A7849C
:10556000A6F802C00127377100240719641C042C17
:1055700087F87720F9DB2B4A14780C7057784F7036
:1055800094788C700446D778CF7012790A71002114
:10559000254A50186718407887F8FD00491C0829EB
:1055A000F7DB587C214900F0FB0058743161002082
:1055B0001874A07900F0E4FE0646A079FFF7D8FE43
:1055C0001B480178307C717300F0FC0030740022BD
:1055D000B069F28100F0004040F4853040F04000B6
:1055E000B061307F00F0F80030772878401C2870D8
:1055F000C0B2012804BFA079A8702046F2BD0020E7
:1056000006F0A4FC0020F2BDD40F0020780E00208C
:10561000C50F00208A0F00208C0F0020980F00205B
:10562000960F0020C8280020C00C00204DE5011076
:10563000641B002070B5254E04463068A2792C25E5
:1056400000F11C016A43885808B107F0BFFAA1793C
:10565000306869430144886A08B107F0B7FAA17954
:1056600032686943505C00281EBF194BD869002876
:1056700003D00023535421F0F8F8A379306815FBC8
:1056800003F52C220021284406F001FD1148007882
:10569000082818BF072803D1A179012221F0E8F8D2
:1056A00060790D4D40B100216171687808B906F04C
:1056B0004DFC6878411E69702878401E2870C0B281
:1056C00008B9FF20A8700021217170BDDC280020DE
:1056D000E0280020C80F0020780E002050B50D49AA
:1056E0000D4A49781268012904BF1478A0420ED0EF
:1056F000002300E023464C1EA34208DAD65C5C1C63
:10570000B042F7D18C4202D0501CC05C50BDFF208B
:1057100050BD00BF780E0020340F002038B504467D
:10572000C0B200F023FE0546E0B200F029FE697920
:1057300009B9FF2032BD017CC1F3400141B96A8E35
:10574000836940F6C4114A4303F000431A4382615F
:10575000002032BD80B5C0B200F008FE010003D0C9
:10576000CB895B08042B01DA002002BD0A2093FBE1
:10577000F0F00A2202FB1033012BACBF0122002201
:105780001018B1F8621182B28A4228BF002080B29C
:1057900002BD0000F8B589F04BFE054605F6C415BC
:1057A00000261E4F00E0761C3978F0B2884232D2D3
:1057B00000F0DCFD044660790028F4D018490A683E
:1057C000A07910702946204689F0C6FC206801782F
:1057D000402902BF04F182000178012902BF4188FB
:1057E0006289914205D1A169C0880918204600F05C
:1057F00065FAA079FF2121F099F8E089B4F86211E7
:105800004008884205D3207C18B9A079012121F0F5
:105810003BF8A079F2BDFF20F2BD00BFD40F0020FD
:10582000340F00202DE9F04705460E4692468028A9
:105830001EBF4028002006F089FB3C49487850B341
:105840003B480078002189F047FD040004BF002098
:1058500006F07CFB802D21D1616D4878C20604D50D
:10586000A27B012A18BF042A1FD000F01402042AC8
:105870001BD0C20606D5A07B20B9887C022818BFA1
:10588000032816D0487810F0140F04D1887C022821
:1058900018BF03280DD00020BDE8F087402DFAD1B5
:1058A000244801684A69107808B9012402E00128F7
:1058B000F1D100240027204DDFF88080DFF88090B0
:1058C0001BE08879504502BF0B783078834213D1B2
:1058D00048787278904202BF8878B27890420BD1B3
:1058E000C878F278904202BF08793279904202BFBC
:1058F00048797179884217D07F1C99F80010F8B266
:105900008842C8D200F032FD014648790028F3D021
:10591000002C01F59471D4D18A79D8F8000089F06F
:105920002BFC29788842E7D20120B5E7780E0020C9
:10593000D60F0020540F0020482900206C0F0020B3
:10594000D40F002003490A78022AA4BF002101676E
:10595000704700BF780E00202DE9FC41040004BF11
:10596000002006F0F3FA3249324E0868804780463C
:1059700094F8420107F06EF8A06E38B30BE0017A9C
:10598000032905D04079C10602D53078401C30701B
:10599000A06E89F079FDA06E89F05AFB0028EED147
:1059A000A06E89F05DFC00280CE0017A032905D087
:1059B0004179CA0602D53178491C3170076806F072
:1059C00041FF3800F1D1A06E89F05AFB1A481B4AFA
:1059D00001781170206F80B189F03AFB07463D468F
:1059E000A86818B106F02EFF0020A86028680546B8
:1059F000BD42F5D1206F89F043FB307860B1A279C8
:105A0000ADF80020ADF802000DF102026946012058
:105A100089F032FA002030702046FFF70BFE204656
:105A200002F09EFE06490A6840469047BDE8F381B1
:105A300090200020CD0F0020C60F0020D30F0020A3
:105A40009420002038B504000D4608BF06F07EFA09
:105A5000A079294689F02CFD2046FFF773FF2046E8
:105A6000FFF77AFFBDE8314020F0D4BE082800DB04
:105A7000704710B50A0008D04A1E114205D1034CE8
:105A80002044427822EA0101417010BDC00C002080
:105A900030B5114800210022431CCCB2491CCDB2C4
:105AA0001A55082DF9DBD0214172302278218272FB
:105AB000C17208221021027341730022FF218273F8
:105AC000C273027441708278C17842F0790241F069
:105AD000DE018270C17030BDC00C002070B505467B
