:020000040000FA
:100000004343323678325231E3972AC10301DFFF8E
:10001000FFFF0700FF000000383D0A00000100005C
:1000200030303031373D0A008D00FFFF03DFFFFF26
:10003000550000000135C7E663B0177D511DEC1077
:100040008B5E92E1398EFB49FCC856CB288680F640
:1000500018CC00B2BBFF766E881B118AC84190A2F3
:10006000587792D00AF8479ABA3AEFCABABF449181
:100070002C67AB0EB4E4E132813C60B9394B1AC352
:10008000C501DFFF00B73C0A0000000000FFFFFFD2
:10009000FFFFFFFFFFFFFFFFFFFFFFFFFFFFFFFF70
:1000A000FFFFFFFFFFFFFFFFFFFFFFFFFFFFFFFF60
:1000B000FFFFFFFFFFFFFFFFFFFFFFFFFFFFFFFF50
:1000C000FFFFFFFFFFFFFFFFFFFFFFFFFFFFFFFF40
:1000D000FFFFFFFFFFFFFFFFFFFFFFFFFFFFFFFF30
:1000E000FFFFFFFFFFFFFFFFFFFFFFFFFFFFFFFF20
:1000F000FFFFFFFFFFFFFFFFFFFFFFFFFFFFFFFF10
:10010000503F022095210200A5210200A7210200F4
:10011000AB210200A9210200AB210200AB210200A9
:10012000AB210200AB210200AB210200312302000F
:10013000AB210200AB210200C123020025240200F2
:10014000AB210200AB210200AB210200AB21020077
:10015000AB210200AB210200AB210200AB21020067
:10016000AB210200AB210200AB210200AB21020057
:10017000AB210200AB210200AB210200AB21020047
:10018000AB210200AB210200AB210200AB21020037
:10019000AB210200AB210200AB210200AB21020027
:1001A000AB210200AB210200AB210200AB21020017
:1001B000AB210200AB210200AB210200AB21020007
:1001C000AB210200AB210200AB210200AB210200F7
:1001D000AB210200AB210200FFFFFFFFFFFFFFFF8B
:1001E000F8B504461646F0070D461F4603D41D2EEB
:1001F00018BF1B2E09D1694620468FF035F9172804
:1002000011D0F00701D51E2E05D1694620468EF08B
:1002100037FF172807D0069800903B4632462946FC
:1002200020468FF0A9F8F2BDF8B50446104A206FB9
:1002300005685169B4F87A314978EA88C918891D86
:100240008A4213DA002606602F46B86820B1B868E3
:100250000CF082F8BE60FE803F68AF42F5D1206F9F
:1002600005602046BDE8F2408FF052B9F1BD00BFF5
:10027000A4FC08002DE9F04705F08EFE294D2A6800
:10028000116819B10267FFF7CFFF48E00024264E3E
:10029000264F4FF00C088146396808FB04FA514498
:1002A00000200871022238685044641C427172694F
:1002B0003868B9F87A31527800EB0A019A18921D21
:1002C000CA80631004EB93729310A4EB830208FBC3
:1002D00002F2104408607069B9F87A114078081881
:1002E000001D80B28FF0ECF9396801F1080242F884
:1002F0000A00386800F108015144086810B1086824
:10030000801E0860042CC7DB286839680160002063
:100310002A68506029683A688A602968C860286835
:10032000BDE8F087A00E0020A4FC0800A80E002065
:100330002DE9F04F85B00D460295044615F8011BD6
:10034000DFF858A48DF801100022DFF854148878E3
:100350008DF8002004F5A47605F028FE01902C21EC
:100360009DF80100DFF83C24032804F2191804F179
:10037000660B04F1F40904F5C77700F0C88007287C
:1003800000F0C8810F280CD0112800F039811828FE
:1003900000F08F811A2800F04A811B2800F0798133
:1003A000D8E199F80910880703D40F2188F80010C4
:1003B00059E02878697800EB01223280A878E97842
:1003C00000EB012272802879697900EB0122B2806A
:1003D000A879E97900EB0122F280287A3072697AF3
:1003E000A87A01EB00227281E87A297B00EB0122D6
:1003F000B281687BA97B00EB0122F281E87B297C3A
:1004000000EB01223282687CA97C00EB012272821F
:10041000E87C297D00EB0122B282687DA97D00EB9A
:100420000122DFF88403F28201788A0658BF1A2776
:1004300012D504F5AA70049071890391307A029064
:1004400021890191F0880090B38872883188204614
:100450008FF016F8C8B11E2799F80900410706D495
:100460000F2088F8000020468EF04AFF06E13A4649
:100470000F2120468FF070F8F0880090B3887288C2
:10048000A179384601F04AFEFFE004F18600718848
:1004900081800023B288C2800222F188018102702B
:1004A0004380A18EC91DABF81E10628E8188B1EB0E
:1004B000520F02BFC188A28E914202BF0089E18E15
:1004C000B0EB111F21D09BF81000012804BF9BF84E
:1004D00011000F280CD09BF8150000281CBF9BF8BA
:1004E00011001A2804D00F218BF81A10FE2183E086
:1004F000FC2120468EF07CFEF0880090B388728844
:100500003188A0798EF008FFBFE0102174E099F8DF
:100510000900C1070BD499F800101A20012989F8A5
:10052000010002D1FF220D213FE00D2164E00020F7
:100530008BF800008BF80600012289F80420294678
:10054000082204F1B0008EF077FF0146022204F188
:10055000B8008EF071FF04F1A80701460822384662
:100560008EF06AFF0646082138468EF0F1FE04F14F
:100570009C070422314638468EF05EFF042138463F
:100580008EF0E6FE04F1A0008EF016FF04F1980054
:100590008EF0AAFE8548018841F08001018099F81B
:1005A0000000012805D1FF22042120468EF0E0FD45
:1005B0006BE09BF811600F2E18BF142E07D00E2E83
:1005C00018BF0C2E03D01A2E18BF162E13D19BF86D
:1005D000107020468EF0C4FF042120468EF008FEE5
:1005E000012F06D11A2E8BF81A6014BFFD21FB21B2
:1005F00002E0314600E0042120468EF0F9FD44E09F
:10060000287830761A286B78737659D11068A779D4
:10061000431C4F430020D855A379126811FB03F106
:1006200011440871A179707E25F07FF82DE094F8CF
:1006300006C010682E7811FB0CFC604400F1210507
:1006400006F01F032878B60930B16878F040C0077B
:1006500002D5387A042805D120221A2120468EF0AE
:100660007BFF12E0EB701068A27911FB02F10144EC
:10067000204681F82360002125F053F828B99AF824
:1006800000004FF480410BF029FC01208DF80000A0
:1006900064E0A67913684E433344D88808B900262D
:1006A0005E701068A27911FB02F10144002008710C
:1006B000EBE728786978884204BF084010F0070FFC
:1006C00048D19BF81100162805D13A7AA179134632
:1006D000002001F0BDFC0220387101210198417712
:1006E0000123387A397BB870B28E8EF0CDFF318E0F
:1006F000814206D3B28E397BB87801238EF0C4FFD5
:100700000146B87A398040F04000B872012188F87B
:100710001F10BAE728780F2816D01A281AD1A07906
:1007200013684843184400234370A079126811FBF2
:1007300000F15018037199F80B0000F0FB0089F8E4
:100740000B001A20A1796FE799F8090000F0FD006D
:1007500089F80900204602998EF00AFF9BF81100E3
:100760001A2815D19BF8120017281CBF1028FC2846
:100770000ED19BF8106020468EF0F2FE012E03BFD2
:100780001A208BF81A00FB211A2120468EF030FD2A
:100790009DF8000005B0BDE8F08F00BFC70F002036
:1007A000780E0020742A0020200E00209C0F0020CC
:1007B0002DE9F8430F4628498046087820B1DFF834
:1007C0009C9099F8000008B1122040E0032FA8BFC8
:1007D00018203CDA002140468EF0E6FE040008BFF7
:1007E000342034D0002537B1022F08D00AD2A16DB1
:1007F000D1F8055006E0A06DD0F8055015B9E06DB0
:10080000D0F80550214628468EF032FC01001ED15A
:10081000207A002600B1012617B128460BF04CFFC4
:1008200076B1606D00788EF0EFFE90B90C48626D85
:100830000168107801EBC000017941F004010171F9
:100840000220084989F8000081F800800020BDE8F6
:10085000F2831E20FBE700BFA70F0020A60F002099
:10086000B00E0020640200202DE9F0410E4635490B
:10087000054608781746984608B912205FE000211F
:1008800028468EF091FE040008BF342057D0300077
:1008900002D0012E08D01BE0606D417801F01201FA
:1008A000022926D0A06D04E0606D4178880720D52C
:1008B000E06D03214170A0F803703100C0F805809D
:1008C00002D124F007FF01E024F006FF072801D140
:1008D000182034E068B91C4F3868011D11F8352024
:1008E000500711D5206E01210170206E24F0F6FE14
:1008F00008B11E2023E03868011D001D11F83520C5
:1009000002F0FB0200F83520396801EBC5000179DF
:10091000CA0704D5320008BF01F0FE0105D08A07DE
:1009200004D5012E02D101F0FD01017107490878BB
:1009300020B100220A70FF20054908700020BDE8A0
:10094000F08100BFA70F0020B00E0020A60F0020EE
:10095000640200201CB501240246032A084613D075
:10096000832A08D042F219018A4214D04FF6FF714F
:100970008A420CD014E0428900920389C28881889F
:10098000C07800F031F80CE08EF07EFC09E08EF0CB
:100990005BFD044605E0807818B18EF0ADFD00E007
:1009A0000024204616BD000038B505460F2D0C4624
:1009B00016DA4FF6FF72914212D0022806D13C207F
:1009C00014FB00F080B28EF08FFB04E00E2804BF11
:1009D000E0B201F063FA034820F81540002032BD70
:1009E000022032BDCC010020F8B504460D46164663
:1009F0001F460C200BF00AF9010010D00698D022F7
:100A00000A704881182306484C708B70CC708D801A
:100A1000CE800F81BDE8F44000780BF0BBB9F1BD8A
:100A20002D1C00201CB501240246032A08460ED0C6
:100A3000832A13D042F213018A4204D04FF6FF7189
:100A40008A4207D013E0807800F014F810E000F03C
:100A500019F80DE08EF0FCFD044609E04189009193
:100A60000389C2888188C078FFF7BEFF00E00024B8
:100A7000204616BD0C281CBF11281A2801D18EF063
:100A8000EBBC70477CB504460121E078134E1A2870
:100A90004FF6FF7506D1A0883288904205D18EF0BE
:100AA000DBFC0146E0781A2808D1A0883288904201
:100AB00018BFE07808D108000FD006E0302801BF49
:100AC000A28833889A42358039B135806189009196
:100AD0002389E288A1888EF09FFB73BD5802002015
:100AE0001CB5124C0346E07902280A4602D11BB914
:100AF000002016BD042817D0B3B11F2AA8BF1F229B
:100B0000694601208EF00CFD00B10078E179884241
:100B10000AD0012918BF032902D110F0030F03D115
:100B20000229E5D1C007E3D5012016BD200200202F
:100B30002DE9F041054624480E4601684A0203D4D7
:100B40002248C179042928D02968AA68086828B9E8
:100B50008B68936108460BF0AFFD1EE0D08A30B180
:100B60000BF09AFDA968886108B913202AE0A868EB
:100B70002C688769227942B1A16838460AF0DFFF04
:100B8000A0680BF099FD20790744D4F80080204636
:100B90000BF092FD5FEA0804ECD1A868017801F03F
:100BA0009F010170A86801780E430670A86802785A
:100BB000110706D4C18A8069FFF792FF08B9352072
:100BC00000E00020BDE8F08110020020200200209B
:100BD00070B5002408380528264D4AD8DFE800F013
:100BE0000F150306090C4FF4001039E04FF4801084
:100BF00036E04FF4002033E04FF4802030E02868E6
:100C0000C10336D54FF480302AE01B4C206880B3F6
:100C10001A49086808B18EF013FC02208EF0B4FC6B
:100C20002068174E0BF048FD30680BF045FD0020A2
:100C3000206030602A6890031BD5124908780BF0B9
:100C40002BFD040008D01049104B0A7822704FF495
:100C50000030597A617003E08EF086FA4FF0004060
:100C60000B490B682BB10B490A682146BDE870405F
:100C7000184770BD10020020D40E0020D00E0020B6
:100C8000D80E00206C020020AD0F002020020020B2
:100C9000E40E0020E00E002010B50246012410787A
:100CA000912804D0A2281CD0D02821D030E051783F
:100CB00005290AD00E2904D00F290AD03E290CD0CC
:100CC00026E0104600F0D0F810E010468EF0A8FBA9
:100CD0001FE0104600F012F908E0104600F01CF882
:100CE00004E050884FF6FF718EF032FA044610E0AF
:100CF0009078122802D0132805D00AE05178506865
:100D00008EF07EFB05E05168D0788EF061FA00E04D
:100D10000024204610BD000038B5044686B0A078F7
:100D200001250146012918D003292CD0062939D0E4
:100D30000A2912D00E291CBF0F29102900F0898022
:100D4000152918BF162979D017297DD0812975D08A
:100D5000832918D0842974D080E021468EF088FA47
:100D60006846214616228CF0BDFEBDF804008EF0C8
:100D70008FFA040073D000208EF0D6FA0146608806
:100D800001F08AFA6BE0A08822468EF0E1F9054670
:100D9000E078002863D123896289E188A0888EF0F9
:100DA0007FFC5CE0A088012240218EF07DFB0020CA
:100DB0008EF03AFBC0B2022821D110200AF026FFA3
:100DC000B8B1D02101701121E27842708170A288FF
:100DD0008280E188C180228902816189418100216C
:100DE000A2898173828101461E4800780AF0D2FFF1
:100DF00035E0A088002240218EF056FB2FE0A1882C
:100E0000ADF80010012803D10021ADF80A1011E05F
:100E100080B9E088ADF8020000212089ADF8040017
:100E20006089ADF80600A089ADF808008DF80A10B9
:100E30008DF80B5068468EF033F910E022461821E9
:100E400004E022461C2101E02246062124F066FC33
:100E500002E0204624F09CFC054600E000252846E0
:100E600007B030BD2D1C002010B58388012442F24C
:100E70000202991A1CD0891F012937D9891F1BD05A
:100E8000193902291DD9891F1BD01139022921D9ED
:100E9000C91F052921D90C39062921D9C91F14D008
:100EA000491E1AD04DF61E42891A01291ED921E089
:100EB00080688EF0A5FB1BE08EF06AF98EF09CF93D
:100EC00019E081680878B0B114E08268052142F227
:100ED000580008E024F04EFC0AE024F055FC07E03E
:100EE00082680321184624F019FC01E024F053FC29
:100EF000044600E00024204610BD000070B5838841
:100F0000012142F213041A1B04D0921F12D02B3A73
:100F10001BD01EE0104D2E884FF6FF72964209D06E
:100F20000E4B1A68002A1CBF1268002A12D0014614
:100F3000204608E00A4A1268002A1CBF1268002AEC
:100F400008D001461846904701E024F01FFC0146F6
:100F500000E00021084670BD58020020C40E0020A9
:100F6000C00E0020F8B50C461546002620B1012819
:100F700010D0042814D01DE0162C19DA0F4F1622B9
:100F8000002138460AF00DFE2246294638460AF06E
:100F9000D6FD10E0022C0BD12888094908800AE010
:100FA000082C05D10748294608228CF09BFD02E059
:100FB000182600E002263046F2BD00BFDC280020E3
:100FC000F4280020541A002080B50021C00706D55F
:100FD000044B054810220B2100F0DEFA01460846BA
:100FE00002BD00BF18FC0800601A00202DE9F8437C
:100FF0000D4600272878022814461E4663D16868EB
:101000000178DDF82080407801EB00205FEA0802DB
:1010100080B204D0B0F5285F0ED00B2056E04FF41C
:101020002851401A08D0401E24D0C01E2AD0A23811
:1010300043D0233841D046E0DDF82490E8680AF038
:101040007CFD80B2A0EB08024A45BCBFA0EB0800C3
:101050001FFA80F909EB0800162809DAA6F80090B3
:101060004A46E86800EB080120460AF068FD2CE0DB
:101070000D272AE0E8680088022131802070000AEC
:10108000607022E0E868B0B10821318002882270E7
:1010900003881B0A63704188A1704288120AE270BB
:1010A000818821718288120A6271C188A171C08809
:1010B000000AE07109E0308007E001213180E86832
:1010C0000278227001E0378001273846BDE8F283BC
:1010D0002DE9F0470F4681463878002602289046D1
:1010E0001D4652D17868089C01784078DFF8A4A0AA
:1010F00001EB002292B24FF42853D21A06D0521EAE
:1011000027D0A53A3FD0233A3DD03EE0F8680AF018
:1011100014FD80B2A0421AD3611916291CDAFB68AB
:101120002A46414618190AF00AFD2D19F868ADB291
:10113000C5F11602002140190AF033FDDAF800006B
:1011400000281CBF0268002A20D0002118E00726D2
:101150001CE01CB9022D03D00D2617E00B2615E06C
:1011600098F8000098F8011000EB0122F86802805E
:10117000DAF8000000281CBF0268002A06D001210E
:101180004846904702E0032600E001263046BDE8CD
:10119000F08700BFD82800202DE9F843092986B040
:1011A000064617463FD196F8242039887888521C85
:1011B000491E86F824204143786889B2425C08447D
:1011C0004178307B02EB01240128A4B239D139885F
:1011D0007888002548431FFA80F93D80A846C84515
:1011E0002FDA7888D7F804C0B17C431FC4449BB27F
:1011F0000CF1050206F113008EF062F870B1A845FB
:1012000006D078687A8800EB080140190AF097FC4C
:10121000788839884519491CADB2398078884044AE
:101220005FFA80F8DBE738790A2818BF062802D170
:1012300096F8240090BB96F82400401C86F8240001
:101240007C884FF6FF70844218BF002C26D0308A6D
:10125000844223DA307B641C0128F48112D1ADF87A
:1012600000400222318AADF802108DF804200321DB
:1012700028228DF805108DF80620694630888DF0FB
:1012800023FF04E0308806F10E018DF01DFF307A57
:1012900047F230510BF01AF9162000E0002007B099
:1012A000BDE8F08370B50D460446287A410716461E
:1012B00004D530468EF07CF8012205E0410609D5C0
:1012C00030468EF075F8002201462046BDE8704099
:1012D00001F048B8C10617D530468EF069F80146CE
:1012E0000122204601F03EF860B930468DF0DCFE68
:1012F000030005D029462046BDE870400A22184761
:101300000E2070BD082070BDC00701D4022070BD42
:10131000002070BDF8B50E460546307A81061746A6
:101320001C461DD538468EF043F80146012228465A
:1013300001F018F830B1607A10B1207A012801D09C
:101340000820F2BD38468DF0AFFE030006D03146CE
:10135000284601B0BDE8F040122218470E20F2BD29
:10136000010609D538468EF023F801462846BDE827
:10137000F840002200F0F6BF01070FD538468EF086
:1013800017F801460122284600F0ECFF010009D0C1
:10139000617A41B1217A012904D0F2BD800701D4DC
:1013A0000320F2BD0020F2BD1CB504460846694684
:1013B00000888DF051FF010001D1012016BDBDF85C
:1013C00000202046FFF76EFF16BD7CB506460D4691
:1013D000002409E0BDF8002001463046FFF762FF17
:1013E00001001DD1641CA4B2A888844222DA2868B6
:1013F00010F81420401C694610F8143002EB032248
:1014000090B28DF029FF0028E4D1286810F814105C
:1014100001702868421C12F814104170012076BD3A
:10142000296811F814200A7029684B1C13F814203D
:101430004A7076BD002076BD38B504460D46694633
:1014400028888DF009FF08B9012032BDBDF80020C1
:1014500001462B462046FFF75DFF32BD7CB50446B2
:101460000D468DF0ADFF06000AD101A8214600907F
:10147000ADF804507F23034C207800228DF000FF4C
:10148000304676BD7202002001490870704700BFE7
:10149000730200202DE9F0411F4C204F204D214EBA
:1014A0002070214801703A702878C0000BF0F4F8E1
:1014B000306070B338784FF6FF7878B928788000BC
:1014C0000BF0EAF81949086020B93068BDE8F0412E
:1014D0000BF0F2B80146404623F070FD3168002061
:1014E00006E021F8308001EBC00300225A60401C66
:1014F0002A789042F5DB05208DF0EEFF20788DF004
:1015000017FE0B488DF020FF2078BDE8F0418DF0EC
:101510007FBFBDE8F08100BFB40F0020101B00208A
:10152000C10F0020000F0020F728002018290020FC
:101530005D1D000038B50D46290427D5144A1078E2
:101540000AF044FC04001ED02078A2280BD0B0285A
:1015500016D120468DF07CFF90B1217904F108006E
:101560008EF02AF80CE06079652808BF8DF008FF3E
:1015700008480078FF2803D021460AF00BFC10B180
:1015800020460AF055FB85F4004032BD002032BDF4
:10159000B40F0020760200203EB504001D460FD097
:1015A000ADF800108DF80220019468468DF0BCFD66
:1015B000010006D12DB1608929468EF039F83EBD73
:1015C00002203EBD80B50021C2070ED5084908782B
:1015D00020B9084B08481022042103E00023102200
:1015E00001210648FFF7D8FF0146084602BD00BFAB
:1015F000101B00202CFC0800141B0020541B002092
:1016000038B504460D4D8EF06BF828802946608869
:101610008DF09AFF38B120892988884228BF084672
:101620002880162032BD21892888814228BF0146A2
:101630006088FFF713FF002032BD00BF380C002088
:101640002DE9F44F054686B068888B468DF024FE60
:101650004549841E0878A4B288B144498D4204D01B
:101660002022294641480AF06AFA414E0594414F2A
:10167000DFF8F480DFF80091DFF800A117E005F152
:101680000806F3E7BBF1000F49D16389BAF80020DF
:10169000D9F8001068888EF007F8002883463ED1FC
:1016A00030884FF6FF71884239D0401C3080059851
:1016B0003989801E884232DBBBF1000F2FD104A88C
:1016C0000090337971883088721D8DF015FE04000A
:1016D00025D0608930802146BDF810206888FFF74A
:1016E000E1FD8346D8B928790599D9F800300390EF
:1016F0008A1E92B2002002920190CDF800A0BDF89F
:1017000010206888214600F0A7F9834698F8000069
:101710000028B7D0BBF1160FB4D1002021E03989E1
:101720005846C1B17A8891FBF2F1398098F80000EF
:1017300050B10E4C217904F108008DF03DFF2022BC
:10174000002120460AF02DFA688839468DF094FE73
:1017500038B1162005E032880100069908BF0A203A
:101760000A8007B0BDE8F08FF7280020F828002095
:1017700000290020380C0020080F0020840F0020D2
:101780002DE9F84F074686B07888574DDFF85CB1F1
:1017900088468DF081FD064604A800903B7B798940
:1017A000388907F10D028DF0A7FD002482460596C9
:1017B00049E06968FF208855A3B26868FF22C254D7
:1017C00034E0A0B2002877D1788800234FF6FF726A
:1017D00011218DF0C1FD0028686067D0BBF80000C2
:1017E000001D6880641C6968BAF80A008855A2B2B6
:1017F000BAF80A006968000A8854BDF8102079898F
:101800000DF1120350468DF08BFD661C8246741C50
:10181000BAF1000FB6B2CCD06968BDF81200885595
:10182000A2B2BDF812006968000A8854641C3048EE
:101830006B680168BBF80020A6B298190AF07FF91E
:10184000BBF800000419BAF1000FA6B222D0BDF80F
:10185000102078885146FFF725FD8146A0B93879D8
:101860000599234B1B6803908A1F92B200200292B5
:101870000190CDF800B0BDF810207888514600F0F6
:10188000EBF8002881469CD0BAF80A10A8F800109E
:10189000484600E00020A4B2CCB901003989A8F87C
:1018A000001008BF0A2007B0BDE8F08FBAF80A00A0
:1018B000A8F800001120F6E7BBF800006988021DB7
:1018C000914204D10599891F801981428ADA68887A
:1018D00096FBF0F02880294678888DF059FE002884
:1018E00018BF1620DFE700BF380C0020840F00204F
:1018F000080F00203EB54D681821144601916A88F2
:101900000092AB88AA682988408800F0A7F91628B9
:1019100002D10021A9603EBD01001CBF29882180A1
:101920003EBD00002DE9FC4105460E4690460020D4
:1019300000270DE0019060880090A388A268688865
:1019400000F08CF9162817D10021A1607F1CFFB28E
:101950000D490A78974214DA71680C2313FB07F3D8
:101960000B441C46218861B1781C90421BBF9889AA
:10197000002818201620DDE70028E7D02188A8F8E5
:101980000010BDE8F68100BFB50F002070B5054618
:101990000C468DF065FE010006D14FF6FF708DF00C
:1019A0005FFE010017D00D80002200E0521C0B4B9F
:1019B0001D78D0B2A8420ED24B68D6B20C256E4329
:1019C000334418880028F1D10C22214618460AF029
:1019D000B6F8002070BD092070BD00BFB50F002013
:1019E000F8B5054600260F4C0BE0B86808B10AF0C0
:1019F000B3FC0C22002138460AF0D3F800203880CE
:101A0000761C2178F0B2884207D26A68F3B20C21C2
:101A10004B43D71838880028E7D14FF6FF7129804B
:101A2000F1BD00BFB50F00207CB50C78022C11D1A0
:101A30004C682578647805EB042642F60215B6B2A8
:101A4000AE4207D1BDF8185000950224019423F04E
:101A50005EFB76BD012076BD2DE9FE4F0D46824628
:101A6000287AC10693461E464FF000090CD5584609
:101A70008DF01AFB030000F0EA800A222946504646
:101A800098475FEA00094DD128780C9F0D9CDDF83E
:101A9000388002281AD168680178407801EB00226A
:101AA00092B24FF42053D21A012A10D9921E3AD082
:101AB000521E14D0FD3A7BD0521E00F08280521E7E
:101AC0006ED0521E74D0521E00F09680ACE0002CF6
:101AD0002AD1E868017839800278416888E0002CD2
:101AE00022D101203880E9680A78327000216889A3
:101AF000401C80B28DF0B0FB398860B10278921C36
:101B000051183980418971704289120AB270416856
:101B10000278F01C6DE0091D398004220021701C40
:101B20000AF03FF895E0002C67D1E86804880421AA
:101B300039803470220A72700DF1020120468DF056
:101B40008BFB5FEA000821D0D8F80C40BDF80220DA
:101B50004FF6FF756B4629468DF0E2FB50B998F8B9
:101B60000030D8F804203C4802218DF0A9FB08B9C8
:101B7000ADF80050207802280AD161680222301D99
:101B800009F0DDFF3888801C388001E0ADF80040A6
:101B9000BDF80000B070BDF80010090AF17058E0FF
:101BA000002C2AD1E8680168504623F099FA02E037
:101BB0001CBBE8680088022139803070000A707010
:101BC00047E0E86809F0B9FF82B2A242B8BF4FF01F
:101BD00007093EDB944208BF002205D008EB040150
:101BE0009142B4BF4246121B3A8092B2E868011992
:101BF000304609F0A4FF2CE014B14FF00B0928E0A7
:101C0000E868072139800278327043787370418820
:101C1000B1704288120AF27001793171C288727112
:101C2000C088000AB07114E058468DF049FA5FEAA6
:101C300000090CD09DF83C000290CDF8048000947F
:101C40003B46324629465046C847814601E04FF0A0
:101C50000E094846BDE8FE8F655A09002DE9FE438E
:101C60008146884617461E4602A940468DF0F4FA82
:101C700004002CD0BDF808008DF046FA844620B34D
:101C8000BDF828100B9D0091334601953A46214638
:101C90004846E0470646D8B9FE2D19D020780228DC
:101CA00016D160680178407801EB002242F60211FB
:101CB00092B28A420CD13878797800EB012292B244
:101CC0004146484600F096F802E00E2600E0012664
:101CD0003046BDE8FE831FB58DF80820FE23120AAA
:101CE0008DF80920019300240094022302AAFFF733
:101CF000B5FF04B010BD000038B5084A0D461168A4
:101D0000044623F0EDF9800705D529462046BDE8B5
:101D100034408DF059BC012032BD00BF182900208D
:101D20007CB505464FF6FF7601AC009402230A4AC3
:101D3000314601208DF0E0FA0BE0E06801682846AA
:101D400023F03CF9BDF804200023314620468DF0F5
:101D5000E7FA0400F1D173BD555A090038B50129DD
:101D6000044606D002293CD101218DF00DFA00284D
:101D700037D120468DF074FC08B1FFF731FE2046C4
:101D8000FFF7CEFF1749087898B1174D6888A04231
:101D90000FD129791548491CC9B28DF00DFC29795C
:101DA00005F108008DF008FC20220021284609F0EA
:101DB000F8FE0F4D28460AF053FC10E0208958B178
:101DC000214628460AF05BFCA17A04F10C008DF054
:101DD000F3FB20460AF070FC20460AF043FC0400A6
:101DE000ECD131BDF7280020F8280020380C002065
:101DF000180E0020F8B50D4C0E462178FF29054637
:101E0000174611D00A2009F001FF68B1B121017015
:101E10000022427002714580C68007810146207809
:101E2000BDE8F44009F0B6BFF1BD00BF7302002069
:101E300038B51C460A4B1D78012D01D13A2032BD20
:101E4000130018BF002C02D010F47F4F01D01220D5
:101E500032BD0B46214601B0BDE8304000F05ABF0C
:101E6000B60F00200B4980B509888DF801100020BD
:101E70008DF80000090A8DF802106A4606480178BC
:101E80008DF8031042F2020004218DF08DFA00203B
:101E900002BD00BF382A0020C60F002080B501F027
:101EA00001FA8DF800006A4601214FF674408DF06A
:101EB0007BFA002002BD70B54A1ED2B2002305E0B5
:101EC000D51AC45C465DC65444555B1CB3EB510F38
:101ED000F6DB70BD2DE9F843054624480E4601782F
:101EE00001291746984608D121480188491E0180DA
:101EF00089B211B901208DF097FBDFF8789099F83D
:101F00000000FF2478B10C2009F080FE48B3902136
:101F100001700222447045800271C78086600146CC
:101F200099F8000019E0082009F070FEC8B10121FD
:101F300001704470711F416002220A7041684D7047
:101F40002D0A416845EA08158D704268D7703F0A2E
:101F500041680F71014608480078BDE8F44309F074
:101F600019BF3046BDE8F2430AF0F6B9B70F0020BA
:101F7000860F00201F2900201C290020F1B5234FC7
:101F80000D4639781646A9B10C2009F03FFE040031
:101F90003AD0912020703E2182226170A2700522E9
:101FA000BDF80000A080A6712946E01D09F0C7FD1C
:101FB000387826E0142009F029FE040024D00120FE
:101FC0002070FF2104F1080261706260042010702B
:101FD0003E226068427009216068817082216068D9
:101FE000C170022260686946001D09F0A8FD6068A2
:101FF0008671052260682946C01D09F0A0FD0448CD
:102000000078214609F0C6FEF1BD00BF1E29002060
:102010001C290020F8B50D4F044638780D461646A9
:1020200070B1062009F0F2FD01000ED0902008707A
:102030004C704D808E803878BDE8F44009F0AABE1F
:102040002046BDE8F2408DF0FFBAF1BD1F29002007
:102050002DE9F04104462D480D46C1798806164603
:102060001F4650D52A49487801074CD5200004D096
:1020700057EA060004BF01260127DFF8988098F888
:102080000010C1B1082009F0C1FD00283BD091210A
:1020900001703E220C23042E08BF0326042F08BF24
:1020A000032742708370C47085808671C7710146B2
:1020B00098F8000023E0112009F0A8FD18B30121D1
:1020C0000170FF22427000F10801416004220A7091
:1020D0003E234B7006228A704D710C22CA702D0A65
:1020E0000C718D71CA1D511C042E08BF0326042FCC
:1020F000167008BF03270F70014607480078BDE837
:10210000F04109F047BEBDE8F08100BF280E002075
:10211000200E00201E2900201C2900202DE9F0415E
:10212000044611480D4601781646CA07984619D547
:102130000E4F3978B1B10C2009F068FD90B10699C5
:10214000912202703E234370832282704181C470C9
:102150008580C680A0F8088001463878BDE8F04147
:1021600009F018BEBDE8F081212900201E290020B9
:1021700080B50B490B4A087000200B49107008709D
:102180000A4A0B49107008708DF00AF909490A4B88
:102190007F2088700022094802701A7001BD00BFBC
:1021A0001C2900201D2900201E2900201F29002095
:1021B00020290020200E002021290020B60F002019
:1021C00038B50D46290414D50B4A107809F0FEFDE8
:1021D00004000CD02078032808BFE06802D0012852
:1021E00002D160680AF0B8F8204609F021FD85F4B4
:1021F0000045284632BD00BF1C2900200149087057
:10220000704700BF1E29002001490870704700BFB9
:102210001F29002001490870704700BF20290020B5
:1022200070B504462078902830D16078132816D1F4
:102230000021174A06E0A368CDB233F815603018C4
:102240001070491CA5781078CBB2AB42F3D3E8B13B
:10225000BDE870400F4A1078012109F03FBE8A287E
:1022600018BF8B280DD1A18860888CF095FF62780B
:1022700005218B2A08BF042140B1BDE870408DF0D4
:102280000BBA2046BDE870408DF0A6B870BD00BF07
:10229000BB0F0020B90F0020F8B50C4F0546386879
:1022A0000E46062440B90A49087810FB04F080B2B3
:1022B0000AF0F2F9386040B1386865433146284485
:1022C000BDE8F840062209F03ABCF1BD24290020FF
:1022D000C10F00200449096809B90020704706228F
:1022E00050430844704700BF2429002078B587B0C8
:1022F0000F9C250013D0BDF8485006950394BDF8F7
:1023000040509DF8384004950294BDF844600D9DFE
:102310000C9C0596019500948CF016FF00E031208E
:1023200008B070BDF8B5002500260C4C11E00C4833
:102330000168342212FB06F288180379DF0706D5FC
:1023400006220021801D09F0D2FF00B96D1C761C09
:10235000F6B220788642EADBE8B2F2BDC10F002077
:10236000180F002070B506460C4615468CF090FFFD
:1023700028B94FF6FE70864219D0142070BDC16A8C
:1023800099B10279D00601D40F2070BD09480078B8
:1023900000B11024930700D43DB9897EA14201D237
:1023A0000C2070BD18B1900601D4052070BD00202E
:1023B00070BD00BFC20F002082492DE9F043824C5E
:1023C000824E20700A22002008600D23804840F2CF
:1023D000262102704380818085B07E480660B77EEA
:1023E0007D480770FF2FF17E417008BFFF29327FC3
:1023F0008270737FC370B57F0571F67F467114D10B
:10240000FF2A08BFFF2B10D1FF2D08BFFF2E0CD1D4
:1024100072490A7802704B7843708A788270CB7860
:10242000C3700A790271497941716D4902786D4D25
:102430006D4E6E4F0A7043784B7082788A70C37805
:10244000CB7002790A714079694A4871FF2028707F
:102450006870A870E870287168710020654908806C
:10246000F06B6549407808706449F06B007808703B
:102470001388634863490380F06BC06C086062494D
:10248000F06B90F83C0008706049F06B90F83D00EC
:1024900008705F49F06B90F860000870F06B40695D
:1024A00001795C484A1E0270F06B5B49C078387055
:1024B000F06B8069086008B909F0D2FAF06B5749EF
:1024C000C069086008B909F0CBFAF06B416D544857
:1024D0000C2209F034FB8CF0EFFEF06B5149006ADE
:1024E000086008B909F0BCFAF06BDFF83C81406A7B
:1024F000C8F8000008B909F0B3FAF06B4B49806ADC
:10250000086008B909F0ACFAF06BC06D00B10120A9
:1025100023F020F903F052FD07280AD103F09AFEB8
:1025200020784FF4804109F0D9FC002009F098FA96
:1025300044E03F480168884781468AF08FFDD8F81B
:10254000000001688847684681F026FFD8F800201F
:1025500004208DF80000694652F8043F0020984797
:102560003449086004F048F8F068334A0188387844
:10257000324B014311804846196888470C21304886
:1025800003F0C5FF28468CF0BBFD8DF055F82D48B3
:1025900000214FF6FF72016082808171F06B90F82C
:1025A00058102948006803F0FDFA0121FF2023F0AC
:1025B000C1F820784FF4005109F090FC05B0BDE857
:1025C000F08300BF380F0020C70F0020B64F005027
:1025D000700E00203C0F0020400E0020E81200503A
:1025E000500E0020480E0020A4FC0800C40F00205C
:1025F000D01B00209E0F0020C60F0020D40F00200B
:10260000382A0020582A0020E02A0020E12A002051
:10261000512A0020CB0F0020200F0020240F002083
:102620003C2A0020280F00202C0F0020300F002013
:102630006C2200204C2A0020A00F002070220020D5
:10264000FC0D0020800E0020EC2A0020704770470F
:102650002DE9F04F0F46380589B018D5DFF8E4535F
:102660002888FF280ED0C0B203F096FC040009D0E1
:10267000A07916218CF0D4FD204603F07BF820468B
:102680008CF0FAFDFF20288087F40060D6E1F80581
:1026900004D523F076F887F48070CFE1B80604D52E
:1026A00023F034F887F02000C8E1F8070CD505F0D6
:1026B00065FE30B100218160DFF88C03006800B155
:1026C000804787F00100B9E1380704D523F020F8EE
:1026D00087F00800B2E1F8060FD5002100220023A0
:1026E00006910592049103930291019200910220B8
:1026F0008CF066FF87F01000A0E1B8070FD500212D
:102700000023069105910491039302910191009198
:1027100001223C208CF054FF87F002008EE1790703
:102720004FF01E08C94EDFF828A340F1CD80C948FC
:10273000002200210892079100788CF035FF0446B2
:10274000C5488178FF2904BF002009F089F9A07AE3
:1027500003F022FC05469AF8000095F82E91002817
:1027600005F5947B69D0606D807A022818BF032834
:1027700007D130680D308CF09BFE10B93068C11D58
:102780000791594648468CF0E3FEA0B3606D807C0B
:102790003368002818BF012804D1194658468CF028
:1027A000DFFD04E05A46494618468CF00DFDFF282F
:1027B00043D018FB00F83068404406225946C01D3B
:1027C00009F0BDF9306810F80810404400F1010B21
:1027D000C01D41F0020908900622616DC87A00F020
:1027E000010085F82E01606D00F10C0105F5947073
:1027F00009F0A5F921E0594648468CF079FCE0B192
:1028000030685A4649468CF0DFFCFF2815D018FB8B
:1028100000F8306840440D308CF04AFE58B93068FA
:1028200040440D308CF044FE002801BF3068404425
:10283000417F012901D149F0020905F12C004B46E5
:10284000017806914289120905920122698C04914E
:10285000C0880899029140080390CDF800B007980D
:1028600001900020A9798CF0ABFED5F89C017B4942
:102870008842A8790CBF002101218CF0F5FE784830
:10288000AB7902682C214B43134401221A73AB79B4
:1028900004684B4323445A73AB7904684B43234485
:1028A0009A73AB7904684B432344DA73AB790068BD
:1028B00011FB03F10144002008740720A97922F0DC
:1028C00035FF87F00400B9E038060FD5002100235A
:1028D00006910591049103930291019100910122C7
:1028E0003B208CF06DFE87F08000A7E0F8045DD5FA
:1028F0005C4930680C680D308CF0DAFD002844D15A
:102900003068C11D0D308CF0A3FC3EE0606D417855
:10291000480704F13E0526D5287802281EBF032863
:102920006878012830D16978306804F138028CF079
:102930004BFC8146B9F1FF0F15D0306818FB09F93F
:1029400048440D308CF0B4FD68B930684844C11D6E
:102950000D308CF07DFC30684844C11D062204F126
:10296000380009F0ECF82878022818BF03280BD1AA
:1029700030680D308CF09CFD30B93068C11D0622E6
:1029800004F1300009F0DBF82468002CBED1364891
:10299000DAF8042000784FF4805109F065FF10B197
:1029A0008E208CF051FE87F4805047E0B80505D5A5
:1029B00088F07EFE2D4901200860FEE7780504D5E9
:1029C00009F0BAF887F4806038E0780405D58120F2
:1029D0008CF03AFE87F4804030E0B9042DD5244CC9
:1029E000206810B1002009F03BF84FF0FF30206064
:1029F0000020204C02F044FA216851F8202F68464C
:102A000090471D494A6B086BC96A24681B4B0192A9
:102A100000900293ADF810106B46194A19491A48F4
:102A200003921A4A07922568194AA847194908606B
:102A300000F032F887F4005000E0002009B0BDE853
:102A4000F08F00BF661B0020480F0020680F002099
:102A5000880E0020D70F0020780E00204DE50110D1
:102A6000742A00204C0F0020C70F00207C05204353
:102A7000380F0020200F00206C1B0020056800008C
:102A80001568000028290020382900201EFB00803E
:102A9000EC0A00201C0F0020F8B5564C564B256858
:102AA000186855F8183F00224FF0FF31984705F09D
:102AB000F5FE5249524AC86B40694179514811703C
:102AC000002301680B8000244B800C710068437167
:102AD000002002F0D5F902F00FFA4B4800688CF0A4
:102AE000F3FD8CF07DFB4948006800B10473484851
:102AF000006800B1C4720026464C474D12E0606881
:102B0000F1B24FF4D072514342185379012B08D1DE
:102B1000F0B203F041FA074602F02CFE38468CF082
:102B2000ABFB761C2978F0B28842E8D38CF0ACFC81
:102B30003A483B4A0178117004F0B2FE22F007FED9
:102B40003848394A8078C1074CBF07210521FF2446
:102B500000074CBFFF20FB200140344801700021DA
:102B6000334811700023334A037001213248117039
:102B70000370324A324811700370324A3248334986
:102B800013700370324A334813801B2303804FF4C1
:102B9000A470314A314B088010804FF42960304ACC
:102BA0001880FB212F4B1180198044F290202E4970
:102BB0002E4A088010808CF0C3FC8CF0D1FA22F0F1
:102BC000D8FD22F0E7FD22F0AEFD2949294A002078
:102BD00008701F212848047044708470C47001710B
:102BE0002648047044708470C470017125201070F0
:102BF0000020F2BD200F00201C0F0020A4FC0800C4
:102C0000CA0F0020400F00206C0F0020500F002042
:102C1000540F0020780E0020D40F0020C60F002093
:102C2000D30F0020C00C0020CC0F0020C50F0020C7
:102C3000CD0F0020CE0F0020CF0F0020D00F00209E
:102C4000D10F0020D20F00205C2A00208C0F002022
:102C50009C0F00208A0F00208E0F0020900F002074
:102C6000920F0020960F0020940F0020980F002054
:102C7000C80F0020702A0020602A0020682A002047
:102C800010B5040004BF002008F0EAFE1C490878D3
:102C9000052815D11B480168887A012818BF032828
:102CA0002BD019482178017062784270A178817028
:102CB000E278C2702179017162794271002010BD01
:102CC000062807D111480168887A012815D0032801
:102CD000E7D112E01128E4D10D4800680028E0D0C7
:102CE000017A0129F9D1416D4A78D106F5D590F8DC
:102CF0003E10012918BF0329EFD10C2010BD00BFE1
:102D0000C80F0020500F0020480E0020540F002054
:102D10004C0F00202DE9FC410C0005461646984654
:102D200005D05FEA080018BFB8F1010F01D01220EA
:102D300045E024480188914204D28A208CF084FC2A
:102D400030203CE028468CF0F3FA010037D1E8B29D
:102D500003F022F91C4F0546387820B901208CF089
:102D60008FFC07202BE01948016888473A781849FA
:102D7000531E3B70D1F800C0E047B5F88E01B04259
:102D80000AD23246214628468CF0D6FA010016D1E6
:102D9000204609F0E1FA07E0102000904346F2B225
:102DA000214628468CF030FB05F0E8FA29680078C7
:102DB0000A78824204BF28468CF0AAFA0020BDE8B7
:102DC000F68100BF382A0020D30F00206C2200209B
:102DD0007022002038B5264C2078092818BF0A2810
:102DE00001D0212032BD40F201408CF005FC20785A
:102DF00009280DD11F4A2048136801881F4899806F
:102E000000788CF065FC002100208CF089F92BE023
:102E10000A2829D117481A4D02682B886988A88882
:102E2000CB18C31893806988D180A979802918BFED
:102E300081290FBF7F21134B93F90000091A1172EA
:102E40001149087838B1002288680A7008B109F081
:102E500033FC22F068FC288801218CF061F9002005
:102E600002F00EF802F048F80020207032BD00BFDA
:102E7000C80F0020440F0020AC0E0020CA0F002015
:102E8000E40D0020C90F00209C2A00202DE9F84302
:102E900004460027002C894644D02C4D28788842CF
:102EA00040D3227912F0E00F3CD120468CF010FA8A
:102EB000012837D12978DFF8988089454FF4D076FA
:102EC00007D04F46D8F80420FBB273431A44507918
:102ED00040B3D8F80400F9B2714308444279012A9A
:102EE00031D1F8B203F058F800F177032A78197954
:102EF00011B11978012902D0597E012903D19145D8
:102F000007D03A200CE001680B78802B0CD091455B
:102F100008D12878F9B2814201D28145D9D0002068
:102F2000BDE8F2831220FBE70021625C4318491CD4
:102F3000052983F86120F8DB818EC91DA0F8921065
:102F400001218CF055F97F1CE3E700BFD40F00206E
:102F5000780E0020A0F11B0210B5E12A3EBFA1F5BA
:102F6000A47244F249139A4207D20D4A148884424B
:102F700022BF0C4B1A888A4201D2122010BD0A4A85
:102F800053789A0601D4112010BD084A084B094C09
:102F900010800948018019802180002010BD00BFE9
:102FA000920F0020940F0020C00C00208A0F0020F8
:102FB0008E0F0020900F00208C0F002070B504466B
:102FC00001208CF065FA002500B101251B4801683D
:102FD0000A7B012A0CBF0120002005431848016824
:102FE000CA7A012A0CBF01200020054301D00C2021
:102FF00070BD144D144E28787CB1012C1BD1317852
:1030000049B972684FF4805109F02EFC08B10320D1
:1030100070BD01203070002070BD31780029FAD0D9
:103020004FF4805109F060FC28784FF4805108F08B
:10303000BBFF0020EEE7122070BD00BF500F002044
:10304000540F0020C70F0020880E002010B501008B
:1030500003D04AF2B911884201DB302010BD0A4A80
:103060004FF47A7148435060107801280AD1074C18
:1030700020784FF4805109F037FC20784FF48051CC
:1030800008F02CFF002010BD880E0020C70F002084
:1030900018B591B0412168468AF021FD684603F0D9
:1030A00085F9044620210DF101008CF051F9202111
:1030B0000DF121008CF04CF9002C0CBF00201F20DA
:1030C0000DF121020DF101018CF032FA002012B055
:1030D00010BD10B5A2B0014640220DF101008AF0EA
:1030E00001FD04218DF800100DF1010020218CF06C
:1030F0002FF920210DF121008CF02AF911A9684641
:1031000003F0A2F900280CBF00241F2420210DF198
:1031100045008CF01DF90DF1450120468CF0D4F8E6
:10312000002022B010BD70B50D00144618BF002C51
:10313000064601D1122070BD002028702070304654
:103140008CF0F6F801000FD1F0B202F025FF90F8F4
:103150009611042908BF0321297090F896010428CC
:1031600008BF03202070002070BD000083B24FF222
:10317000FF52A3F20153934222BF8BB2A3F2015339
:10318000934201D212207047094A1368188059806F
:103190000A21B3F9000090FBF1F119711068B0F940
:1031A00002100A2291FBF2F242710020704700BF28
:1031B000400F002008B9122070470D4A517809B11C
:1031C0000C2070470B4902784A7042788A708378E5
:1031D000CB70C0780871D1074CBF072005201107BC
:1031E0004CBFFF21FB2108400349087000207047B5
:1031F000780E0020C00C0020C50F00202DE9F04102
:10320000064605F0BBF8044630468CF091F8010004
:1032100035D1F0B202F0C0FE050014BF002C022030
:103220002DD01848184F016888478046207880289C
:1032300011BF402815498A78964214D140F20140C6
:103240008CF0DAF905F21710012116220170427094
:1032500021780F48402902D10E4A026001E00E4950
:103260000160012103E00D4806804FF400613878C9
:1032700008F034FE0A490A68404690470020BDE83D
:10328000F08100BF6C220020C70F0020780E0020C4
:10329000480F00204B57020049570200661B0020D0
:1032A0007022002010F0070001D11E207047024953
:1032B00008700020704700BF681B002070B50C002C
:1032C00018BF002A064612D0507980B1907902F0DA
:1032D0006DFE05465EB9207802280AD11D480168B6
:1032E00091F82400697B814201D203282FDB002062
:1032F00070BD10280AD1032022F044FA30B190F8B2
:10330000B100697B814201D2032820DB20780428A8
:1033100003D111480168087E06E001280AD10F4850
:1033200001680A6892F8B800697B8142DFD20328FD
:10333000DDDA0CE00828DAD122F019FA0028D6D01C
:1033400090F8C600697B8142D1D20328CFDA0120F0
:1033500070BD00BF500F0020540F0020B02A002085
:10336000F8B5044622480D4601780226052908D002
:10337000062912D0112914D012291BD0132905D0E7
:103380001DE01C4A106890F8246018E0032022F029
:10339000F9F9A0B190F8B16011E0174801680E7E0C
:1033A0000DE01648007800218CF0FEF838B190F856
:1033B000B86004E022F0DBF908B190F8C660104F65
:1033C0003868214604F05CFA08B9AE420ED20D48C6
:1033D00001688847012204463A7140F201408CF0AE
:1033E0000BF909490A68204690470120F2BD00BF49
:1033F000C80F0020500F0020540F0020D50F0020D0
:10340000A82A00206C2200207022002002490860B7
:1034100000200871704700BFA82A002001480079E9
:10342000704700BFA82A002030B501460B4BC86882
:103430001C680A68A04208BF196003680B60858891
:103440008B888C688D80838083688B608460026049
:10345000C268CA600021C16030BD00BFB02A002030
:10346000F8B505462868416D4A78D10648BF40F650
:10347000AC5465D4066D448B4CB9307CC0F38001EC
:103480000023872200F003008BF0D2FF0446286857
:1034900000F1440104F2DC540A6953789A0728D4F5
:1034A000808C60B94A8802B9362296F84000C0F391
:1034B0008001002300F003008BF0BAFF3DE04A7862
:1034C000012A14DD0A7896F84000C0F38001002339
:1034D00000F003008BF0ACFF296822468C8C91F839
:1034E000451004F59B74491E01FB042425E02418B3
:1034F00026E024300023C27F96F84000C0F380010C
:1035000000F003008BF094FF0746286844304178B0
:10351000012914DD027896F84000C0F380010023F1
:1035200000F003008BF084FF2A6892F845302146B2
:1035300007F59B745B1E03FB0414041900E03C199F
:10354000AC80F1BD30B5014609480A4C00682578C9
:10355000002201E0C068521CD3B2AB4205D2002861
:10356000F9D003688B42F5D130BD002030BD00BFDB
:10357000B02A0020B42A00202DE9F04706468946EB
:10358000FFF7E0FF20B10020C9F80000012051E062
:10359000102009F081F8040047D0274F26603968D1
:1035A000264E002904BF3078002808D13C60E46032
:1035B0008BF0DEFE00F5385000F1E0082EE03078A8
:1035C00001284FF47A650ED10968086900F5FA5AA6
:1035D00002F098FF00F00F083868E06015FB08A8BB
:1035E0003968CC601AE00868006900F5FA5802F002
:1035F00089FF00F00F0015FB00883D6800E00546DC
:10360000E86802681069414604F03AF918B9E868B8
:1036100039688842F3D1E868E060EC603078401C9B
:103620003070C9F80040404604E000210E208BF0C5
:10363000FFFD0020BDE8F087B02A0020B42A00205A
:1036400070B505460024287E85F87200012634E016
:10365000686D427A95F872002B7EA0F12501A3F1E6
:10366000250006FA01F106FA00F0014322EA010101
:103670001C2212FB04F201F00701A81841F02401FA
:10368000242980F8721016D1272180F8721012E0D8
:10369000002C08BF0328DBD18BF06AFE297E00F0E6
:1036A00001004118491C85F87210C8B22828A4BF2F
:1036B000C91E85F87210641CE4B2E87D411E8C427C
:1036C000E6DB70BD10B50446002120788BF06CFF5E
:1036D00008B9422010BD406DB4F8031040780022B4
:1036E000C30607D5202914DBA4F80320C4F805205D
:1036F000122010BDC00702D5B1F5807F03DA08485B
:1037000003888B4205D2A4F80320C4F805200720C3
:1037100010BD2046BDE8104000218BF0C9BD00BFA0
:103720006002002010B50446002120788BF03CFF99
:1037300008B9422010BD406DB4F803104078002253
:10374000C30607D5202914DBA4F80320C4F80520FC
:10375000122010BD800702D5B1F5807F03DA08483A
:1037600003888B4205D2A4F80320C4F80520072063
:1037700010BD2046BDE8104001218BF099BD00BF6F
:10378000600200202DE9F84F05004ED0DFF8EC82F2
:1037900098F80000092818BF0A2804D00B281CBF7D
:1037A0000C280D2801D1212065E1A87800218BF09B
:1037B000FBFE040008BF4220F6D0B14FA978DFF825
:1037C000C4A2397098F8000010B9A8788AF80000EF
:1037D00004F14806F068417801F01201022902BFA5
:1037E000706900280C2012D0607AF0B1A07B01280B
:1037F00004D1B5F8030008B1812816DA68784028AA
:1038000013DA20468BF034FFB06808B9072032E1A4
:10381000B561287801281FD1A07B00281CBF012892
:10382000042819D19848007808B9122023E1974953
:103830004A78824208BF0920F8D0F06841784807EA
:103840000AD504F1220180204A7F04F1380101F0F9
:1038500001FF08B10B200EE1687808B911200AE1D8
:103860002878DFF82C92DFF82CB2012840F0B280E3
:1038700000212173F166217A012903D1B1696879A8
:103880004871F7E0112021F08EFF01200021207205
:10389000E1726173254604F0C3FC6060DBF8000050
:1038A00080477D4A0146106802E06A68426000680D
:1038B0000028FAD10846D9F8001088476968774887
:1038C00048610021387821F035FF39780122112034
:1038D00021F02CFFF0684178C80605D5284600F095
:1038E000E3FC010024D0C6E0688C21F0FFFE85F8DF
:1038F0002100F068007821F02FFF04001CBF94F82D
:10390000B000002807D0E87F40F02000E877687D0D
:1039100040F018006875284621F0E6FE0100E2D16B
:1039200034B194F8B000012804BF284621F01AFFF2
:10393000F0684178C8071CD505F14204A188002928
:103940001CBF3068002814D022788A4211D20F2080
:103950008BF03AFD68B1F06801788DF800100F2007
:10396000A288ADF8012021788DF8031069468BF00C
:103970005FFC98F80000A0B94949087800281EBFEC
:10398000F068417811F0030F03D0464800688BF0CF
:1039900067FC112088F800000121297221F098FEAF
:1039A00068E02846FFF7CEFD00281CBFB16800295B
:1039B00060D0AA7B012A04D02A69808802EB8002A9
:1039C00002E0486E2A69821895F8B8101046FFF791
:1039D000C7FC4FE0207A00284CD0DBF80010884765
:1039E00005463878012121F0A5FE00202E492072DD
:1039F0000A683E7811460B68187A002802BF586D95
:103A00000378B3421FD0C9689142F4D138789AF84C
:103A10000010884224D104F0B1FC616888421FD1B3
:103A200004F03CFF40F201408BF0E6FD1F49204AC4
:103A3000204808600121107808F050FAD9F80010E9
:103A40002846884716E01C4E30780128DEDD0846FF
:103A5000FFF7EAFC08F030FE3078411E3170D5E700
:103A600020468BF049FBD9F80010284688472046AD
:103A700001F0E8F90020BDE8F28F00BFC80F002078
:103A8000D60F0020D50F0020D40F0020780E002084
:103A9000702200206C2200204C0F00204584000082
:103AA000880E00206C0F0020B02A0020480F002054
:103AB000C70F0020214B0000B42A002038B5104861
:103AC0000068002101E0017200680028FBD10D4868
:103AD0000D4D01688847044605E0C1682960002251
:103AE000C26008F0E9FD28680028F6D1074A084BB3
:103AF00028600021117020461C68A04731BD00BF1E
:103B00004C0F00206C220020B02A0020B42A002094
:103B10007022002070B51748174C007802280ED18B
:103B20002068C46801688288A58883688580A66843
:103B30008660256805602160A280A36070BD0328AF
:103B400016DB2068FFF770FC2668054600E0064695
:103B5000F068016828680969006903F091FE00288F
:103B60001EBFF06821688842F1D1F068F560E86016
:103B700070BD00BFB42A0020B02A00202DE9F0411A
:103B80008BF0F6FB364D8046286800281DBF354E69
:103B900030780028002061D029680A68107A00284F
:103BA00041D13278022A3EDB0846FFF73DFC08F09F
:103BB00083FD3078411E317035E002F0A3FC2968A6
:103BC00009684B6DD3F8037027F07F4740F6C413A4
:103BD0005F434FF00B0C90FBFCFC0B2303FB1C0022
:103BE00080B24FF47A640A69604317FA80F0821851
:103BF0000A610AE00868827B012ADED18BF0B8FBFB
:103C000029680A6800F57A601061307802280ADBBA
:103C10002868C16800680A680069116903F030FE0D
:103C200008B1FFF777FF286801680969404603F08B
:103C300027FE00282968DDD10A68107A0028ABD059
:103C4000506D094B02781A700868016D0069886030
:103C5000296808684168026D4A60006DBDE8F0811E
:103C6000B02A0020B42A0020D50F002010B5184C2F
:103C700020688BF0D5FC48B30179032926D1007A5E
:103C800010F00F0F1CBF00F00F01012908D000F049
:103C90000F02022A1EBF042900F00F00062815D1CA
:103CA0000C4801680A6A507880B1C86940780028D9
:103CB00018BF02280AD1084800680178407881427C
:103CC00004D120688BF0CCFB012010BD002010BD7A
:103CD0008C0A0020500F0020700F00202DE9F047C3
:103CE000804608F1480517460E46AA68B00702F15B
:103CF000A40408F12A0918D5E968487810F0030FE0
:103D000004BFB9F81C1000290FD1286868B992F8CF
:103D10008A0000F0FD0082F88A000622EB6803F1B9
:103D20000C01204607F00BFFA41D300708D5B9F899
:103D3000161004F8011BB9F81600000A04F8010B6C
:103D4000F00608F1210A18D5B9F800109AF80030E9
:103D50003329E9688A7DB4BF40200020511E03F05A
:103D60003F031843C9B2C7F30C07207047EA413735
:103D700067703F043F0EA770E41CB00604D52146CF
:103D8000404621F0F3FC123470060ED50849094B69
:103D9000C86B416908689AF8082002EB4202815614
:103DA0001A6892F9040041182170BDE8F08700BF3D
:103DB000A4FC0800400F00202DE9FE4F044600201F
:103DC000009000250CB907F04BFE04F1500841F6B5
:103DD0002300D8F8007038807D8002223A737A730D
:103DE00069462046FFF7C8FB08B9072051E2009951
:103DF00001B1B860B8682061DFF89C04017884F8EC
:103E0000B810D8F80400407A00F0D0FB25302076B6
:103E1000207EB873FD73D8F80400017D022904BF29
:103E2000002007F01DFED8F80400007D012802D113
:103E30000020002104E083280CBF0620022020215E
:103E40003874797404F12406DFF850A4DAF83C00E1
:103E500041690868717901EB41010844B0F801201B
:103E60007A82D8F80400417848060AD5607DC106F8
:103E700004D5E07F40F04000E07702E040F04000F1
:103E8000607507F15C0904F1300089F80050B17EDB
:103E9000890001F0040189F80010B866607DC10650
:103EA00056D5D8F8042051788A060CD500F0FE00CB
:103EB0006075D8F80400417811F0030F03D1E07F5A
:103EC00000F0FE00E077607D8BF05AFBA075421C8D
:103ED000387CC0F38001002392B200F003008BF025
:103EE000A7FAA0831E20A28B02F59B7393FBF0F030
:103EF0001E2101FB1030C0B208B1C0F11E008218B3
:103F000002F59B7262831E20A28B02F5967293B219
:103F100093FBF0F001FB1030A283C0B208B1C0F1F6
:103F20001E008018A08380B2E27D618B521E504338
:103F30004018608307F13005608BB430800038662C
:103F4000062089F80300E17F41F00801E17720E0D5
:103F500040F001006075D8F804104A78510744BF5A
:103F600040F002006075607D8BF00AFBA0750023B5
:103F7000401C82B2387CC0F3800100F003008BF05B
:103F800057FAA083A08B00F59670A0833D6689F850
:103F90000350A17D207D61F3050007F188012075A4
:103FA00008700322607D48708A70B07E800000F047
:103FB000040040F003008870F27ED20002F0080294
:103FC000104388700020C870C7F89000B08BC0F311
:103FD0000B00B083D8F80410CA7D40EA0230B083E9
:103FE0000022617D01F0FE012046FFF777FE019778
:103FF00000271EE01C2010FB07F004EB000B0199CA
:104000001C220BF1640007F09AFD0BF16C000521F6
:1040100001717F1CA28B92000260FFB2DAF83C10A3
:104020004A691168737903EB43031944B1F801201D
:104030004281E07D401E8742DCDB019F2046FFF786
:10404000FFFAE07D012809D013D3032808D03EBF32
:1040500004F164007860C8F818500AE07D6008E058
:1040600004F16400786004F18001C8F81810C8F801
:10407000345041F6240038860021798607F13C054A
:10408000B868618B00EB8100B86302218220287040
:104090006970002194F82100E97000F03F00A870D9
:1040A000D8F80400807D012818BF022803D100F051
:1040B0007F00401E04E083280CBF06200220202140
:1040C000287169714FF0000BDAF83C00416908680B
:1040D000727902EB42021044B0F80110E980C7F88F
:1040E0006CB0D8F80400417811F0030F20D08BF0A9
:1040F0005BF8F866DAF818000078C107DAF81810EB
:1041000009784CBF1F200F208A07DAF818100978A9
:1041100048BF40F020004A07DAF81810097848BF75
:1041200040F040000A0748BF40F0800089F81400C2
:1041300089F815B0D8F80410594A897C01F00301B8
:1041400089F81510B07E800000F00400014389F862
:104150001510F07EC00000F00800014341F010018E
:1041600089F81510107838B199F8140000F0FE00A5
:1041700041F0400189F8140089F81510E07F8BF0B8
:10418000FFF984F8200020468AF06EFFE07FC10628
:1041900036D5D8F8040094F820204178521C8807BE
:1041A0004EBFD21EF07F12182879C0F38001002381
:1041B000D2B200F003008BF03BF930801E22308831
:1041C00000F59670C0F11E0190FBF2F21E2000FB7C
:1041D00002113171D8F804104878810731884CBF3A
:1041E00000204FF49B70401830807080B86B31888D
:1041F00032795218A63200EB82007867022002E082
:10420000C7F874B0002089F8170004F13000C7F82F
:10421000800007F18400D8F804104A78510707D5C8
:1042200004F13802026099F8150040F0200007E020
:104230001C490A685168016099F8150000F0DF0018
:1042400089F81500A17F94F8200060F30501A1779B
:1042500040F60B002882A5F812B0DAF83800008882
:1042600080007865DAF83800008800B107202877E8
:104270000220687794F84510E983D8F80400417863
:10428000880744BF0121E983009808B1FFF7E8F8E7
:104290000020BDE8FE8F00BF502A0020A4FC0800CB
:1042A000880E00206C0F00202DE9F84F04460020F6
:1042B00000900CB907F0D4FB04F1500569462E6854
:1042C0002046FFF759F908B9072015E1A04641F249
:1042D0008839DFF828B2DFF828A2002469684A7A12
:1042E0001820604301233718A3401A420AD098F8D7
:1042F0000E103AF81100388000211BF80420BA7320
:10430000F97302E040F6010038800021798007F15E
:1043100018007860387B00F0EF00387340F08000C0
:10432000387398F80E10012916D1397B002C0CBF78
:104330000220052001F0F0010843387324B98BF006
:1043400017F800F57A6000E04846B860787B00F026
:10435000F00040F0020017E0002C0CBF0221002109
:1043600000F0F0000843387324B98BF001F800F531
:104370007A6000E00020B860022C797B0CBF01203D
:10438000022001F0F00108437873641C06F1480034
:10439000386106F16801032C79619FDB98F80E0003
:1043A0000024012808F1A80718D108F19C007063C7
:1043B0001822314607F0C3FB06F118002865C5F83E
:1043C0005490397801F0F00141F0050139707878A6
:1043D00000F0F00040F00200787000E07463B06814
:1043E000C8F810004748017839748AF0DDFEB064DF
:1043F000454881690978CA07826912784CBF1F2134
:104400000F2193078269127848BF41F020015307BA
:104410008269107848BF41F04001020706F14C0262
:1044200048BF41F08001117054706968887C00F0C9
:10443000030008F13E0150700B7863F38200507066
:104440004978947061F3C3005070D47040F010004C
:1044500050703465746508F13800F06598F80E0006
:10446000012818BF042815D0A86830B1B0F803009F
:104470009070A968D1F805003065E86830B1B0F8EF
:104480000300D070E968D1F8050070651F48016825
:104490004868F06508F13000B065D07D00F0EF00AD
:1044A000D07540F08000D07500F0F00040F00600BC
:1044B000D0752869B0F8030000280EBF144849F6EB
:1044C0004041484370661349087838B150781178F4
:1044D00040F0400001F0FE01507011700E498B78E1
:1044E000507859064CBF40F0200000F0DF005070BB
:1044F0000098FEF7B5FF0020BDE8F28F506E021065
:10450000F46B0210502A0020A4FC08006C0F00205D
:1045100000204E00880E0020C00C002070B5214BFA
:10452000214D197801F00104C1F340010C191978EB
:10453000C1F380010C190022A97B2539060018BFA0
:104540000128C9B201D01E2070BDE4B2012C11D0E7
:10455000040003D1022910D04A1C05E001280CD127
:1045600009B9022209E04A1ED4B2022C05DDD0B2FC
:10457000032815D1084670BD00221C7801259540FE
:104580002C42F4D1040004D1D4B2022CF4D0521C39
:10459000EAE70128E8D1D4B2002CE2D0521EE3E7CA
:1045A00070BD00BF681B0020E80B002038B5044632
:1045B00001F0A8FF04F00102C4F340018A18C4F31B
:1045C00080018A18D2B290FBF2F102FB11010025A2
:1045D000C9B2002001228240144203D0EAB28A42CA
:1045E00004D06D1C401CC2B2032AF3DBC0B232BD42
:1045F000F0B5124B1B7890FBF3F403FB1400FF2182
:10460000002200230E4C0025E65CEE40F70704D59F
:10461000D6B287B2BE4209D0521C6D1CEEB2082E33
:10462000F2DB5B1C052BEEDBC8B2F0BDD90051FA02
:1046300085F1CDB2FF2DF7D1F3E700BF702A00203E
:10464000682A002038B504460D4600210C4A217224
:10465000107810B120468AF04FFD204600F0F2FBA2
:104660003C2D18BF432D0AD106488178880706D50E
:1046700029462046BDE83840FF228AF0C5BD31BD3D
:10468000B42A0020200E00202DE9F84F054605F140
:104690004C0AE87D9AF80010DAF8047081424FF075
:1046A0000008C0F0938105F1280407F1900907F193
:1046B0007306C34640F08C80A87F7075E97FB175A2
:1046C000DAF808205278930710D5EA7FD30604D58C
:1046D000C01E707501F0EF01B175C7F874B086F8AF
:1046E00000800022B17D01F0FE016AE1910608D44C
:1046F000E08B00B1E07E3076E08B00B1206AC9F833
:104700000000DAF808004178CA070DD5E08B0028D0
:104710001CBF206A002807D0C9F80000A17EE08BEA
:10472000814238BF08463076E87FC1060CD5B86BA9
:10473000217800EB8100B863B86BA98CA63100EB3F
:1047400081007867022002E0C7F874B00020307062
:10475000DAF80800417811F0030F22D1007820F038
:10476000FBFF5FEA00081CD098F8B000032809D1CD
:10477000E87F810615D440F02000E877B07D40F056
:1047800020000DE068B9E87F81060AD500F0DF005F
:10479000E877707DA0F112017175B07D00F0DF0047
:1047A000B075E97F002201F0FC012846FFF796FA78
:1047B000B8F1000F36D0E87F810633D598F8B00005
:1047C00002282FD141462846BDE8F44F20F0C8BF4B
:1047D000E87F81060AD500F0DF00E877707DA0F160
:1047E00012017175B07D00F0DF00B075DAF80800D5
:1047F0004178C80717D5B07D717D00F0F700891E9C
:1048000001F03F0182075CBF891D40F002004206B3
:1048100044BF491E00F0BF00B0757175C9F800B003
:1048200086F81880D2E09AF80020E87D121AD2B2F9
:104830008907009240F18280012A07F140083FD1A8
:10484000B86BA98C00EB8100B863A87F00F03F0033
:10485000A8777075E97FB175DAF8082053785A07A0
:1048600003D5801F707501F0FD01B1750023707DC7
:10487000E17E00F03F00421898F80000521CC0F39F
:10488000800192B200F003008AF0D2FD00F59B7027
:10489000A8841E21A88C90FBF1F18AB2B17D01F0B1
:1048A000FE012846FFF71AFA86F800B0E08B00B147
:1048B000E07E3076E08B00B1206AC9F8000085E028
:1048C000B86BA98C022A00EB8100B86326D1E87F7F
:1048D000C10706D5707D811F7175B07D00F0FE00A7
:1048E000B0750023707DE17E00F03F00421898F81B
:1048F0000000521CC0F3800192B200F003008AF065
:1049000097FD00F59B70A8840022B17D01F0FE01A7
:104910002846FFF7E3F9607FA8F81A00617F009846
:10492000491C081AC0B201281CDDB96BAA8CA6323A
:1049300001EB820179670221317014E0B86BA98C18
:1049400000EB8100B863617F0098081AE97FCA060E
:10495000C0B207D5B96BAA8CA63201EB8201796788
:104960000221317090B395F81F80A97FD9F80020FB
:10497000E37E1A44C9F8002028F00108DAF808207C
:104980005278530748BF28F00208920748BF28F022
:104990000808012807D1207F3076C7F874B028F0C6
:1049A000100886F800B001F0C00440468AF0E8FD27
:1049B00000F03F002043707586F81680002208F052
:1049C000FC012846BDE8F84FFFF788B9BDE8F18F34
:1049D0002DE9F041044604F1500500202E68708056
:1049E00006F173086968487AFFF7E0FD2530207604
:1049F00004F12207207EB0732046FEF721FE207DC1
:104A000088F815000020617D88F8161088F81800D5
:104A1000C6F890003888401C388080B220F066FECE
:104A200084F821006868417811F0030F42D10078C2
:104A300020F092FE00283DD000F1B0010878032854
:104A400006D1E27F930603D442F02002E27731E000
:104A500001280ED1E07F40F02000E077607D40F03B
:104A600018006075204620F03FFE204620F07AFEB8
:104A700020E008B10879E8B1E07F00F0DF00E077DE
:104A8000A868002804BFE868002810D16868007D85
:104A900083280CD0617D03280A4607D0C80648BF8A
:104AA00001F0EF02100748BF02F0F70262752046DE
:104AB00020F01AFE617D002201F0FE012046FFF782
:104AC0000DF90020708606F13E0094F8211001F0E7
:104AD0003F010170B168628B01EB8201B16300217B
:104AE000018294F84520828369684A78910709D544
:104AF000BA887A80A17F01F03F0141F08001A1775F
:104B000001218183E07FC10608D5B06B7988A63189
:104B100000EB81007067022088F80000BDE8F0819A
:104B20002DE9F041DFF8608198F8000000218AF05B
:104B30003BFD040004F1500602D106F091FF94E021
:104B4000207A08B9002143E0112020F02CFE217BBF
:104B5000491C21733069407920B1C9B2814208BF34
:104B6000432135D004F13E070020B8730B2501F036
:104B7000C9FC7168D1F80320D4F810E022F07F421C
:104B800040F6C41303FB02EE90FBF5F50B2202FB8B
:104B90001500D6F800C080B24FF47A6148431EFA7F
:104BA00080F0CCF80800336838489968216133698F
:104BB0000268B3F8030000281FBF706E0028A37BB3
:104BC000012B0CD0938801EB8301814207D33C2158
:104BD0002046FFF737FDBDE8F04120F079BD2C4DB0
:104BE0002878012809DDD068016810680969006922
:104BF00002F046FE08B1FEF78DFF70684178C806E6
:104C00001BD5A17B01290CD100222272287810B17A
:104C100020468AF071FA1F480078022107F05EF9F9
:104C20000EE0306890F8631001F0E00141F0860179
:104C300080F863101849416602E0204620F0B1FD7B
:104C40001649087888B13878022818BF03280CD193
:104C5000134F38680D308AF02BFC30B93868C11D0D
:104C6000062204F1300006F06AFF20F031FD4CB15D
:104C70007068017E480605D54146BDE8F041032035
:104C80008AF0D6BABDE8F081D50F0020B02A002006
:104C9000B42A0020C70F002000204E00880E0020FC
:104CA000680F00202DE9F843514C2168087B68B952
:104CB0008AF01AFD2168096A0878002804BF8888EC
:104CC000002840F08380002109207DE0052020F0AD
:104CD0006AFD484D484E002068808AF049FB00F686
:104CE000C410009020683278C16902EB82028818F3
:104CF000C1888088814202BF40490879012865D077
:104D00003F4F0099386A02F0BBFD68B1786A18B16C
:104D1000009902F0B5FD38B10098A86021680868D4
:104D2000BDE8F24303F0D2BD0020FFF7F7FB2530CA
:104D3000A87340F6C4122168C86990F802C033789D
:104D4000BCF1050F48D183F00103337003EB8303FB
:104D5000C86903447879DB7863F34100787130786F
:104D6000D1F81CC00B6900EB80080CEB0809B9F8FE
:104D700004C002FB0C3CC5F808C0C1F810C04300D9
:104D80002B7438BB6874A8683578CB6905EB85054A
:104D90005E19F38802FB03023A621A4A107888B15E
:104DA000887A022818BF03280CD1174D28680D30C7
:104DB0008AF07EFB30B928682368C11D0622181DC1
:104DC00006F0BDFE00210A208AF032FABDE8F14368
:104DD00020F07EBC2020D5E703EB83031844D1F8F4
:104DE00010C0808802FB00C0A8600861CBE700BF4C
:104DF000500F0020E80B0020D80F0020A82A002028
:104E00008C0A0020880E0020680F002001780129FC
:104E100008D002290AD004290CD0082904D010296E
:104E200006D009E0FEF7AABE20F09EBC03487047FA
:104E300020F0A5BC0248704740687047E80B00208E
:104E4000040C002010B50446A07A01F0AFF850B170
:104E5000617B8A0707D5017B41F001010173607B0B
:104E600000F0FD006073616D087E020607D5607B6F
:104E7000C20704D4BDE8104001208AF0D9B910BDA2
:104E800010B5010018BF012803D002281CBF062856
:104E9000002015494FF4C1520A8000234B800022A4
:104EA0004A608A600A73CA7301234B7388730F4A7E
:104EB0000F4813880B82C26B0E4B52684A61C26B5B
:104EC00092688A61C26BD268CA61C26B12690A6257
:104ED000C26B526910681C7804EB44042044B0F89B
:104EE00001204A8210BD00BFEC0A0020A00F002064
:104EF000A4FC0800CA0F0020F8B58AB002A81C491B
:104F00001C4D1D4C202288F0EDFD0026CDE90066E9
:104F10001A482E68006856F8607F002302AA2146CE
:104F2000B847174AC2E900016188ADF80010BDF822
:104F300000000028F9D0B1F5A05F05D0002006F0F0
:104F40008FFD89208AF0C8F80E490F4BC8680F4CB6
:104F50004288187802432280C868007881060C498C
:104F600043BF0C480068400A002008700BB0F0BD39
:104F700038FC0800200F0020EC0A00201C0F002045
:104F8000600E0020A4FC0800C40F0020A00F002029
:104F9000C90F002080130050F8B590B004460D46AC
:104FA00008A82049202288F09DFD0020ADF80A00C5
:104FB000039040F603079DF815109DF81400ADF816
:104FC000087001F0F001002200F0600041F00101E2
:104FD00004928DF814008DF81510ADF81650ADF848
:104FE00018208DF81A408DF81B200792CDE9002279
:104FF0000D4C0E482568006855F8606F002308AA1C
:1050000002A9B0470A4AC2E90001BDF80A00B0F59A
:10501000806F05D0002006F023FD88208AF05CF820
:1050200011B0F0BD58FC0800200F00201C0F00201C
:10503000600E00201CB50F490F4CCA6B53691A68EB
:1050400000EB40000244B2F8013063821022ADF858
:1050500000200A4BCA6B52691168094A1C6808444F
:105060006946B0F80100ADF80200106854F8242F2A
:10507000904713BDA4FC0800EC0A0020200F00207C
:105080001C0F0020F8B504461646FF2730000D46D9
:105090001DD0104908688047014604202318421E8D
:1050A00093F87630FC2B08D1F3B22B44204413F84C
:1050B000013C80F87630761E1746D0B200281CBF1F
:1050C000F2B2002AEAD1084603490A689047F8B2CA
:1050D000F2BD00BF6C220020702200202DE9F041BB
:1050E000054614480E46016890468847012400276B
:1050F000291991F87710FF2916D0002200E0521CE0
:10510000D3B216F803C0BCF1FF0F0AD06145F6D147
:105110002A19FC2182F87710F9B2F35C08F8013003
:105120007F1C641C042CE3DB03490A689047F8B237
:10513000BDE8F0816C2200207022002070B504468A
:1051400004F1380004F190060178174D4170307871
:1051500001281AD120897288401C904215DB04F185
:10516000610120468AF048F9D4F89C11204688470E
:105170002A68A1795054A0792A68125C04F161016F
:10518000FCF7FCFE0220307006E0D4F89C112046AB
:1051900088472A68A17950542868A179425C206820
:1051A00041688A7370BD00BFDC2A002070B50446D8
:1051B000C0B200F0F1FE0546E0B200F0F7FE064690
:1051C00005F5CB700178012916BF02294C1E8C1EF3
:1051D00001796879022908BF002108B9FF2070BD54
:1051E000307CC2070FD495F894300022E0B28AF0E8
:1051F0001FF9716980B241F6583201F0004102EBAB
:10520000C00211437161002070BD0000F8B58B48E9
:105210008B4D01782A788A4200F00E816A6800245A
:1052200000E0641C8C4280F204814FF4D07363432D
:10523000134418790028F4D1E0B200F0ADFE01214A
:10524000017100224271426200F161018471012208
:1052500000F168034A711A71012400221A609A60F1
:1052600000F1900602814281047480F83920826145
:105270000277C283327000F592749A762275802785
:105280001F739A730027FF22DF741A7600F20D1342
:105290001F70DF70BC46BE4600F5897783F801C0F9
:1052A00083F802E0A7F800C0A7F802C087F805E07D
:1052B00000F1E70386F804C083F800C083F801C05A
:1052C00000F1EC03C3F800C0C3F804C083F80AE09F
:1052D00083F80CC083F808C083F80DC083F80EC0B3
:1052E00083F80FC0A7F808C0A7F80AC0A7F80CC039
:1052F000A7F80EC047F23057A76100F5C676C4F88C
:1053000000C02273A4F80EC084F81CC084F81DC02D
:10531000A2770127B7720227F77286F80EE086F8A7
:105320000CC0484FDFF820E13F78777386F806C05D
:1053300084F80AC084F804C084F805C084F806C064
:1053400084F807C084F808C084F809C000F5B37475
:105350003E4F84F800C086F800C04FF01B0C3F8819
:10536000E7803B4F3F882781BEF800706780394F48
:105370003F88A780A4F80AC04FF4A477E78127826A
:10538000A4F80CC0E7822783A4F812C0A4F814C0C4
:105390006783A783E78327846784A784A6F802C06E
:1053A0000127377100240719641C042C87F8772023
:1053B000F9DB294A14780C7057784F7094788C7008
:1053C0000446D778CF7012790A710021234A501809
:1053D0006718407887F8FD00491C0829F7DB20484A
:1053E000306100211974A07900F0E0FD0646A07933
:1053F000FFF7DCFE1B480178307C717300F0FC0085
:1054000030740022B069F28100F0004040F4853031
:1054100040F04000B061307F00F0F800307728782D
:10542000401C2870C0B2012804BFA079A870204693
:10543000F2BD002006F014FB0020F2BDD40F0020C6
:10544000780E0020C50F00208A0F00208C0F00204E
:10545000980F0020960F0020602A0020C00C00202A
:105460004DE50110641B002070B5254E04463068E0
:10547000A2792C2500F11C016A43885808B107F075
:105480001BF9A179306869430144886A08B107F0C3
:1054900013F9A17932686943505C00281EBF194B8B
:1054A000D869002803D00023535420F03CF9A37995
:1054B000306815FB03F52C220021284406F071FB0F
:1054C00011480078082818BF072803D1A1790122C4
:1054D00020F02CF960790D4D40B1002161716878A0
:1054E00008B906F0BDFA6878411E69702878401E38
:1054F0002870C0B208B9FF20A8700021217170BDCA
:10550000742A0020782A0020C80F0020780E00207E
:1055100050B50D490D4A49781268012904BF147825
:10552000A0420ED0002300E023464C1EA34208DA1E
:10553000D65C5C1CB042F7D18C4202D0501CC05CDF
:1055400050BDFF2050BD00BF780E0020340F00205A
:1055500038B50446C0B200F01FFD0546E0B200F0C9
:1055600025FD697909B9FF2032BD017CC1F34001F5
:1055700039B96A8E40F6C4114A43816962F31E014B
:105580008161002032BD80B5C0B200F005FD010090
:1055900003D0CB895B08042B01DA002002BD0A206E
:1055A00093FBF0F00A2202FB1033012BACBF012267
:1055B00000221018B1F8621182B28A4228BF00207E
:1055C00080B202BDF8B589F0D3FE054605F6C415D4
:1055D00000261E4F00E0761C3978F0B2884232D2A5
:1055E00000F0DAFC044660790028F4D018490A6813
:1055F000A07910702946204689F0F6FF20680178CE
:10560000402902BF04F182000178012902BF4188CC
:105610006289914205D1A169C0880918204600F02D
:10562000D9F9A079FF2120F0B8F8E089B4F8621127
:105630004008884205D3207C18B9A079012120F0C8
:1056400081F8A079F2BDFF20F2BD00BFD40F002089
:10565000340F00202DE9F04705460E46924680287B
:105660001EBF4028002006F0FBF93C49487850B3A3
:105670003B480078002189F097FF040004BF002018
:1056800006F0EEF9802D21D1616D4878C20604D56F
:10569000A27B012A18BF042A1FD000F01402042A9A
:1056A0001BD0C20606D5A07B20B9887C022818BF73
:1056B000032816D0487810F0140F04D1887C0228F3
:1056C00018BF03280DD00020BDE8F087402DFAD187
:1056D000244801684A69107808B9012402E00128C9
:1056E000F1D100240027204DDFF88080DFF8809082
:1056F0001BE08879504502BF0B783078834213D184
:1057000048787278904202BF8878B27890420BD184
:10571000C878F278904202BF08793279904202BF8D
:1057200048797179884217D07F1C99F80010F8B237
:105730008842C8D200F030FC014648790028F3D0F6
:10574000002C01F59471D4D18A79D8F8000089F041
:10575000CBFE29788842E7D20120B5E7780E0020F9
:10576000D60F0020540F0020E02A00206C0F0020EC
:10577000D40F002003490A78022AA4BF0021016740
:10578000704700BF780E002038B504000D4608BFF2
:1057900006F066F9A079294689F042FD2046FFF718
:1057A000E9FF204689F068FDBDE831401FF090BF59
:1057B00030B50F4800210022431CCCB2491CCDB2A9
:1057C0001A55082DF9DBD0214172302282727821DE
:1057D000C17208220273002141738173C173017485
:1057E000FF218278417042F05902827030BD00BFC3
:1057F000C00C002070B505460E4A688816880E4B0E
:105800000024864203D2AA8899788A2004E088423C
:1058100005D2AA8899788B20FCF7FCFB08E089F078
:105820004FFFA860002812BF0124812089F00CFFDF
:10583000204670BD382A0020780E00202DE9FC4754
:1058400005460C4617469946C0B200F0A5FB8046B7
:10585000E8B200F0ABFB05460126A879DFF86CA1A1
:10586000012802D0022868D0ADE0B9F1020F0BD1B7
:1058700000206880A88028800222AA71A86806F00B
:105880006BFD0020A8605BE02888022814DB6A8892
:1058900039188A4210DA0020688028800222AA7112
:1058A000A86806F059FD0020A860AA889AF802109E
:1058B0008B20FCF7AFFB7FE0012813D1380011D01B
:1058C00069882078091D41EA0021042F698004DBE2
:1058D0006078A17800EB0122AA8039462846FFF7BC
:1058E00089FF0646A86800286DD0012E6BD12B8851
:1058F0003A462146184406F022F928883F182F809E
:10590000BFB26A8897425ED198F87410802918BF98
:1059100081290FBF7F212E4B1878091A49B20091B7
:105920004B46A9689AF80200FCF7D4FA0020688078
:10593000A88028800222AA7145E0B9F1020F42D165
:10594000380004D1BDE8F6478C2089F07DBE012FD8
:1059500003D12F802178698034E021786078091D97
:1059600041EA0021042F698004DBA078E17800EB94
:105970000122AA8039462846FFF73CFF0146A86865
:1059800008B301291FD13A46214606F0D8F86A88A3
:10599000974214D198F87410802918BF81290FBF3D
:1059A0007F210B4B1878091A49B200910223A9688C
:1059B0009AF80200FCF78EFA0020A88003E02988FC
:1059C0007F182F80AE71BDE8F38700BF780E0020EE
:1059D000C90F002010B502685368146940F6C4125C
:1059E00002FB01449C6081614FF4C873428A5143B9
:1059F000B1FBF3F1491C416101684B689A68416948
:105A0000521A9A6001684B689A688A60BDE8104033
:105A100000F000B87CB5044604F1860189F090FCE2
:105A200004F182050021688960842177E18304F113
:105A30002E066189E0894118A1812A89B188A88947
:105A40008A4204BF3389984202BF6B89F1888B4236
:105A500006D0000900906B89A1795208002004E06B
:105A6000000900905208A179302089F0F5FDB08836
:105A7000A4F86401297931702889B0806989F1809E
:105A8000A8893081204689F0DBFB0220287073BD95
:105A9000024B18609A809971704700BF800E0020F9
:105AA0002DE9F84F88463549354F05468878164622
:105AB00000F07CFA82463868002855D0B888B27960
:105AC00090421CBF4FF6FD7188424DD130894FF096
:105AD000FF0928B9B879C10748BF4FF0010B0CD4B2
