:020000040000FA
:1000000043433236783252319EBD2F810301DFFFE8
:10001000FFFF0700FF000000908B0A0000010000B6
:10002000303030318F8B0A008D00FFFF03DFFFFF80
:10003000550000000166F2C663B0177D511DEC103B
:100040008B446D66378D4E40E2F8B667CA1887BF9D
:10005000B581097116691FB9AB8C6FDE7D8CF031EB
:10006000675E3A14BE1289922A5E9E6EAB246CBB08
:10007000AEC3AF3B4BD8E22EDFC230F00585181976
:100080002701DFFF000F8B0A0000000000FFFFFFC9
:10009000FFFFFFFFFFFFFFFFFFFFFFFFFFFFFFFF70
:1000A000FFFFFFFFFFFFFFFFFFFFFFFFFFFFFFFF60
:1000B000FFFFFFFFFFFFFFFFFFFFFFFFFFFFFFFF50
:1000C000FFFFFFFFFFFFFFFFFFFFFFFFFFFFFFFF40
:1000D000FFFFFFFFFFFFFFFFFFFFFFFFFFFFFFFF30
:1000E000FFFFFFFFFFFFFFFFFFFFFFFFFFFFFFFF20
:1000F000FFFFFFFFFFFFFFFFFFFFFFFFFFFFFFFF10
:10010000802F0220D5ED0100E5ED0100E7ED0100B3
:10011000EBED0100E9ED0100EBED0100EBED01007D
:10012000EBED0100EBED0100EBED010071EF0100E3
:10013000EBED0100EBED010001F0010065F00100C5
:10014000EBED0100EBED0100EBED0100EBED01004B
:10015000EBED0100EBED0100EBED0100EBED01003B
:10016000EBED0100EBED0100EBED0100EBED01002B
:10017000EBED0100EBED0100EBED0100EBED01001B
:10018000EBED0100EBED0100EBED0100EBED01000B
:10019000EBED0100EBED0100EBED0100EBED0100FB
:1001A000EBED0100EBED0100EBED0100EBED0100EB
:1001B000EBED0100EBED0100EBED0100EBED0100DB
:1001C000EBED0100EBED0100EBED0100EBED0100CB
:1001D000EBED0100EBED0100FFFFFFFFFFFFFFFF75
:1001E000F8B504461646F0070D461F4603D41D2EEB
:1001F00018BF1B2E09D16946204691F0E9FC17284B
:1002000011D0F00701D51E2E05D16946204691F088
:100210002BFB172807D0069800903B46324629460C
:10022000204691F0E9FBF2BDF8B50446104A206F74
:1002300005685169B4F87A314978EA88C918891D86
:100240008A4213DA002606602F46B86820B1B868E3
:100250000BF0E2FEBE60FE803F68AF42F5D1206F3A
:1002600005602046BDE8F24091F08ABBF1BD00BFB9
:10027000882009002DE9F04705F0EAFC294D2A689D
:10028000116819B10267FFF7CFFF48E00024264E3E
:10029000264F4FF00C088146396808FB04FA514498
:1002A00000200871022238685044641C427172694F
:1002B0003868B9F87A31527800EB0A019A18921D21
:1002C000CA80631004EB93729310A4EB830208FBC3
:1002D00002F2104408607069B9F87A114078081881
:1002E000001D80B291F044FB396801F1080242F828
:1002F0000A00386800F108015144086810B1086824
:10030000801E0860042CC7DB286839680160002063
:100310002A68506029683A688A602968C860286835
:10032000BDE8F087A00E002088200900A80E00205C
:100330002DE9F043044685B0084611F801CBDFF8FB
:10034000A883DFF8A8332C22BCF1030F4FF000097B
:1003500004F5A47704F1660504F1F40600F0C38007
:10036000BCF1070F00F08381BCF10F0F0CD0BCF182
:10037000110F00F02781BCF11A0F00F03981BCF198
:100380001B0F00F0648191E1707A820703D40F2182
:1003900084F8191159E008784A7800EB02233B8071
:1003A0008878CA7800EB02237B8008794A7900EBD1
:1003B0000223BB808879CA7900EB0223FB80087A8C
:1003C00038724A7A887A02EB00237B81C87A0A7BEA
:1003D00000EB0223BB81487B8A7B00EB0223FB817D
:1003E000C87B0A7C00EB02233B82487C8A7C00EBC2
:1003F00002237B82C87C0A7D00EB0223BB82487DFE
:10040000897D00EB0122BA48FA8201788A0658BF3A
:100410004FF01A0913D504F5AA7004907989039155
:10042000387A029021890191F8880090BB887A88F7
:100430003988204691F094FCC8B14FF01E09707ABB
:10044000410706D40F2084F81901204691F094FA50
:10045000F3E04A460F21204691F0B2FCF888009064
:10046000BB887A88A179484601F08CFDECE004F164
:10047000860079888180BA88C2800222F988018149
:100480000270A0F80290A18EC91DE983628E818856
:10049000B1EB520F02BFC188A28E914202BF008908
:1004A000E18EB0EB111F1CD0287C012804BF687CB2
:1004B0000F2809D0687D00281CBF687C1A2803D04B
:1004C0000F21A976FE2179E0FC21204691F00CFC59
:1004D000F8880090BB887A883988A07991F0A4FCCC
:1004E000B2E010216AE0707AC20709D431781A208C
:1004F0000129707002D1FF220D213BE00D215DE04A
:1005000085F8009085F8069001233371082204F1E4
:10051000B00091F0F9F90146022204F1B80091F01F
:10052000F3F904F1A80801460822404691F0ECF9DD
:1005300007460821404691F08BF904F19C080422FB
:100540003946404691F0E0F90421404691F080F9A7
:1005500004F1A00091F000FA04F1980091F068FA1B
:100560006448018841F0800101803078012805D17C
:10057000FF220421204691F07FFB65E06E7C0F2E68
:1005800018BF142E07D00E2E18BF0C2E03D01A2E13
:1005900018BF162E11D12F7C204691F025FC042186
:1005A000204691F0A1FB012F05D11A2EAE7614BF83
:1005B000FD21FB2102E0314600E00421204691F0BC
:1005C00093FB41E00E783E761A2E497879766DD10C
:1005D0001868A679411C564301F806901968A3795A
:1005E00012FB03F20A4482F80490A179787E56E067
:1005F000A77918680E785743074406F01F0117F8CB
:10060000210FB60938B17878F040C00703D594F8C7
:100610009601042805D120221A21204691F0D0FB12
:1006200012E0F970A179186812FB01F281182046D6
:1006300081F82360002121F054FE28B998F80000C9
:100640004FF480410BF0AAFA4FF0010932E0A17992
:10065000186851430144C88808B981F80190A1790C
:10066000186812FB01F2811881F80490ECE7097810
:100670000F2917D01A2919D1A179186851430144BB
:100680001A2081F80190A1791B6812FB01F29918D8
:1006900081F80490F17A01F0FB01F172A17921F067
:1006A00024FED1E7717A01F0FD0171720146204606
:1006B00091F03AFB687C1A2812D1A87C17281CBF3D
:1006C0001028FC280CD12E7C204691F08DFB012EA9
:1006D00003BF1A20A876FB211A21204691F004FBC3
:1006E000484605B0BDE8F083C70F0020742A0020FB
:1006F000200E00209C0F00202DE9F8430F462849CA
:100700008046087820B1DFF89C9099F8000008B185
:10071000122040E0032FA8BF18203CDA00214046F9
:1007200091F0AEF8040008BF342034D0002537B172
:10073000022F08D00AD2A16DD1F8055006E0A06DB5
:10074000D0F8055015B9E06DD0F80550214628467F
:1007500091F086FB01001ED1207A002600B101260F
:1007600017B128460BF008FE76B1606D007891F065
:1007700097FB90B90C48626D0168107801EBC000DE
:10078000017941F0040101710220084989F8000053
:1007900081F800800020BDE8F2831E20FBE700BF47
:1007A000A70F0020A60F0020B00E0020640200203A
:1007B0002DE9F0410E46354905460878174698461A
:1007C00008B912205FE00021284691F059F8040092
:1007D00008BF342057D0300002D0012E08D01BE0D3
:1007E000606D417801F01201022926D0A06D04E06D
:1007F000606D4178880720D5E06D03214170A0F835
:1008000003703100C0F8058002D121F043FD01E002
:1008100021F042FD072801D1182034E068B91C4FAF
:100820003868011D11F83520500711D5206E0121BF
:100830000170206E21F032FD08B11E2023E03868DF
:10084000011D001D11F8352002F0FB0200F83520D3
:10085000396801EBC5000179CA0704D5320008BF29
:1008600001F0FE0105D08A0704D5012E02D101F066
:10087000FD0101710749087820B100220A70FF20AC
:10088000054908700020BDE8F08100BFA70F0020D7
:10089000B00E0020A60F0020640200201CB5012429
:1008A0000246032A084613D0832A08D042F21901CF
:1008B0008A4214D04FF6FF718A420CD014E042896C
:1008C00000920389C2888188C07800F031F80CE07A
:1008D00091F0DAF809E091F0FBF8044605E0807841
:1008E00018B191F099F800E00024204616BD0000F0
:1008F00038B505460F2D0C4616DA4FF6FF729142B9
:1009000012D0022806D13C2014FB00F080B290F0F7
:10091000A3FF04E00E2804BFE0B201F011FA03487F
:1009200020F81540002032BD022032BDCC0100204D
:10093000F8B504460D4616461F460C200AF0C6FFC1
:10094000010010D00698D0220A704881182306486A
:100950004C708B70CC708D80CE800F81BDE8F440E0
:1009600000780BF077B8F1BD2D1C00201CB50124D8
:100970000246032A08460ED0832A13D042F21301FE
:100980008A4204D04FF6FF718A4207D013E0807884
:1009900000F014F810E000F019F80DE090F048FFB6
:1009A000044609E0418900910389C2888188C078A2
:1009B000FFF7BEFF00E00024204616BD0C281CBF38
:1009C00011281A2801D191F093B870477CB50446DC
:1009D0000121E078134E1A284FF6FF7506D1A08842
:1009E0003288904205D191F083F80146E0781A28C8
:1009F00008D1A0883288904218BFE07808D108005A
:100A00000FD006E0302801BFA28833889A42358093
:100A100039B13580618900912389E288A18891F0FC
:100A200017F873BD580200201CB5114C0346E0793D
:100A3000042818BF002B0A4616D01F2AA8BF1F2261
:100A40006946012090F0D0FF00B10078E17988423A
:100A50000AD0012918BF032902D110F0030F03D1D6
:100A6000022903D1C00701D5012016BD002016BD03
:100A70002002002070B5002408380528264D4AD8E9
:100A8000DFE800F00F150306090C4FF4001039E001
:100A90004FF4801036E04FF4002033E04FF4802014
:100AA00030E02868C10336D54FF480302AE01B4C73
:100AB000206880B31A49086808B190F0EDFE022062
:100AC00090F062FF2068174E0BF056FC30680BF078
:100AD00053FC0020206030602A6890031BD5124927
:100AE00008780BF039FC040008D01049104B0A7844
:100AF00022704FF40030597A617003E091F014F8DD
:100B00004FF000400B490B682BB10B490A68214696
:100B1000BDE87040184770BD10020020D40E0020C0
:100B2000D00E0020D80E00206C020020AD0F002057
:100B300020020020E40E0020E00E002010B5024646
:100B400001241078912804D0A2281CD0D02821D0CC
:100B500030E0517805290AD00E2904D00F290AD097
:100B60003E290CD026E0104600F0D0F810E01046E8
:100B700091F08AF81FE0104600F012F908E01046E4
:100B800000F01CF804E050884FF6FF7191F044F833
:100B9000044610E09078122802D0132805D00AE00D
:100BA0005178506891F010F905E05168D07890F0D4
:100BB000BBFE00E00024204610BD000038B504460E
:100BC00086B0A07801250146012918D003292CD030
:100BD000062939D00A2912D00E291CBF0F29102945
:100BE00000F08980152918BF162979D017297DD0E2
:100BF000812975D0832918D0842974D080E02146BA
:100C000090F056FF6846214616228FF04FFBBDF844
:100C1000040090F095FF040073D0002090F0B8FE1F
:100C20000146608801F02CFA6BE0A088224690F023
:100C3000F3FF0546E078002863D123896289E188C3
:100C4000A08891F025F95CE0A0880122402190F075
:100C500033FF002090F044FEC0B2022821D11020C2
:100C60000AF034FEB8B1D02101701121E27842704F
:100C70008170A2888280E188C18022890281618995
:100C800041810021A2898173828101461E4800783A
:100C90000AF0E0FE35E0A0880022402190F00CFF31
:100CA0002FE0A188ADF80010012803D10021ADF894
:100CB0000A1011E080B9E088ADF802000021208917
:100CC000ADF804006089ADF80600A089ADF8080011
:100CD0008DF80A108DF80B50684690F0E5FD10E095
:100CE0002246182104E022461C2101E0224606216A
:100CF00021F0F4FA02E0204621F029FB054600E04D
:100D00000025284607B030BD2D1C002010B5838873
:100D1000012442F20202991A1CD0891F012937D9F5
:100D2000891F1BD0193902291DD9891F1BD01139E0
:100D3000022921D9C91F052921D90C39062921D910
:100D4000C91F14D0491E1AD04DF61E42891A012916
:100D50001ED921E0806890F0BFFF1BE090F0FCFE00
:100D600090F0CEFE19E081680878B0B114E0826896
:100D7000052142F2580008E021F0DBFA0AE021F0F8
:100D8000E2FA07E082680321184621F0A7FA01E0A1
:100D900021F0E0FA044600E00024204610BD0000E7
:100DA00070B58388012142F213041A1B04D0921FEC
:100DB00012D02B3A1BD01EE0104D2E884FF6FF723A
:100DC000964209D00E4B1A68002A1CBF1268002AEE
:100DD00012D00146204608E00A4A1268002A1CBFC9
:100DE0001268002A08D001461846904701E021F019
:100DF000ACFA014600E00021084670BD5802002010
:100E0000C40E0020C00E0020F8B50C461546002682
:100E100020B1012810D0042814D01DE0162C19DAB6
:100E20000F4F1622002138460AF01BFD22462946A4
:100E300038460AF0E4FC10E0022C0BD1288809495E
:100E400008800AE0082C05D10748294608228FF0BF
:100E50002DFA02E0182600E002263046F2BD00BF5F
:100E6000DC280020F4280020541A002080B500213E
:100E7000C00706D5044B054810220B2100F0DEFA0E
:100E80000146084602BD00BFFC1F0900601A002091
:100E90002DE9F8430D4600272878022814461E46FF
:100EA00063D168680178DDF82080407801EB00208C
:100EB0005FEA080280B204D0B0F5285F0ED00B20A4
:100EC00056E04FF42851401A08D0401E24D0C01ECE
:100ED0002AD0A23843D0233841D046E0DDF8249010
:100EE000E8680AF08AFC80B2A0EB08024A45BCBF61
:100EF000A0EB08001FFA80F909EB0800162809DAB0
:100F0000A6F800904A46E86800EB080120460AF07F
:100F100076FC2CE00D272AE0E86800880221318069
:100F20002070000A607022E0E868B0B108213180CA
:100F30000288227003881B0A63704188A17042886E
:100F4000120AE270818821718288120A6271C18856
:100F5000A171C088000AE07109E0308007E001213A
:100F60003180E8680278227001E037800127384636
:100F7000BDE8F2832DE9F0470F4681463878002618
:100F8000022890461D4652D17868089C0178407826
:100F9000DFF8A4A001EB002292B24FF42853D21A3A
:100FA00006D0521E27D0A53A3FD0233A3DD03EE08E
:100FB000F8680AF022FC80B2A0421AD361191629FF
:100FC0001CDAFB682A46414618190AF018FC2D194C
:100FD000F868ADB2C5F11602002140190AF041FCD3
:100FE000DAF8000000281CBF0268002A20D0002187
:100FF00018E007261CE01CB9022D03D00D2617E0CF
:101000000B2615E098F8000098F8011000EB01227B
:10101000F8680280DAF8000000281CBF0268002A85
:1010200006D001214846904702E0032600E0012651
:101030003046BDE8F08700BFD82800202DE9F843EE
:10104000092986B0064617463FD196F824203988EC
:101050007888521C491E86F824204143786889B25A
:10106000425C08444178307B02EB01240128A4B2A1
:1010700039D139887888002548431FFA80F93D80A6
:10108000A846C8452FDA7888D7F804C0B17C431F3A
:10109000C4449BB20CF1050206F1130090F068FE07
:1010A00070B1A84506D078687A8800EB080140192D
:1010B0000AF0A5FB788839884519491CADB23980FA
:1010C000788840445FFA80F8DBE738790A2818BF4F
:1010D000062802D196F8240090BB96F82400401C04
:1010E00086F824007C884FF6FF70844218BF002CDD
:1010F00026D0308A844223DA307B641C0128F481B4
:1011000012D1ADF800400222318AADF802108DF8FC
:101110000420032128228DF805108DF80620694649
:10112000308890F01DFD04E0308806F10E0190F04B
:1011300017FD307A47F230510BF028F8162000E006
:10114000002007B0BDE8F08370B50D460446287A4C
:101150004107164604D5304690F0FAFC012205E01E
:10116000410609D5304690F0F3FC002201462046A6
:10117000BDE8704090F0CCBCC10617D5304690F069
:10118000E7FC01460122204690F0C2FC60B93046DF
:1011900090F0A2FB030005D029462046BDE8704030
:1011A0000A2218470E2070BD082070BDC00701D468
:1011B000022070BD002070BDF8B50E460546307A9D
:1011C000810617461C461DD5384690F0C1FC0146E5
:1011D0000122284690F09CFC30B1607A10B1207A50
:1011E000012801D00820F2BD384690F075FB0300BD
:1011F00006D03146284601B0BDE8F040122218471B
:101200000E20F2BD010609D5384690F0A1FC01463A
:101210002846BDE8F840002290F07ABC01070FD5BF
:10122000384690F095FC01460122284690F070FC6B
:10123000010009D0617A41B1217A012904D0F2BDBF
:10124000800701D40320F2BD0020F2BD1CB5044686
:1012500008466946008890F013FD010001D1012085
:1012600016BDBDF800202046FFF76EFF16BD7CB509
:1012700006460D46002409E0BDF800200146304630
:10128000FFF762FF01001DD1641CA4B2A88884424C
:1012900022DA286810F81420401C694610F814302F
:1012A00002EB032290B290F0EBFC0028E4D1286816
:1012B00010F8141001702868421C12F814104170C4
:1012C000012076BD296811F814200A7029684B1C8A
:1012D00013F814204A7076BD002076BD38B5044658
:1012E0000D466946288890F0CBFC08B9012032BD34
:1012F000BDF8002001462B462046FFF75DFF32BDBA
:101300007CB504460D4690F0B7FD06000AD101A851
:1013100021460090ADF804507F23034C2078002232
:1013200090F06AFD304676BD7202002001490870D7
:10133000704700BF730200202DE9F0411F4C204F81
:10134000204D214E2070214801703A702878C0004D
:101350000BF002F8306070B338784FF6FF7878B948
:10136000287880000AF0F8FF1949086020B9306831
:10137000BDE8F0410BF000B80146404620F002FC09
:101380003168002006E021F8308001EBC003002224
:101390005A60401C2A789042F5DB052090F01CFC36
:1013A000207890F001FB0B4890F052FD2078BDE8CA
:1013B000F04190F089BBBDE8F08100BFB40F002080
:1013C000101B0020C10F0020000F0020F728002074
:1013D00018290020011C000038B50D46290427D526
:1013E000144A10780AF052FB04001ED02078A2287C
:1013F0000BD0B02816D1204690F04EFD90B1217947
:1014000004F1080090F0D0FB0CE06079652808BF7B
:1014100090F0A2FC08480078FF2803D021460AF08B
:1014200019FB10B120460AF063FA85F4004032BD82
:10143000002032BDB40F0020760200203EB504002B
:101440001D460FD0ADF800108DF8022001946846BB
:1014500090F0F6F9010006D12DB16089294690F08F
:101460006BFB3EBD02203EBD80B50021C2070ED5FC
:101470000849087820B9084B08481022042103E0E5
:101480000023102201210648FFF7D8FF0146084635
:1014900002BD00BF101B002010200900141B0020FB
:1014A000541B002038B504460D4D90F051FA2880A9
:1014B0002946608890F018FB38B120892988884235
:1014C00028BF08462880162032BD218928888142FD
:1014D00028BF01466088FFF713FF002032BD00BF20
:1014E000380C00202DE9F44F054686B068888B46FD
:1014F00090F006FC4549841E0878A4B288B144499E
:101500008D4204D02022294641480AF078F9414E04
:101510000594414FDFF8F480DFF80091DFF800A177
:1015200017E005F10806F3E7BBF1000F49D1638925
:10153000BAF80020D9F80010688890F0D5F9002892
:1015400083463ED130884FF6FF71884239D0401C27
:10155000308005983989801E884232DBBBF1000F4C
:101560002FD104A80090337971883088721D90F0D3
:10157000C7F9040025D0608930802146BDF81020CD
:101580006888FFF7E1FD8346D8B928790599D9F82D
:10159000003003908A1E92B2002002920190CDF892
:1015A00000A0BDF810206888214600F0A7F9834606
:1015B00098F800000028B7D0BBF1160FB4D1002076
:1015C00021E039895846C1B17A8891FBF2F139801E
:1015D00098F8000050B10E4C217904F1080090F009
:1015E000E3FA2022002120460AF03BF968883946B8
:1015F00090F022FA38B1162005E0328801000699F1
:1016000008BF0A200A8007B0BDE8F08FF728002045
:10161000F828002000290020380C0020080F0020A6
:10162000840F00202DE9F84F074686B07888574D83
:10163000DFF85CB1884690F063FB064604A8009092
:101640003B7B7989388907F10D0290F059F9002424
:101650008246059649E06968FF208855A3B268680C
:10166000FF22C25434E0A0B2002877D1788800234A
:101670004FF6FF72112190F0D3F90028686067D00F
:10168000BBF80000001D6880641C6968BAF80A0095
:101690008855A2B2BAF80A006968000A8854BDF8F1
:1016A000102079890DF11203504690F035FB661C2D
:1016B0008246741CBAF1000FB6B2CCD06968BDF88E
:1016C00012008855A2B2BDF812006968000A885459
:1016D000641C30486B680168BBF80020A6B29819FA
:1016E0000AF08DF8BBF800000419BAF1000FA6B299
:1016F00022D0BDF8102078885146FFF725FD81469D
:10170000A0B938790599234B1B6803908A1F92B2C0
:10171000002002920190CDF800B0BDF8102078882A
:10172000514600F0EBF8002881469CD0BAF80A1028
:10173000A8F80010484600E00020A4B2CCB901008F
:101740003989A8F8001008BF0A2007B0BDE8F08F5B
:10175000BAF80A00A8F800001120F6E7BBF800006C
:101760006988021D914204D10599891F801981421F
:101770008ADA688896FBF0F028802946788890F00D
:1017800043F9002818BF1620DFE700BF380C0020FF
:10179000840F0020080F00203EB54D681821144624
:1017A00001916A880092AB88AA682988408800F075
:1017B000A7F9162802D10021A9603EBD01001CBF77
:1017C000298821803EBD00002DE9FC4105460E46DA
:1017D0009046002000270DE0019060880090A388CB
:1017E000A268688800F08CF9162817D10021A16042
:1017F0007F1CFFB20D490A78974214DA71680C23F6
:1018000013FB07F30B441C46218861B1781C9042FE
:101810001BBF9889002818201620DDE70028E7D094
:101820002188A8F80010BDE8F68100BFB50F0020A0
:1018300070B505460C4690F007F9010006D14FF649
:10184000FF7090F001F9010017D00D80002200E038
:10185000521C0B4B1D78D0B2A8420ED24B68D6B2A8
:101860000C256E43334418880028F1D10C22214600
:10187000184609F0C4FF002070BD092070BD00BFEC
:10188000B50F0020F8B5054600260F4C0BE0B868F0
:1018900008B10AF0C1FB0C220021384609F0E1FF33
:1018A00000203880761C2178F0B2884207D26A681E
:1018B000F3B20C214B43D71838880028E7D14FF6F4
:1018C000FF712980F1BD00BFB50F00207CB50C78F9
:1018D000022C11D14C682578647805EB042642F679
:1018E0000215B6B2AE4207D1BDF8185000950224D9
:1018F000019420F0F0F976BD012076BD2DE9FE4F70
:101900000D468246287AC10693461E464FF00009CE
:101910000CD558468FF0E0FF030000F0EA800A2261
:101920002946504698475FEA00094DD128780C9F18
:101930000D9CDDF8388002281AD16868017840785B
:1019400001EB002292B24FF42053D21A012A10D98F
:10195000921E3AD0521E14D0FD3A7BD0521E00F097
:101960008280521E6ED0521E74D0521E00F096809D
:10197000ACE0002C2AD1E86801783980027841680F
:1019800088E0002C22D101203880E9680A78327082
:1019900000216889401C80B290F072F9398860B1EA
:1019A0000278921C51183980418971704289120A5B
:1019B000B27041680278F01C6DE0091D3980042284
:1019C0000021701C09F04DFF95E0002C67D1E868FC
:1019D0000488042139803470220A72700DF10201EA
:1019E000204690F04DF95FEA000821D0D8F80C406D
:1019F000BDF802204FF6FF756B46294690F08CF932
:101A000050B998F80030D8F804203C48022190F0F2
:101A1000AFF908B9ADF80050207802280AD1616802
:101A20000222301D09F0EBFE3888801C388001E06E
:101A3000ADF80040BDF80000B070BDF80010090A14
:101A4000F17058E0002C2AD1E8680168504620F077
:101A50002BF902E01CBBE868008802213980307055
:101A6000000A707047E0E86809F0C7FE82B2A2423F
:101A7000B8BF4FF007093EDB944208BF002205D0F3
:101A800008EB04019142B4BF4246121B3A8092B265
:101A9000E8680119304609F0B2FE2CE014B14FF0AD
:101AA0000B0928E0E8680721398002783270437812
:101AB00073704188B1704288120AF27001793171F5
:101AC000C2887271C088000AB07114E0584690F064
:101AD0004BF95FEA00090CD09DF83C000290CDF86C
:101AE000048000943B46324629465046C84781460A
:101AF00001E04FF00E094846BDE8FE8F81700900F5
:101B00002DE9FE438146884617461E4602A94046F7
:101B100090F0B6F804002CD0BDF8080090F084F8DE
:101B2000844620B3BDF828100B9D009133460195E3
:101B30003A4621464846E0470646D8B9FE2D19D018
:101B40002078022816D160680178407801EB0022E5
:101B500042F6021192B28A420CD13878797800EBC1
:101B6000012292B24146484600F096F802E00E2665
:101B700000E001263046BDE8FE831FB58DF8082041
:101B8000FE23120A8DF809200193002400940223F9
:101B900002AAFFF7B5FF04B010BD000038B5084A2F
:101BA0000D461168044620F07FF8800705D52946C8
:101BB0002046BDE834408FF01BBF012032BD00BF7E
:101BC000182900207CB505464FF6FF7601AC00943D
:101BD00002230A4A314601208FF092FE0BE0E068B2
:101BE000016828461FF0CEFFBDF8042000233146CF
:101BF000204690F091F80400F1D173BD7170090096
:101C000038B50129044606D002293CD1012190F0C3
:101C100023F9002837D120468FF016FF08B1FFF7CF
:101C200031FE2046FFF7CEFF1749087898B1174DCF
:101C30006888A0420FD129791548491CC9B28FF094
:101C4000B3FF297905F108008FF0AEFF20220021B3
:101C5000284609F006FE0F4D28460AF061FB10E009
:101C6000208958B1214628460AF069FBA17A04F17F
:101C70000C008FF099FF20460AF07EFB20460AF008
:101C800051FB0400ECD131BDF7280020F8280020DA
:101C9000380C0020180E0020F8B50D4C0E462178A7
:101CA000FF290546174611D00A2009F00FFE68B13A
:101CB000B12101700022427002714580C680078107
:101CC00001462078BDE8F44009F0C4BEF1BD00BF74
:101CD0007302002038B51C460A4B1D78012D01D136
:101CE0003A2032BD130018BF002C02D010F47F4FF1
:101CF00001D0122032BD0B46214601B0BDE8304074
:101D000000F018BFB60F00200B4980B509888DF888
:101D1000011000208DF80000090A8DF802106A46B3
:101D2000064801788DF8031042F2020004218FF07A
:101D300053FE002002BD00BF382A0020C60F00203D
:101D400080B501F0BFF98DF800006A4601214FF619
:101D500074408FF041FE002002BD70B54A1ED2B221
:101D6000002305E0D51AC45C465DC65444555B1C8F
:101D7000B3EB510FF6DB70BD2DE9F843054624485F
:101D80000E46017801291746984608D12148018856
:101D9000491E018089B211B901208FF065FEDFF87C
:101DA000789099F80000FF2478B10C2009F08EFD9E
:101DB00048B3902101700222447045800271C780AF
:101DC0008660014699F8000019E0082009F07EFDC0
:101DD000C8B1012101704470711F416002220A7074
:101DE00041684D702D0A416845EA08158D704268BA
:101DF000D7703F0A41680F71014608480078BDE876
:101E0000F44309F027BE3046BDE8F2430AF004B9B6
:101E1000B70F0020860F00201F2900201C2900205A
:101E2000F1B5234F0D4639781646A9B10C2009F0BB
:101E30004DFD04003AD0912020703E218222617035
:101E4000A2700522BDF80000A080A6712946E01D01
:101E500009F0D5FC387826E0142009F037FD04009D
:101E600024D001202070FF2104F10802617062601B
:101E7000042010703E226068427009216068817001
:101E800082216068C170022260686946001D09F005
:101E9000B6FC60688671052260682946C01D09F09D
:101EA000AEFC04480078214609F0D4FDF1BD00BF26
:101EB0001E2900201C2900202DE9F04104462D4850
:101EC0000D46C179880616461F4650D52A494878DE
:101ED00001074CD5200004D057EA060004BF0126B4
:101EE0000127DFF8988098F80010C1B1082009F0A8
:101EF000EDFC00283BD0912101703E220C23042EE2
:101F000008BF0326042F08BF032742708370C470E4
:101F100085808671C771014698F8000023E0112082
:101F200009F0D4FC18B301210170FF22427000F1C6
:101F30000801416004220A703E234B7006228A7019
:101F40004D710C22CA702D0A0C718D71CA1D511C65
:101F5000042E08BF0326042F167008BF03270F7036
:101F6000014607480078BDE8F04109F073BDBDE8BF
:101F7000F08100BF280E0020200E00201E29002026
:101F80001C2900202DE9F041044611480D46017836
:101F90001646CA07984619D50E4F3978B1B10C20AC
:101FA00009F094FC90B10699912202703E2343708F
:101FB000832282704181C4708580C680A0F8088029
:101FC00001463878BDE8F04109F044BDBDE8F08134
:101FD000212900201E29002080B50B490B4A0870DA
:101FE00000200B49107008700A4A0B4910700870E5
:101FF0008FF0EAFC09490A4B7F20887000220948CB
:1020000002701A7001BD00BF1C2900201D2900208C
:102010001E2900201F29002020290020200E00203A
:1020200021290020B60F002038B50D46290411D50E
:10203000094A107809F02AFD040009D02078032805
:1020400012BF0128E06809F0E7FF204609F050FCC4
:1020500085F40045284632BD1C290020014908703E
:10206000704700BF1E29002001490870704700BF5B
:102070001F29002001490870704700BF2029002057
:10208000F8B50C4F054638680E46062440B90A4993
:10209000087810FB04F080B20AF05EF9386040B1B5
:1020A0003868654331462844BDE8F840062209F007
:1020B000A6BBF1BD24290020C10F002004490968F6
:1020C00009B900207047062250430844704700BFFA
:1020D0002429002078B587B00F9C250013D0BDF8C7
:1020E000485006950394BDF840509DF8384004953B
:1020F0000294BDF844600D9D0C9C059601950094DA
:102100008FF0C6FB00E0312008B070BDF8B50025A7
:1021100000260C4C11E00C480168342212FB06F238
:1021200088180379DF0706D506220021801D09F0F3
:102130003EFF00B96D1C761CF6B220788642EADBC1
:10214000E8B2F2BDC10F0020180F00202DE9F043C6
:10215000A24CA349A34E20700A22002008600D2340
:10216000A1484FF4097102704380818085B09F4A75
:102170009F48106037789F480770FF2F7178417033
:1021800008BFFF29B2788270F378C3703579057182
:102190007679467114D1FF2A08BFFF2B10D1FF2D8D
:1021A00008BFFF2E0CD194490A7802704B78437017
:1021B0008A788270CB78C3700A790271497941714B
:1021C0008E4902788E4D8F4E8F4F0A7043784B7038
:1021D00082788A70C378CB7002790A7140798B4A11
:1021E0004871FF2028706870A870E87028716871C5
:1021F000002087490880F06B86494078087086493E
:10220000F06B007808701388844885490380F06B70
:10221000C06C08608349F06B90F83C0008708249FC
:10222000F06B90F83D0008708049F06B90F860000A
:102230000870F06B406901797D484A1E0270F06BAE
:102240007C49C0783870F06B8069086008B909F083
:1022500067FAF06B7849C069086008B909F060FA5C
:10226000F06B416D75480C2209F0C9FA8FF02CFD16
:10227000F06B7349006A086008B909F051FAF06B15
:10228000DFF8C081406AC8F8000008B909F048FAD0
:10229000F06B6D49806A086008B909F041FAF06B8B
:1022A0006A49C06D002840D001220A75F06BC06DEC
:1022B00002681378C3F3400048B1F06BC06D026848
:1022C0001378C3F3C00000280CBF0120022048751A
:1022D00000208860C8600861F06BC06D426890782B
:1022E0000870F06BC06D4268D0784870F06BC06DBC
:1022F000426813788B70F06BC06D42685078C8707C
:10230000F06BC06D426810790871F06BC06D426867
:1023100050794871F06BC06D426890798871F06BAC
:10232000C06D4268D079C87101E000220A7503F0DF
:10233000A1FC07280AD103F0E7FD20784FF4804183
:1023400009F02CFC002009F0EBF943E0404801685B
:10235000884781468DF07AFAD8F8000001688847EE
:10236000684687F0B5FDD8F8002004208DF80000FD
:10237000694652F8043F002098473649086003F048
:1023800097FFF068344A01883878344B0143118054
:102390004846196888470C21314803F012FF284647
:1023A0008FF07AFB8FF074FB2E4800214FF6FF72FE
:1023B00001608280F06B90F858102B48006803F0A1
:1023C0004DFA0121FF201FF095FF20784FF40051B6
:1023D00009F0E4FB05B0BDE8F08300BFC70F0020A3
:1023E000380F0020D04F0050700E00203C0F00200E
:1023F000B63F0050400E0020E8120050500E002062
:10240000480E002088200900C40F0020D01B0020A7
:102410009E0F0020C60F0020D40F0020382A002075
:10242000582A0020F82A0020F92A0020512A0020EA
:10243000CB0F0020200F0020240F00203C2A00207A
:10244000280F00202C0F0020300F0020E02A002051
:10245000702200204C2A0020A00F002074220020AF
:10246000FC0D0020800E0020042B002070477047D8
:102470002DE9F04F0F46380589B018D5DFF8E45341
:102480002888FF280ED0C0B203F0E2FB040009D078
:10249000A07916218FF0CCFC204603F065F8204689
:1024A0008FF01EFBFF20288087F40060D6E1F8053E
:1024B00004D51FF045FF87F48070CFE1B80604D53E
:1024C0001FF004FF87F02000C8E1F8070CD505F0E5
:1024D00005FE30B100218160DFF88C03006800B197
:1024E000804787F00100B9E1380704D51FF0F0FEFE
:1024F00087F00800B2E1F8060FD500210022002382
:102500000691059204910393029101920091022099
:102510008FF08AF987F01000A0E1B8070FD50021ED
:10252000002306910591049103930291019100917A
:1025300001223C208FF078F987F002008EE17907C4
:102540004FF01E08C94EDFF828A340F1CD80C948DE
:10255000002200210892079100788FF091F904463B
:10256000C5488178FF2904BF002009F0D9F8A07A76
:1025700003F06EFB05469AF8000095F82E910028AE
:1025800005F5947B69D0606D807A022818BF032816
:1025900007D130680D308FF0EFFA10B93068C11DE7
:1025A0000791594648468FF0C7FBA0B3606D807C09
:1025B0003368002818BF012804D1194658468FF007
:1025C000E7FA04E05A46494618468FF07DF9FF289D
:1025D00043D018FB00F83068404406225946C01D1D
:1025E00009F00DF9306810F80810404400F1010BB3
:1025F000C01D41F0020908900622616DC87A00F002
:10260000010085F82E01606D00F10C0105F5947054
:1026100009F0F5F821E0594648468FF00DF9E0B190
:1026200030685A4649468FF04FF9FF2815D018FBFD
:1026300000F8306840440D308FF09EFA58B9306889
:1026400040440D308FF098FA002801BF30684044B4
:10265000417F012901D149F0020905F12C004B46C7
:10266000017806914289120905920122698C049130
:10267000C0880899029140080390CDF800B00798EF
:1026800001900020A9798FF0CFF8D5F89C017B4903
:102690008842A8790CBF002101218FF0FDFA78480B
:1026A000AB7902682C214B43134401221A73AB7996
:1026B00004684B4323445A73AB7904684B43234467
:1026C0009A73AB7904684B432344DA73AB7900689F
:1026D00011FB03F10144002008740720A9791FF0C1
:1026E00005FE87F00400B9E038060FD5002100236D
:1026F00006910591049103930291019100910122A9
:102700003B208FF091F887F08000A7E0F8045DD5BA
:102710005C4930680C680D308FF02EFA002844D1E7
:102720003068C11D0D308FF00FFA3EE0606D4178CA
:10273000480704F13E0526D5287802281EBF032845
:102740006878012830D16978306804F138028FF058
:10275000BBF88146B9F1FF0F15D0306818FB09F9B5
:1027600048440D308FF008FA68B930684844C11DFC
:102770000D308FF0E9F930684844C11D062204F19C
:10278000380009F03CF82878022818BF03280BD13C
:1027900030680D308FF0F0F930B93068C11D062275
:1027A00004F1300009F02BF82468002CBED1364823
:1027B000DAF8042000784FF4805109F0B5FE10B12A
:1027C0008E208FF099F887F4805047E0B80505D542
:1027D0008BF002FD2D4901200860FEE7780504D545
:1027E00009F00AF887F4806038E0780405D5812084
:1027F0008FF082F887F4804030E0B9042DD5244C66
:10280000206810B1002008F08BFF4FF0FF302060EF
:102810000020204C02F02EFA216851F8202F684643
:1028200090471D494A6B086BC96A24681B4B01928B
:1028300000900293ADF810106B46194A19491A48D6
:1028400003921A4A07922568194AA847194908604D
:1028500000F032F887F4005000E0002009B0BDE835
:10286000F08F00BF661B0020480F0020680F00207B
:10287000880E0020D70F0020780E00204DE50110B3
:10288000742A00204C0F0020C70F00207C05204335
:10289000380F0020200F00206C1B0020BD640000BA
:1028A000CD64000028290020382900201EFB00806C
:1028B000EC0A00201C0F0020F8B5564C564B25683A
:1028C000186855F8183F00224FF0FF31984705F07F
:1028D0008BFE5249524AC86B406941795148117088
:1028E000002301680B8000244B800C710068437149
:1028F000002002F0BFF902F0F9F94B4800688FF0B0
:1029000017F98FF09DFA4948006800B104734848F0
:10291000006800B1C4720026464C474D12E0606862
:10292000F1B24FF4D072514342185379012B08D1C0
:10293000F0B203F08DF9074602F016FE38468FF02C
:10294000CFF8761C2978F0B28842E8D38FF08CFA61
:102950003A483B4A0178117004F032FE1FF0D7FC70
:102960003848394A8078C1074CBF07210521FF2428
:1029700000074CBFFF20FB200140344801700021BC
:10298000334811700023334A03700121324811701B
:102990000370324A324811700370324A3248334968
:1029A00013700370324A334813801B2303804FF4A3
:1029B000A470314A314B088010804FF42960304AAE
:1029C0001880FB212F4B1180198044F290202E4952
:1029D0002E4A088010808FF013FA8FF065FA1FF0EE
:1029E000A7FC1FF0B6FC1FF07EFC2949294A0020F5
:1029F00008701F212848047044708470C4700171ED
:102A00002648047044708470C470017125201070D1
:102A10000020F2BD200F00201C0F0020882009009C
:102A2000CA0F0020400F00206C0F0020500F002024
:102A3000540F0020780E0020D40F0020C60F002075
:102A4000D30F0020C00C0020CC0F0020C50F0020A9
:102A5000CD0F0020CE0F0020CF0F0020D00F002080
:102A6000D10F0020D20F00205C2A00208C0F002004
:102A70009C0F00208A0F00208E0F0020900F002056
:102A8000920F0020960F0020940F0020980F002036
:102A9000C80F0020702A0020602A0020682A002029
:102AA00010B5040004BF002008F03AFE1C49087865
:102AB000052815D11B480168887A012818BF03280A
:102AC0002BD019482178017062784270A17881700A
:102AD000E278C2702179017162794271002010BDE3
:102AE000062807D111480168887A012815D00328E3
:102AF000E7D112E01128E4D10D4800680028E0D0A9
:102B0000017A0129F9D1416D4A78D106F5D590F8BD
:102B10003E10012918BF0329EFD10C2010BD00BFC2
:102B2000C80F0020500F0020480E0020540F002036
:102B30004C0F00202DE9FC410C0005461646984636
:102B400005D05FEA080018BFB8F1010F01D01220CC
:102B500045E024480188914204D28A208EF0CCFEC0
:102B600030203CE028468FF027F8010037D1E8B24A
:102B700003F06EF81C4F0546387820B901208EF01E
:102B80009FFE07202BE01948016888473A781849CA
:102B9000531E3B70D1F800C0E047B5F88E01B0423B
:102BA0000AD23246214628468EF032FF010016D165
:102BB000204609F031FA07E0102000904346F2B2B7
:102BC000214628468FF038F805F088FA2968007801
:102BD0000A78824204BF28468FF0D2F80020BDE870
:102BE000F68100BF382A0020D30F00207022002079
:102BF0007422002038B5264C2078092818BF0A28EE
:102C000001D0212032BD40F201408EF029FF207812
:102C100009280DD11F4A2048136801881F48998050
:102C200000788FF0A9F8002100208FF045F82BE004
:102C30000A2829D117481A4D02682B886988A88864
:102C4000CB18C31893806988D180A979802918BFCF
:102C500081290FBF7F21134B93F90000091A1172CC
:102C60001149087838B1002288680A7008B109F063
:102C700083FB1FF038FB288801218FF01DF800200E
:102C800001F0F8FF02F032F80020207032BD00BFE2
:102C9000C80F0020440F0020AC0E0020CA0F0020F7
:102CA000E40D0020C90F00209C2A00202DE9F843E4
:102CB00004460027002C894644D02C4D28788842B1
:102CC00040D3227912F0E00F3CD120468EF0ECFF89
:102CD000012837D12978DFF8988089454FF4D076DC
:102CE00007D04F46D8F80420FBB273431A445079FA
:102CF00040B3D8F80400F9B2714308444279012A7C
:102D000031D1F8B202F0A4FF00F177032A781979E3
:102D100011B11978012902D0597E012903D19145B9
:102D200007D03A200CE001680B78802B0CD091453D
:102D300008D12878F9B2814201D28145D9D000204A
:102D4000BDE8F2831220FBE70021625C4318491CB6
:102D5000052983F86120F8DB818EC91DA0F8921047
:102D600001218EF0C1FF7F1CE3E700BFD40F0020DC
:102D7000780E0020A0F11B0210B5E12A3EBFA1F59C
:102D8000A47244F249139A4207D20D4A148884422D
:102D900022BF0C4B1A888A4201D2122010BD0A4A67
:102DA00053789A0601D4112010BD084A084B094CEB
:102DB00010800948018019802180002010BD00BFCB
:102DC000920F0020940F0020C00C00208A0F0020DA
:102DD0008E0F0020900F00208C0F002070B504464D
:102DE00001208EF00DFE002500B101251B48016871
:102DF0000A7B012A0CBF0120002005431848016806
:102E0000CA7A012A0CBF01200020054301D00C2002
:102E100070BD144D144E28787CB1012C1BD1317833
:102E200049B972684FF4805109F07EFB08B1032064
:102E300070BD01203070002070BD31780029FAD0BB
:102E40004FF4805109F0B0FB28784FF4805108F01E
:102E50000BFF0020EEE7122070BD00BF500F0020D6
:102E6000540F0020C70F0020880E002010B501006D
:102E700003D04AF2B911884201DB302010BD0A4A62
:102E80004FF47A7148435060107801280AD1074CFA
:102E900020784FF4805109F087FB20784FF480515F
:102EA00008F07CFE002010BD880E0020C70F002017
:102EB00018B591B0412168468DF0F5F9684603F0E8
:102EC000CFF8044620210DF101008EF0C1FC202135
:102ED0000DF121008EF0BCFC002C0CBF00201F2047
:102EE0000DF121020DF101018EF0BAFE002012B0A9
:102EF00010BD10B5A2B0014640220DF101008DF0C9
:102F0000D5F904218DF800100DF1010020218EF07B
:102F10009FFC20210DF121008EF09AFC11A968463A
:102F200003F0ECF800280CBF00241F2420210DF131
:102F300045008EF08DFC0DF1450120468EF038FDE8
:102F4000002022B010BD70B50D00144618BF002C33
:102F5000064601D1122070BD002028702070304636
:102F60008EF02AFE01000FD1F0B202F071FE90F84F
:102F70009611042908BF0321297090F896010428AE
:102F800008BF03202070002070BD000083B24FF204
:102F9000FF52A3F20153934222BF8BB2A3F201531B
:102FA000934201D212207047094A13681880598051
:102FB0000A21B3F9000090FBF1F119711068B0F922
:102FC00002100A2291FBF2F242710020704700BF0A
:102FD000400F002008B9122070470D4A517809B1FE
:102FE0000C2070470B4902784A7042788A708378C7
:102FF000CB70C0780871D1074CBF0720052011079E
:103000004CBFFF21FB210840034908700020704796
:10301000780E0020C00C0020C50F00202DE9F041E3
:10302000064605F05BF8044630468EF0C5FD01000B
:1030300035D1F0B202F00CFE050014BF002C0220C6
:103040002DD01848184F016888478046207880287E
:1030500011BF402815498A78964214D140F20140A8
:103060008EF0FEFC05F2171001211622017042704D
:1030700021780F48402902D10E4A026001E00E4932
:103080000160012103E00D4806804FF400613878AB
:1030900008F084FD0A490A68404690470020BDE8D0
:1030A000F08100BF70220020C70F0020780E0020A2
:1030B000480F00200B23020009230200661B00209A
:1030C0007422002010F0070001D11E207047024931
:1030D00008700020704700BF681B002070B50C000E
:1030E00018BF002A064612D0507980B1907902F0BC
:1030F000B9FD05465EB9207802280AD11D4801684D
:1031000091F82400697B814201D203282FDB002043
:1031100070BD10280AD103201FF013F930B190F8C8
:10312000B100697B814201D2032820DB207804288A
:1031300003D111480168087E06E001280AD10F4832
:1031400001680A6892F8B800697B8142DFD20328DF
:10315000DDDA0CE00828DAD11FF0E8F80028D6D034
:1031600090F8C600697B8142D1D20328CFDA0120D2
:1031700070BD00BF500F0020540F0020B02A002067
:10318000F8B5044622480D4601780226052908D0E4
:10319000062912D0112914D012291BD0132905D0C9
:1031A0001DE01C4A106890F8246018E003201FF00E
:1031B000C8F8A0B190F8B16011E0174801680E7E20
:1031C0000DE01648007800218EF05AFB38B190F8D7
:1031D000B86004E01FF0AAF808B190F8C660104F7C
:1031E0003868214604F0DCF908B9AE420ED20D4829
:1031F00001688847012204463A7140F201408EF08E
:103200002FFC09490A68204690470120F2BD00BF03
:10321000C80F0020500F0020540F0020D50F0020B1
:10322000A82A002070220020742200200249086091
:1032300000200871704700BFA82A002001480079CB
:10324000704700BFA82A002030B501460B4BC86864
:103250001C680A68A04208BF196003680B60858873
:103260008B888C688D80838083688B60846002602B
:10327000C268CA600021C16030BD00BFB02A002012
:10328000F8B505462868416D4A78D10648BF40F632
:10329000AC5465D4066D448B4CB9307CC0F38001CE
:1032A0000023872200F003008EF072FD0446286898
:1032B00000F1440104F2DC540A6953789A0728D4D7
:1032C000808C60B94A8802B9362296F84000C0F373
:1032D0008001002300F003008EF05AFD3DE04A78A3
:1032E000012A14DD0A7896F84000C0F3800100231B
:1032F00000F003008EF04CFD296822468C8C91F87A
:10330000451004F59B74491E01FB042425E0241894
:1033100026E024300023C27F96F84000C0F38001ED
:1033200000F003008EF034FD0746286844304178F1
:10333000012914DD027896F84000C0F380010023D3
:1033400000F003008EF024FD2A6892F845302146F3
:1033500007F59B745B1E03FB0414041900E03C1981
:10336000AC80F1BD30B5014609480A4C00682578AB
:10337000002201E0C068521CD3B2AB4205D2002843
:10338000F9D003688B42F5D130BD002030BD00BFBD
:10339000B02A0020B42A00202DE9F04706468946CD
:1033A000FFF7E0FF20B10020C9F80000012051E044
:1033B000102008F0D1FF040047D0274F266039685D
:1033C000264E002904BF3078002808D13C60E46014
:1033D0008EF072FA00F5385000F1E0082EE03078F7
:1033E00001284FF47A650ED10968086900F5FA5A88
:1033F00002F0E2FE00F00F083868E06015FB08A854
:103400003968CC601AE00868006900F5FA5802F0E3
:10341000D3FE00F00F0015FB00883D6800E0054674
:10342000E86802681069414604F0BAF818B9E8681B
:1034300039688842F3D1E868E060EC603078401C7D
:103440003070C9F80040404604E000210E208EF0A4
:10345000F3FC0020BDE8F087B02A0020B42A002049
:1034600070B505460024287E85F87200012634E0F8
:10347000686D427A95F872002B7EA0F12501A3F1C8
:10348000250006FA01F106FA00F0014322EA0101E3
:103490001C2212FB04F201F00701A81841F02401DC
:1034A000242980F8721016D1272180F8721012E0BA
:1034B000002C08BF0328DBD18EF0FEF9297E00F036
:1034C00001004118491C85F87210C8B22828A4BF11
:1034D000C91E85F87210641CE4B2E87D411E8C425E
:1034E000E6DB70BD10B50446002120788EF0C8F9E7
:1034F00008B9422010BD406DB4F803104378002293
:10350000D80607D520290FDBA4F80320C4F805202E
:10351000122010BD074803888B4205D2A4F803206F
:10352000C4F80520072010BD2046BDE8104000214A
:103530008EF0B6BA6002002010B504460021207853
:103540008EF09EF908B9422010BD406DB4F803100A
:1035500043780022D80607D520290FDBA4F80320E2
:10356000C4F80520122010BD074803888B4205D2FD
:10357000A4F80320C4F80520072010BD2046BDE8AC
:10358000104001218EF08CBA600200202DE9F84F26
:1035900005004ED0DFF8E48298F80000092818BF33
:1035A0000A2804D00B281CBF0C280D2801D121208B
:1035B00062E1A87800218EF063F9040008BF422080
:1035C000F6D0AF4FA978DFF8BCA2397098F80000A8
:1035D00010B9A8788AF8000004F14806F06841782C
:1035E00001F01201022902BF706900280C2012D0DC
:1035F000607AF0B1A07B012804D1B5F8030008B1CE
:10360000812816DA6878402813DA20468EF0E0FB2D
:10361000B06808B907202FE1B561287801281FD1CB
:10362000A07B00281CBF0128042819D196480078E7
:1036300008B9122020E195494A78824208BF092042
:10364000F8D0F068417848070AD504F122018020BB
:103650004A7F04F1380101F0F7FE08B10B200BE1BD
:10366000687808B9112007E12878DFF82492DFF89C
:1036700024B2012840F0AF8000212173F166217A45
:10368000012903D1B16968794871F4E00120002172
:103690002072E1726173254604F072FC6060DBF811
:1036A000000080477C4A0146106802E06A68426078
:1036B00000680028FAD10846D9F8001088476968E0
:1036C00076484861002138781EF014FE39780122CE
:1036D00011201EF00BFEF0684178C80605D528467B
:1036E00000F0E2FC010024D0C6E0688C1EF0DEFD94
:1036F00085F82100F06800781EF00DFE04001CBF64
:1037000094F8B000002807D0E87F40F02000E87768
:10371000687D40F01800687528461EF0C5FD010060
:10372000E2D134B194F8B000012804BF28461EF05D
:10373000F8FDF0684178C8071CD505F14204A1885E
:1037400000291CBF3068002814D022788A4211D288
:103750000F208EF05DFA68B1F06801788DF80010E6
:103760000F20A288ADF8012021788DF8031069465A
:103770008EF062FB98F80000A0B94949087800284B
:103780001EBFF068417811F0030F03D04548006870
:103790008EF0BEF8112088F80000012129721EF079
:1037A00077FD68E02846FFF7DDFD00281CBFB16803
:1037B000002960D0AA7B012A04D02A69808802EB04
:1037C000800202E0486E2A69821895F8B810104607
:1037D000FFF7D6FC4FE0207A00284CD0DBF8001031
:1037E00088470546387801211EF084FD00202E49C7
:1037F00020720A683E7811460B68187A002802BFCA
:10380000586D0378B3421FD0C9689142F4D138781B
:103810009AF80010884224D104F060FC6168884264
:103820001FD104F0E1FE40F201408EF019F91F496A
:103830001F4A204808600121107808F0AFF9D9F834
:1038400000102846884716E01B4E30780128DEDD40
:103850000846FFF7F9FC08F08FFD3078411E317003
:10386000D5E720468EF0ECF9D9F8001028468847B5
:10387000204601F0E1F90020BDE8F28FC80F0020DA
:10388000D60F0020D50F0020D40F0020780E002086
:1038900074220020702200204C0F0020A58100001F
:1038A000880E00206C0F0020B02A0020480F002056
:1038B000C70F002021490000B42A002038B5104865
:1038C0000068002101E0017200680028FBD10D486A
:1038D0000D4D01688847044605E0C1682960002253
:1038E000C26008F049FD28680028F6D1074A084B55
:1038F00028600021117020461C68A04731BD00BF20
:103900004C0F002070220020B02A0020B42A002092
:103910007422002070B51748174C007802280ED189
:103920002068C46801688288A58883688580A66845
:103930008660256805602160A280A36070BD0328B1
:1039400016DB2068FFF780FC2668054600E0064687
:10395000F068016828680969006903F021FE002801
:103960001EBFF06821688842F1D1F068F560E86018
:1039700070BD00BFB42A0020B02A00202DE9F0411C
:103980008DF09AFF364D8046286800281DBF354EC1
:1039900030780028002061D029680A68107A002851
:1039A00041D13278022A3EDB0846FFF74DFC08F091
:1039B000E3FC3078411E317035E002F0FDFB2968F0
:1039C00009684B6DD3F8037027F07F4740F6C413A6
:1039D0005F434FF00B0C90FBFCFC0B2303FB1C0024
:1039E00080B24FF47A640A69604317FA80F0821853
:1039F0000A610AE00868827B012ADED18DF05CFF53
:103A000029680A6800F57A601061307802280ADBBC
:103A10002868C16800680A680069116903F0C0FD80
:103A200008B1FFF777FF286801680969404603F08D
:103A3000B7FD00282968DDD10A68107A0028ABD0CC
:103A4000506D094B02781A700868016D0069886032
:103A5000296808684168026D4A60006DBDE8F08120
:103A6000B02A0020B42A0020D50F002010B5184C31
:103A700020688EF09DF948B30179032926D1007A98
:103A800010F00F0F1CBF00F00F01012908D000F04B
:103A90000F02022A1EBF042900F00F00062815D1CC
:103AA0000C4801680A6A507880B1C86940780028DB
:103AB00018BF02280AD1084800680178407881427E
:103AC00004D120688EF060F8012010BD002010BDE8
:103AD0008C0A0020500F0020700F00202DE9F047C5
:103AE000804608F1480517460E46AA68B00702F15D
:103AF000A40408F12A0918D5E968487810F0030FE2
:103B000004BFB9F81C1000290FD1286868B992F8D1
:103B10008A0000F0FD0082F88A000622EB6803F1BB
:103B20000C01204607F06BFEA41D300708D5B9F83C
:103B3000161004F8011BB9F81600000A04F8010B6E
:103B4000F00608F1210A18D5B9F800109AF80030EB
:103B50003329E9688A7DB4BF40200020511E03F05C
:103B60003F031843C9B2C7F30C07207047EA413737
:103B700067703F043F0EA770E41CB00604D52146D1
:103B800040461EF0D2FB123470060ED50849094B90
:103B9000C86B416908689AF8082002EB4202815616
:103BA0001A6892F9040041182170BDE8F08700BF3F
:103BB00088200900400F00202DE9FE4F0446002018
:103BC000009000250CB907F0ABFD04F1500841F658
:103BD0002300D8F8007038807D8002223A737A730F
:103BE00069462046FFF7D8FB08B9072051E2009943
:103BF00001B1B860B8682061DFF89C04017884F8EE
:103C0000B810D8F80400407A00F0D0FB25302076B8
:103C1000207EB873FD73D8F80400017D022904BF2B
:103C2000002007F07DFDD8F80400007D012802D1B6
:103C30000020002104E083280CBF06200220202160
:103C40003874797404F12406DFF850A4DAF83C00E3
:103C500041690868717901EB41010844B0F801201D
:103C60007A82D8F80400417848060AD5607DC106FA
:103C700004D5E07F40F04000E07702E040F04000F3
:103C8000607507F15C0904F1300089F80050B17EDD
:103C9000890001F0040189F80010B866607DC10652
:103CA00056D5D8F8042051788A060CD500F0FE00CD
:103CB0006075D8F80400417811F0030F03D1E07F5C
:103CC00000F0FE00E077607D8DF0F2FFA075421CF1
:103CD000387CC0F38001002392B200F003008EF024
:103CE00057F8A0831E20A28B02F59B7393FBF0F084
:103CF0001E2101FB1030C0B208B1C0F11E008218B5
:103D000002F59B7262831E20A28B02F5967293B21B
:103D100093FBF0F001FB1030A283C0B208B1C0F1F8
:103D20001E008018A08380B2E27D618B521E50433A
:103D30004018608307F13005608BB430800038662E
:103D4000062089F80300E17F41F00801E17720E0D7
:103D500040F001006075D8F804104A78510744BF5C
:103D600040F002006075607D8DF0A2FFA075002319
:103D7000401C82B2387CC0F3800100F003008EF05A
:103D800007F8A083A08B00F59670A0833D6689F8A4
:103D90000350A17D207D61F3050007F188012075A6
:103DA00008700322607D48708A70B07E800000F049
:103DB000040040F003008870F27ED20002F0080296
:103DC000104388700020C870C7F89000B08BC0F313
:103DD0000B00B083D8F80410CA7D40EA0230B083EB
:103DE0000022617D01F0FE012046FFF777FE01977A
:103DF00000271EE01C2010FB07F004EB000B0199CC
:103E00001C220BF1640007F0FAFC0BF16C00052199
:103E100001717F1CA28B92000260FFB2DAF83C10A5
:103E20004A691168737903EB43031944B1F801201F
:103E30004281E07D401E8742DCDB019F2046FFF788
:103E40000FFBE07D012809D013D3032808D03EBF23
:103E500004F164007860C8F818500AE07D6008E05A
:103E600004F16400786004F18001C8F81810C8F803
:103E7000345041F6240038860021798607F13C054C
:103E8000B868618B00EB8100B86302218220287042
:103E90006970002194F82100E97000F03F00A870DB
:103EA000D8F80400807D012818BF022803D100F053
:103EB0007F00401E04E083280CBF06200220202142
:103EC000287169714FF0000BDAF83C00416908680D
:103ED000727902EB42021044B0F80110E980C7F891
:103EE0006CB0D8F80400417811F0030F20D08DF0A9
:103EF00063FDF866DAF818000078C107DAF81810E0
:103F000009784CBF1F200F208A07DAF818100978AB
:103F100048BF40F020004A07DAF81810097848BF77
:103F200040F040000A0748BF40F0800089F81400C4
:103F300089F815B0D8F80410594A897C01F00301BA
:103F400089F81510B07E800000F00400014389F864
:103F50001510F07EC00000F00800014341F0100190
:103F600089F81510107838B199F8140000F0FE00A7
:103F700041F0400189F8140089F81510E07F8DF0B8
:103F800097FE84F8200020468DF00AFEE07FC106EF
:103F900036D5D8F8040094F820204178521C8807C0
:103FA0004EBFD21EF07F12182879C0F38001002383
:103FB000D2B200F003008DF0EBFE30801E2230887C
:103FC00000F59670C0F11E0190FBF2F21E2000FB7E
:103FD00002113171D8F804104878810731884CBF3C
:103FE00000204FF49B70401830807080B86B31888F
:103FF00032795218A63200EB82007867022002E084
:10400000C7F874B0002089F8170004F13000C7F831
:10401000800007F18400D8F804104A78510707D5CA
:1040200004F13802026099F8150040F0200007E022
:104030001C490A685168016099F8150000F0DF001A
:1040400089F81500A17F94F8200060F30501A1779D
:1040500040F60B002882A5F812B0DAF83800008884
:1040600080007865DAF83800008800B107202877EA
:104070000220687794F84510E983D8F80400417865
:10408000880744BF0121E983009808B1FFF7F8F8D9
:104090000020BDE8FE8F00BF502A002088200900C4
:1040A000880E00206C0F00202DE9F84F04460020F8
:1040B00000900CB907F034FB04F1500569462E68F6
:1040C0002046FFF769F908B9072015E1A04641F23B
:1040D0008839DFF828B2DFF828A2002469684A7A14
:1040E0001820604301233718A3401A420AD098F8D9
:1040F0000E103AF81100388000211BF80420BA7322
:10410000F97302E040F6010038800021798007F160
:1041100018007860387B00F0EF00387340F08000C2
:10412000387398F80E10012916D1397B002C0CBF7A
:104130000220052001F0F0010843387324B98DF006
:10414000BBFB00F57A6000E04846B860787B00F081
:10415000F00040F0020017E0002C0CBF022100210B
:1041600000F0F0000843387324B98DF0A5FB00F58A
:104170007A6000E00020B860022C797B0CBF01203F
:10418000022001F0F00108437873641C06F1480036
:10419000386106F16801032C79619FDB98F80E0005
:1041A0000024012808F1A80718D108F19C007063C9
:1041B0001822314607F023FB06F118002865C5F8E0
:1041C0005490397801F0F00141F0050139707878A8
:1041D00000F0F00040F00200787000E07463B06816
:1041E000C8F810004748017839748DF0E5FBB064D9
:1041F000454881690978CA07826912784CBF1F2136
:104200000F2193078269127848BF41F020015307BC
:104210008269107848BF41F04001020706F14C0264
:1042200048BF41F08001117054706968887C00F0CB
:10423000030008F13E0150700B7863F38200507068
:104240004978947061F3C3005070D47040F010004E
:1042500050703465746508F13800F06598F80E0008
:10426000012818BF042815D0A86830B1B0F80300A1
:104270009070A968D1F805003065E86830B1B0F8F1
:104280000300D070E968D1F8050070651F48016827
:104290004868F06508F13000B065D07D00F0EF00AF
:1042A000D07540F08000D07500F0F00040F00600BE
:1042B000D0752869B0F8030000280EBF144849F6ED
:1042C0004041484370661349087838B150781178F6
:1042D00040F0400001F0FE01507011700E498B78E3
:1042E000507859064CBF40F0200000F0DF005070BD
:1042F0000098FEF7C5FF0020BDE8F28F506E021057
:10430000F46B0210502A0020882009006C0F002056
:1043100000204E00880E0020C00C002070B5214BFC
:10432000214D197801F00104C1F340010C191978ED
:10433000C1F380010C190022A97B2539060018BFA2
:104340000128C9B201D01E2070BDE4B2012C11D0E9
:10435000040003D1022910D04A1C05E001280CD129
:1043600009B9022209E04A1ED4B2022C05DDD0B2FE
:10437000032815D1084670BD00221C780125954000
:104380002C42F4D1040004D1D4B2022CF4D0521C3B
:10439000EAE70128E8D1D4B2002CE2D0521EE3E7CC
:1043A00070BD00BF681B0020E80B002038B5044634
:1043B00001F002FF04F00102C4F340018A18C4F3C3
:1043C00080018A18D2B290FBF2F102FB11010025A4
:1043D000C9B2002001228240144203D0EAB28A42CC
:1043E00004D06D1C401CC2B2032AF3DBC0B232BD44
:1043F000F0B5124B1B7890FBF3F403FB1400FF2184
:10440000002200230E4C0025E65CEE40F70704D5A1
:10441000D6B287B2BE4209D0521C6D1CEEB2082E35
:10442000F2DB5B1C052BEEDBC8B2F0BDD90051FA04
:1044300085F1CDB2FF2DF7D1F3E700BF702A002040
:10444000682A002038B504460D4600210C4A217226
:10445000107810B120468DF0F3FB204600F0ECFB05
:104460003C2D18BF432D0AD106488178880706D510
:1044700029462046BDE83840FF228DF0BDBB31BD46
:10448000B42A0020200E00202DE9F84F054605F142
:104490004C0AE87D9AF80010DAF8047081424FF077
:1044A0000008C0F0938105F1280407F1900907F195
:1044B0007306C34640F08C80A87F7075E97FB175A4
:1044C000DAF808205278930710D5EA7FD30604D58E
:1044D000C01E707501F0EF01B175C7F874B086F8B1
:1044E00000800022B17D01F0FE016AE1910608D44E
:1044F000E08B00B1E07E3076E08B00B1206AC9F835
:104500000000DAF808004178CA070DD5E08B0028D2
:104510001CBF206A002807D0C9F80000A17EE08BEC
:10452000814238BF08463076E87FC1060CD5B86BAB
:10453000217800EB8100B863B86BA98CA63100EB41
:1045400081007867022002E0C7F874B00020307064
:10455000DAF80800417811F0030F22D100781DF03D
:10456000DAFE5FEA00081CD098F8B000032809D1F1
:10457000E87F810615D440F02000E877B07D40F058
:1045800020000DE068B9E87F81060AD500F0DF0061
:10459000E877707DA0F112017175B07D00F0DF0049
:1045A000B075E97F002201F0FC012846FFF796FA7A
:1045B000B8F1000F36D0E87F810633D598F8B00007
:1045C00002282FD141462846BDE8F44F1DF0A7BE72
:1045D000E87F81060AD500F0DF00E877707DA0F162
:1045E00012017175B07D00F0DF00B075DAF80800D7
:1045F0004178C80717D5B07D717D00F0F700891E9E
:1046000001F03F0182075CBF891D40F002004206B5
:1046100044BF491E00F0BF00B0757175C9F800B005
:1046200086F81880D2E09AF80020E87D121AD2B2FB
:104630008907009240F18280012A07F140083FD1AA
:10464000B86BA98C00EB8100B863A87F00F03F0035
:10465000A8777075E97FB175DAF8082053785A07A2
:1046600003D5801F707501F0FD01B1750023707DC9
:10467000E17E00F03F00421898F80000521CC0F3A1
:10468000800192B200F003008DF082FB00F59B7078
:10469000A8841E21A88C90FBF1F18AB2B17D01F0B3
:1046A000FE012846FFF71AFA86F800B0E08B00B149
:1046B000E07E3076E08B00B1206AC9F8000085E02A
:1046C000B86BA98C022A00EB8100B86326D1E87F81
:1046D000C10706D5707D811F7175B07D00F0FE00A9
:1046E000B0750023707DE17E00F03F00421898F81D
:1046F0000000521CC0F3800192B200F003008DF064
:1047000047FB00F59B70A8840022B17D01F0FE01FB
:104710002846FFF7E3F9607FA8F81A00617F009848
:10472000491C081AC0B201281CDDB96BAA8CA6323C
:1047300001EB820179670221317014E0B86BA98C1A
:1047400000EB8100B863617F0098081AE97FCA0610
:10475000C0B207D5B96BAA8CA63201EB820179678A
:104760000221317090B395F81F80A97FD9F80020FD
:10477000E37E1A44C9F8002028F00108DAF808207E
:104780005278530748BF28F00208920748BF28F024
:104790000808012807D1207F3076C7F874B028F0C8
:1047A000100886F800B001F0C00440468DF080FA91
:1047B00000F03F002043707586F81680002208F054
:1047C000FC012846BDE8F84FFFF788B9BDE8F18F36
:1047D0002DE9F041044604F1500500202E68708058
:1047E00006F173086968487AFFF7E0FD2530207606
:1047F00004F12207207EB0732046FEF731FE207DB3
:1048000088F815000020617D88F8161088F81800D7
:10481000C6F890003888401C388080B21DF046FDF4
:1048200084F821006868417811F0030F42D10078C4
:104830001DF071FD00283DD000F1B001087803287B
:1048400006D1E27F930603D442F02002E27731E002
:1048500001280ED1E07F40F02000E077607D40F03D
:104860001800607520461DF01FFD20461DF059FD03
:1048700020E008B10879E8B1E07F00F0DF00E077E0
:10488000A868002804BFE868002810D16868007D87
:1048900083280CD0617D03280A4607D0C80648BF8C
:1048A00001F0EF02100748BF02F0F70262752046E0
:1048B0001DF0FAFC617D002201F0FE012046FFF7A9
:1048C0000DF90020708606F13E0094F8211001F0E9
:1048D0003F010170B168628B01EB8201B16300217D
:1048E000018294F84520828369684A78910709D546
:1048F000BA887A80A17F01F03F0141F08001A17761
:1049000001218183E07FC10608D5B06B7988A6318B
:1049100000EB81007067022088F80000BDE8F0819C
:104920002DE9F041DFF85C8198F8000000218CF05F
:10493000A7FF040004F1500602D106F0F1FE91E059
:10494000207A08B9002140E0217B491C217330699D
:10495000407920B1C9B2814208BF432135D004F16A
:104960003E070020B8730B2501F026FC7168D1F8D2
:104970000320D4F810E022F07F4240F6C41303FB7A
:1049800002EE90FBF5F50B2202FB1500D6F800C0F5
:1049900080B24FF47A6148431EFA80F0CCF80800E8
:1049A000336839489968216133690268B3F80300B4
:1049B00000281FBF706E0028A37B012B0CD09388AA
:1049C00001EB8301814207D33C212046FFF73AFDEA
:1049D000BDE8F0411DF05CBC2C4D2878012809DDB4
:1049E000D068016810680969006902F0D9FD08B152
:1049F000FEF790FF70684178C8061BD5A17B01299E
:104A00000CD100222272287810B120468DF018F9BE
:104A10001F480078022107F0C1F80EE0306890F8D6
:104A2000631001F0E00141F0860180F8631019493C
:104A3000416602E020461DF093FC1749087888B1D2
:104A40003878022818BF03280CD1144F38680D306D
:104A50008DF092F830B93868C11D062204F130009B
:104A600006F0CDFE1DF014FC4CB17068017E4806C6
:104A700005D54146BDE8F04103208DF0DDB9BDE824
:104A8000F08100BFD50F0020B02A0020B42A0020FA
:104A9000C70F002000204E00880E0020680F002065
:104AA0002DE9F8434F4C2168087B68B98DF0CCF9AB
:104AB0002168096A0878002804BF8888002840F027
:104AC0008080002109207AE0474D484E0020688010
:104AD0008CF0F2FE00F6C410009020683278C169B4
:104AE00002EB82028818C1888088814202BF404957
:104AF0000879012865D03F4F0099386A02F050FDCF
:104B000068B1786A18B1009902F04AFD38B100988E
:104B1000A86021680868BDE8F24303F07DBD00206D
:104B2000FFF7FCFB2530A87340F6C4122168C86962
:104B300090F802C03378BCF1050F48D183F001032F
:104B4000337003EB8303C86903447879DB7863F33C
:104B5000410078713078D1F81CC00B6900EB8008F7
:104B60000CEB0809B9F804C002FB0C3CC5F808C0FE
:104B7000C1F810C043002B7438BB6874A86835783E
:104B8000CB6905EB85055E19F38802FB03023A62E7
:104B9000194A107888B1887A022818BF03280CD1E6
:104BA000164D28680D308CF0E7FF30B9286823686F
:104BB000C11D0622181D06F022FE00210A208DF0DC
:104BC0003BF9BDE8F1431DF063BB2020D5E703EBC3
:104BD00083031844D1F810C0808802FB00C0A8608D
:104BE0000861CBE7500F0020E80B0020D80F002011
:104BF000A82A00208C0A0020880E0020680F0020C0
:104C00000178012908D002290AD004290CD00829EA
:104C100004D0102906D009E0FEF7B0BE1DF083BB1A
:104C2000034870471DF08ABB0248704740687047D0
:104C3000E80B0020040C002010B50446A07A01F017
:104C400011F850B1617B8A0707D5017B41F0010162
:104C50000173607B00F0FD006073616D087E0206E9
:104C600007D5607BC20704D4BDE8104001208DF059
:104C7000E3B810BD10B5010018BF012803D0022809
:104C80001CBF0628002015494FF4C1520A8000239A
:104C90004B8000224A608A600A73CA7301234B73F7
:104CA00088730F4A0F4813880B82C26B0E4B5268F1
:104CB0004A61C26B92688A61C26BD268CA61C26B78
:104CC00012690A62C26B526910681C7804EB4404D2
:104CD0002044B0F801204A8210BD00BFEC0A002039
:104CE000A00F002088200900CA0F0020F8B58AB064
:104CF00002A81C491C4D1D4C20228BF0D7FA00261F
:104D0000CDE900661A482E68006856F8607F0023D7
:104D100002AA2146B847174AC2E900016188ADF8E6
:104D20000010BDF800000028F9D0B1F5A05F05D053
:104D3000002006F0F5FC89208DF006F80E490F4B97
:104D4000C8680F4C4288187802432280C8680078EF
:104D500081060C4943BF0C480068400A00200870D7
:104D60000BB0F0BD1C200900200F0020EC0A002031
:104D70001C0F0020600E002088200900C40F0020B6
:104D8000A00F0020C90F002080130050F8B590B08C
:104D900004460D4608A8204920228BF087FA0020FF
:104DA000ADF80A00039040F603079DF815109DF832
:104DB0001400ADF8087001F0F001002200F060006E
:104DC00041F0010104928DF814008DF81510ADF832
:104DD0001650ADF818208DF81A408DF81B20079258
:104DE000CDE900220D4C0E482568006855F8606F2B
:104DF000002308AA02A9B0470A4AC2E90001BDF887
:104E00000A00B0F5806F05D0002006F089FC8820EC
:104E10008CF09AFF11B0F0BD3C200900200F00205B
:104E20001C0F0020600E00201CB50F490F4CCA6BF0
:104E300053691A6800EB40000244B2F80130638203
:104E40001022ADF800200A4BCA6B52691168094A5A
:104E50001C6808446946B0F80100ADF8020010680B
:104E600054F8242F904713BD88200900EC0A002035
:104E7000200F00201C0F0020F8B504461646FF271F
:104E800030000D461DD010490868804701460420B7
:104E90002318421E93F87630FC2B08D1F3B22B4432
:104EA000204413F8013C80F87630761E1746D0B2C5
:104EB00000281CBFF2B2002AEAD1084603490A685A
:104EC0009047F8B2F2BD00BF70220020742200208B
:104ED0002DE9F041054614480E4601689046884782
:104EE00001240027291991F87710FF2916D00022F4
:104EF00000E0521CD3B216F803C0BCF1FF0F0AD079
:104F00006145F6D12A19FC2182F87710F9B2F35CD9
:104F100008F801307F1C641C042CE3DB03490A6899
:104F20009047F8B2BDE8F081702200207422002082
:104F300070B5044604F1380004F190060178174D6D
:104F40004170307801281AD120897288401C904223
:104F500015DB04F1610120468CF08EFDD4F89C1124
:104F6000204688472A68A1795054A0792A68125CA3
:104F700004F16101FCF754FF0220307006E0D4F820
:104F80009C11204688472A68A17950542868A17945
:104F9000425C206841688A7370BD00BFDC2A002033
:104FA00070B50446C0B200F053FE0546E0B200F012
:104FB00059FE064605F5CB700178012916BF022976
:104FC0004C1E8C1E01796879022908BF002108B99E
:104FD000FF2070BD307CC2070FD495F894300022BA
:104FE000E0B28CF0D5FE716980B241F6583201F022
:104FF000004102EBC00211437161002070BD00004E
:10500000F8B58B488B4D01782A788A4200F00E81E2
:105010006A68002400E0641C8C4280F204814FF432
:10502000D0736343134418790028F4D1E0B200F040
:105030000FFE0121017100224271426200F1610103
:105040008471012200F168034A711A71012400225F
:105050001A609A6000F1900602814281047480F81F
:10506000392082610277C283327000F592749A7699
:10507000227580271F739A730027FF22DF741A7628
:1050800000F20D131F70DF70BC46BE4600F5897735
:1050900083F801C083F802E0A7F800C0A7F802C0B7
:1050A00087F805E000F1E70386F804C083F800C044
:1050B00083F801C000F1EC03C3F800C0C3F804C0DA
:1050C00083F80AE083F80CC083F808C083F80DC0A9
:1050D00083F80EC083F80FC0A7F808C0A7F80AC06D
:1050E000A7F80CC0A7F80EC047F23057A76100F52B
:1050F000C676C4F800C02273A4F80EC084F81CC0A1
:1051000084F81DC0A2770127B7720227F77286F8CC
:105110000EE086F80CC0484FDFF820E13F78777347
:1051200086F806C084F80AC084F804C084F805C074
:1051300084F806C084F807C084F808C084F809C061
:1051400000F5B3743E4F84F800C086F800C04FF0FD
:105150001B0C3F88E7803B4F3F882781BEF80070DB
:105160006780394F3F88A780A4F80AC04FF4A4771E
:10517000E7812782A4F80CC0E7822783A4F812C035
:10518000A4F814C06783A783E78327846784A78470
:10519000A6F802C00127377100240719641C042CEB
:1051A00087F87720F9DB294A14780C7057784F700C
:1051B00094788C700446D778CF7012790A710021E8
:1051C000234A50186718407887F8FD00491C0829C1
:1051D000F7DB2048306100211974A07900F042FD0E
:1051E0000646A079FFF7DCFE1B480178307C71731E
:1051F00000F0FC0030740022B069F28100F0004041
:1052000040F4853040F04000B061307F00F0F8009D
:1052100030772878401C2870C0B2012804BFA079DC
:10522000A8702046F2BD002006F07AFA0020F2BDF8
:10523000D40F0020780E0020C50F00208A0F002018
:105240008C0F0020980F0020960F0020602A00206D
:10525000C00C00204DE50110641B002070B5254EE8
:1052600004463068A2792C2500F11C016A43885855
:1052700008B107F081F8A179306869430144886A70
:1052800008B107F079F8A17932686943505C0028C9
:105290001EBF194BD869002803D0002353541DF0BA
:1052A00022F8A379306815FB03F52C22002128444D
:1052B00006F0D7FA11480078082818BF072803D14C
:1052C000A17901221DF012F860790D4D40B1002145
:1052D0006171687808B906F023FA6878411E697030
:1052E0002878401E2870C0B208B9FF20A87000219D
:1052F000217170BD742A0020782A0020C80F002078
:10530000780E002050B50D490D4A497812680129E0
:1053100004BF1478A0420ED0002300E023464C1EA8
:10532000A34208DAD65C5C1CB042F7D18C4202D0B2
:10533000501CC05C50BDFF2050BD00BF780E002047
:10534000340F002038B50446C0B200F081FC054699
:10535000E0B200F087FC697909B9FF2032BD017C19
:10536000C1F3400139B96A8E40F6C4114A438169DC
:1053700062F31E018161002032BD80B5C0B200F031
:1053800067FC010003D0CB895B08042B01DA002005
:1053900002BD0A2093FBF0F00A2202FB1033012B1E
:1053A000ACBF012200221018B1F8621182B28A4209
:1053B00028BF002080B202BDF8B58CF07DFA05460A
:1053C00005F6C41500261E4F00E0761C3978F0B2B1
:1053D000884232D200F03CFC044660790028F4D0C8
:1053E00018490A68A0791070294620468CF0BCFB49
:1053F00020680178402902BF04F182000178012968
:1054000002BF41886289914205D1A169C08809180B
:10541000204600F0B9F9A079FF211CF09DFFE0893A
:10542000B4F862114008884205D3207C18B9A079ED
:1054300001211CF067FFA079F2BDFF20F2BD00BF83
:10544000D40F0020340F00202DE9F04705460E460A
:10545000924680281EBF4028002006F061F93C4992
:10546000487850B33B48007800218CF009FA0400DA
:1054700004BF002006F054F9802D21D1616D4878D9
:10548000C20604D5A27B012A18BF042A1FD000F04F
:105490001402042A1BD0C20606D5A07B20B9887C42
:1054A000022818BF032816D0487810F0140F04D132
:1054B000887C022818BF03280DD00020BDE8F087A3
:1054C000402DFAD1244801684A69107808B90124AE
:1054D00002E00128F1D100240027204DDFF8808070
:1054E000DFF880901BE08879504502BF0B78307858
:1054F000834213D148787278904202BF8878B2789C
:1055000090420BD1C878F278904202BF0879327984
:10551000904202BF48797179884217D07F1C99F870
:105520000010F8B28842C8D200F092FB01464879D8
:105530000028F3D0002C01F59471D4D18A79D8F8E1
:1055400000008CF021FC29788842E7D20120B5E7E1
:10555000780E0020D60F0020540F0020F82A0020DB
:105560006C0F0020D40F002003490A78022AA4BF40
:1055700000210167704700BF780E002038B5040095
:105580000D4608BF06F0CCF8A07929468CF050FCF7
:105590002046FFF7E9FF20468CF0A2FABDE8314033
:1055A0001CF076BE30B50F4800210022431CCCB25F
:1055B000491CCDB21A55082DF9DBD0214172302299
:1055C00082727821C17208220273002141738173B3
:1055D000C1730174FF218278417042F059028270D8
:1055E00030BD00BFC00C002038B504460B4A6088AF
:1055F00013880025834238BF8A200AD3884238BFE7
:105600008B2006D38CF0B4F9A06008B1012502E02C
:1056100081208CF071F9284632BD00BF382A002065
:105620002DE9F84F07460C4615469A46C0B200F0E1
:105630000FFB8346F8B200F015FB074601263879C8
:10564000DFF83C81DFF83C91012802D0022859D0D4
:1056500094E0BAF1020F0AD100207880388002224B
:105660003A71B86806F0D8FC0020B8604DE0388880
:1056700002280FDB7A8841198A420BDA00207880F1
:10568000388002223A71B86806F0C6FC0020B86083
:105690008B203DE001280CD128000AD079882078A1
:1056A000091D41EA0021798038462946FFF79CFF11
:1056B0000646B868002861D0012E5FD13B882A4693
:1056C0002146184406F09BF838882D183D80ADB26D
:1056D0007A88954252D19BF87410802917BF81298E
:1056E0007F2199F80000091A49B200915346B96820
:1056F00098F80200FCF740FB0020788038800222F6
:105700003A713BE0BAF1020F38D1280004D18C2065
:10571000BDE8F24F8CF0F0B8012D03D13D80217827
:1057200079802AE021786078091D41EA002179809A
:1057300038462946FFF758FF0146B868F0B10129FD
:105740001CD12A46214606F05AF87A88954211D192
:105750009BF87410802917BF81297F2199F80000D8
:10576000091A49B200910223B96898F80200FCF7BF
:1057700003FB03E038882D183D803E71BDE8F18FB2
:10578000780E0020C90F002010B502685368146914
:1057900040F6C41202FB01449C6081614FF4C8735F
:1057A000428A5143B1FBF3F1491C416101684B68E6
:1057B0009A684169521A9A6001684B689A688A60CF
:1057C000BDE8104000F000B87CB5044604F1860145
:1057D0008CF09AFA04F182050021688960842177AF
:1057E000E18304F12E066189E0894118A1812A89AB
:1057F000B188A8898A4204BF3389984202BF6B8965
:10580000F1888B4206D0000900906B89A17952087B
:10581000002004E0000900905208A17930208CF0AB
:1058200027FBB088A4F86401297931702889B080F9
:105830006989F180A889308120468CF019FA02200C
:10584000287073BD044B1B6D2BB143F8220001F18E
:10585000045141F8280F70476C1B0020024A52681F
:105860000AB142F8210070476C1B0020F0B50246D7
:105870000020FF230C4CA5692E5C0F0009D0964236
:1058800003D0FF2A07D12B5405E02B54FF2A02D066
:1058900007E0FF2E04D0401C1428ECDBFF20F0BDF5
:1058A0002A54C0B2F0BD00BFB82A0020B0B5084AE3
:1058B000936901460020C4B21D5D8D4205D0401C95
:1058C000C7B2142FF7DBFF20B0BDC0B2B0BD00BF20
:1058D000B82A002070B505280D461646214C17D071
:1058E000062820D0072818BF082827D0112838D12B
:1058F0002846FFF7DBFFFF28054632D020684EB36D
:10590000001D002100F835108BF0D6FF21681EE045
:105910002EB1002020758BF0CFFF206170BD207D5F
:10592000401C207570BD2EB1002020738BF0C4FF89
:10593000A06070BD207B401C207370BD60684EB1BC
:10594000001D002100F835108BF0B6FF616841F8AA
:10595000350070BD021D001D12F83510491C00F8FD
:10596000351070BDB82A00202DE9F14F82B08BF0C0
:10597000A3FF009041F60301BDF808005026401A2D
:105980004FF0FF3B0328D9464FF0320842F2107720
:10599000DFF880A2A04D40F28C801E38012808D983
:1059A000801EF8D0001F00F0F180401E00F01E8124
:1059B0002CE19A4A907800F04BF90400F8D0E08E80
:1059C000618E90FBF1F76868A17950F8311000986A
:1059D0008BF0E6FF03462089A179D5F820C0904AD4
:1059E000032810DBDFF83CE2DEF800E02C2010FB9F
:1059F00001F01EF80090B9F1010F1EBF704490F83D
:105A00002100012811D1914608FB07F46422B4FB60
:105A1000F2F26C681CF80100241D14F83160964203
:105A200016D2A8B953451ED312E06868001D7E4304
:105A300010F831E01CF801004FF0640BB6FBFBF6E8
:105A4000B6454FF0FA6903D210B9774EB3420BD383
:105A5000401C032290FBF2F202EB4202801A0CF887
:105A60000100DFF8C891D1E008FB07F8B8FBFBF8AC
:105A7000EE69C64512D2705C80B953450ED204F16E
:105A80007B031878002804BFD879002806D194F841
:105A90009201002804BF587D002809D0705C91460F
:105AA000401C032290FBF2F202EB4202801A705477
:105AB000ACE05F48007800218BF0E2FE0400F7D0F4
:105AC000606D0078FFF7F2FEFF280190F0D0BDF87E
:105AD000080041F6030188421CBF41F604018842D8
